:020000040800F2
:100000001809002045010008791B0008A506000812
:10001000751B00089F060008F11C00080000000086
:100020000000000000000000000000007F1B00082E
:10003000A3060008000000007B1B00085D0100080B
:100040005F0100085F0100085F0100085F01000810
:100050005F0100085F0100085F0100085F01000800
:100060005F0100085F0100085F0100085F010008F0
:100070005F0100085F0100085F0100085F010008E0
:100080005F0100085F0100085F0100085F010008D0
:100090005F0100085F0100085F0100085F010008C0
:1000A0005F0100085F0100085F0100085F010008B0
:1000B0005F0100085F0100085F0100085F010008A0
:1000C0005F0100085F0100085F0100085F01000890
:1000D0005F010008C91C00085F0100085F010008FB
:1000E0005F0100085F0100085F0100085F01000870
:1000F0005F0100085F0100085F0100085F01000860
:100100005F0100085F0100085F0100085F0100084F
:100110005F0100085F010008991C00085F010008EA
:100120005F0100085F0100085F0100085F0100082F
:10013000DFF80CD000F082FA00480047591E000892
:10014000180900200648804706480047FEE7FEE7FA
:10015000FEE7FEE7FEE7FEE7FEE7FEE7FEE7FEE777
:10016000811B000831010008F0B480EA0102D40FBD
:100170004200B2EB410F02D20246084611464A0045
:1001800042D0C30DDDB2C1F3C752AD1A202D35DA0E
:10019000C1F3160141F4000204B15242C5F1200638
:1001A00002FA06F12A411044B3EBD05F23D0C4B168
:1001B000012DA0EBC35009DCF0BC4FF0004202EA75
:1001C000C352DBB200F5000000F0ACB9400000F112
:1001D000807000EBC350A0F1807040EAD1704900FC
:1001E00009E0490841EAC071A0EBC35000F50000E6
:1001F000400800EBC350F0BC00F08BB96142012213
:1002000002EB4101001BF6E7F0BC704781F00041B2
:10021000AAE780F00040A7E780EA010210B502F0EB
:100220000043400022D04A001FD0010E01EB1261B2
:10023000C0F35600C2F3560240F4000042F400023C
:10024000A0FB022000047F39140400D0401C50EAB7
:10025000124001D44000491EC2B20C0604EBD0107B
:10026000401C4008802A02D003E0002010BD20F08E
:100270000100002900DA0020184310BD2DE9FE4FCF
:1002800081EA030404F0004421F0004100944FF09F
:10029000000B23F0004350EA01045ED052EA03044D
:1002A0005BD0C3F30A54C1F30A552C44A4F2F334CF
:1002B0000194A0FB0254C1F3130141F48011C3F374
:1002C000130343F4801301FB024400FB034E840A32
:1002D000970A44EA815447EA8357A4FB07680295CA
:1002E0008D0A05FB07854FEA932C04FB0C54270568
:1002F000029D4FEA065847EA1637B5EB08056EEB44
:10030000070C870E920E47EA811742EA8312A7FB79
:100310000201B6EB0B0164EB00042B0D43EA0C3336
:100320005E1844EB1C50DA465146E7FB0201C5F368
:1003300013044FEA0B3343EA14534FEA0432019C8F
:1003400043EA0603A4F10C040294009CCDE900B436
:1003500000F025F903B0BDE8F08F00200146F9E771
:100360002DE9F04D81EA030404F0004B21F0004533
:1003700014464FF0000A23F0004150EA050220D055
:1003800054EA01021DD0C5F30A570246C5F3130310
:10039000C1F31300C1F30A5640F4801543F48013EF
:1003A000A7EB0608101BD64608F2FD3873EB0500D4
:1003B00002D308F1010801E092185B41B8F1000F87
:1003C00003DA00200146BDE8F08D00204FF48011D3
:1003D000064684460EE0171B73EB050705D3121B78
:1003E00063EB050306434CEA010C49084FEA300071
:1003F00092185B4150EA0107EDD152EA030012D096
:1004000082EA040083EA0501084305D0101BAB41D2
:1004100006D20122002306E000224FF0004302E052
:100420006FF0010253101AEB06004CEB085110EB71
:100430000A0041EB0B01BDE8F04D00F0A1B8C10F7F
:1004400080EAE0700844CA079623002100F06AB8E9
:1004500096230022114600F065B800F0004220F01B
:100460000040C10DC0F3160040F400007F2901DAFE
:1004700000207047962903DCC1F19601C84001E0D5
:1004800096398840002AF4D04042704720F000405E
:10049000C10DC0F3160040F400007F2901DA0020EE
:1004A0007047962903DCC1F19601C8407047963920
:1004B0008840704700F0004230F000400AD0C10D83
:1004C00001F56071C0F3160042EA0151C20840070D
:1004D0001143704700200146704701F0004330B4DB
:1004E00021F0004150EA010206D00A0DA2F5607227
:1004F000C1F31301002A02DC30BC00207047440F16
:1005000044EAC104C100E01830BC00EBC250AFF3B4
:1005100000800029A8BF7047401C490008BF20F098
:100520000100704710B4B0FA80FC00FA0CF050EAF9
:10053000010404BF10BC704749B1CCF1200421FA7A
:1005400004F411FA0CF118BF012121430843A3EB75
:100550000C01CB1D4FEA00614FEA102042BF002082
:1005600010BC704700EBC35010440029A4BF10BC5E
:100570007047401C490008BF20F0010010BC7047C4
:1005800010B5141E73F1000408DA401C41F100019B
:1005900092185B411A4301D120F0010010BD2DE9F2
:1005A000F04D92469B4611B1B1FA81F202E0B0FAE9
:1005B00080F22032904600F053F804460F4640EA9D
:1005C0000A0041EA0B0153465A46084313D011462C
:1005D00053EA010019D0C8F14002504600F04FF82C
:1005E00005460E4650465946424600F039F8084343
:1005F00005D0012004E020463946BDE8F08D0020FA
:10060000054346EAE0762C4337430A986305E40A3B
:10061000A0EB08000022FD0A44EA47540A3002D544
:1006200000200146E9E7010510196941DDE90845A7
:1006300000196941BDE8F04DA2E70000064C074DE6
:1006400006E0E06840F0010394E8070098471034A2
:10065000AC42F6D3FFF770FD402600086026000884
:10066000202A04DB203A00FA02F100207047914072
:10067000C2F1200320FA03F3194390407047202A67
:1006800004DB203A21FA02F00021704721FA02F33C
:10069000D040C2F12002914008431946704700BF84
:1006A000FEE7704700BFFEE703460BB90020704726
:1006B00019609A8000201881D8800120987200BFAC
:1006C000F5E700002DE9F04104460D46174698462F
:1006D000069E094804600CB9BDE8F0810748064948
:1006E000096808600648044909688860284601F0DE
:1006F00067FB00BFF0E70000CC00002035070008D2
:100700002907000810B504460648006800B910BD66
:10071000044800682146426802480068904700BFCC
:10072000F5E70000CC000020014908607047000098
:10073000B401224270B504460D462946204601F018
:10074000ADFD70BD10B504460648006800B910BD87
:10075000044800682146C26802480068904700BF0C
:10076000F5E70000CC0000203EB510230022012157
:100770000D4800F04BFD0446032C14D0122C05D07C
:10078000072C10D1084800F0E8F80CE00120009098
:100790000549019002AB10220868002100F079FDA4
:1007A000BDF8080002903EBD5802002038B512483E
:1007B0001023002201210090104800F038FD04466B
:1007C000032C06D0122C04D0072C02D10B4800F0C9
:1007D000C4F80B481023002201210090094800F0C2
:1007E00026FD0446032C06D0122C04D0072C02D17F
:1007F000044800F0B2F838BDAC00002070020020C0
:10080000AE000020B80200201CB500200121082302
:100810004FF41652CDE900102D492E4800F0A4F8EF
:10082000012801D000201CBD40F201122A492948AC
:1008300000F021FD2949274800F070F808B9002090
:10084000F1E72749234800F069F808B90020EAE7F2
:100850002449204800F062F808B90020E3E70320AB
:1008600047F2305300221B4900901F4800F066F801
:10087000032047F230530022164900901B4800F035
:100880005DF8032047F230530022124900901848C7
:1008900000F054F8032047F2305300220D49009035
:1008A000144800F04BF8032047F230530022094966
:1008B0000090114800F042F810A20021124801F007
:1008C0001EF812A20021144801F019F80120AAE72D
:1008D000C5060008D4000020D00200200800002037
:1008E00054000020A00000205802002070020020C8
:1008F00088020020A0020020B802002072775F74F6
:100900006573745F300000008D11000872775F74AA
:100910006573745F31000000CD11000870B50446A6
:100920000D4604B10DB9002070BD1422294604F112
:10093000100001F007F906463046F5E730B5039C94
:1009400000B930BD42600160002585600361047517
:100950004575C1F87C5100BFF3E700B9704700212D
:100960000173417500BFF9E72DE9F04F89B00446E6
:100970000F4690469946129D1CB9002009B0BDE86B
:10098000F08F00202066002164200153002606E03D
:10099000002104F1100040F82610701CC6B2142E7D
:1009A000F6DB4148E06000202060404860600020A5
:1009B000A060A4F86C01401EC4F870010020C4F8C7
:1009C00074014046FFF744FD0190FFF773FD0246B6
:1009D0000B46CDE9020100203549FFF7C1FC00229A
:1009E000344BCDE90401FFF749FCCDE90601FFF7DF
:1009F00074FD82464FF0000B139909B1012100E00C
:100A0000002101EB0900FFF71AFD51460690FFF7A0
:100A100003FC0790FFF73AFD1FFA80FB65B95846C3
:100A2000FFF716FD51460690FFF79EFB0790FFF774
:100A30002DFD1FFA80FB27E0012D12D14FF07F51D1
:100A40005046FFF7E9FB06905846FFF701FD059079
:100A50000699FFF789FB0790FFF718FD1FFA80FB47
:100A600012E0022D10D169075046FFF7D5FB069022
:100A70005846FFF7EDFC05900699FFF775FB0790C8
:100A8000FFF704FD1FFA80FBA4F878B1002084F87A
:100A9000800137B113982B464A46414600902046C4
:100AA000B84701206AE70000931500084D150008BB
:100AB0000000F03F006AF8402DE9F04F06460D4671
:100AC00094469946DDE90978334613B90020BDE81C
:100AD000F08F012F03D0022F01D00020F7E7002173
:100AE000A2E003F1100050F8210000B99AE003F1F0
:100AF000100050F82100C07A404500D092E003F188
:100B0000100050F821000088A8427DDC03F110009D
:100B100050F82100028803F1100050F821000089EC
:100B2000104405EB0C0290427BDB03F1100050F8FF
:100B30002100807AB84273D103F1100050F82100EF
:100B40000088281A84B2002266E04FEAE27A02EBBB
:100B50005A7A4FEAEA0AA2EBCA0A09EBE20B9BF8BF
:100B600000B04BFA0AFB0BF0010ABAF1000F27D0D4
:100B700003F1100A5AF821A0DAF804A004EB020BE2
:100B80004FEA2B1B3AF81BA010194FEAE07B00EB51
:100B90001B7B4FEA2B1BA0EB0B1E4FF0010B0BFA3C
:100BA0000EFB4AEA0B0A03F1100B5BF821B0DBF8ED
:100BB00004B004EB020E4FEA2E1E2BF81EA029E013
:100BC00003F1100A5AF821A0DAF804A004EB020B92
:100BD0004FEA2B1B3AF81BA010194FEAE07B00EB01
:100BE0001B7B4FEA2B1BA0EB0B1E4FF0010B0BFAEC
:100BF0000EFB2AEA0B0A03F1100B5BF821B0DBF8BD
:100C000004B004EB020E01E00BE009E04FEA2E1EF7
:100C10002BF81EA0501C82B2624596DB012056E7DD
:100C200000BF00BF481C81B21429FFF65AAF002054
:100C30004DE72DE9F04F06460D4694461C46DDE98A
:100C40000A79DDF82480324612B90020BDE8F08F21
:100C5000032F03D0042F01D00020F7E7002158E034
:100C600002F1100050F8210000B950E002F110002C
:100C700050F82100C07A484500D048E002F1100049
:100C800050F821000088A84240DC02F1100050F822
:100C90002100038802F1100050F821000089184457
:100CA00005EB0C03984231DB02F1100050F82100F3
:100CB000807AB84229D102F1100050F82100008852
:100CC000281A1FFA80FA002300BF1AE0B8F1000FBB
:100CD00009D014F81300000234F813B040EA1B20C6
:100CE00024F8130001E034F8130002F1100B5BF854
:100CF00021B0DBF804B00AEB030E2BF81E00581CE1
:100D000083B26345E2DB0120A0E700BF00BF481CBF
:100D100081B21429A4DB002098E710B500F063FC31
:100D200010BD2DE9F04F8BB004460D4690461E468F
:100D3000DDE9147B01200A901CB900200BB0BDE84E
:100D4000F08F206808B90020F8E7A07DC0F34000CC
:100D500028B1A07D00F0010008B10820EEE720686E
:100D6000D0F87C0130B12068D0F87C01A04201D0DD
:100D70000320E3E7607DC0BB216801F1600000F063
:100D800046FE012D09DB042D07DC00973346424661
:100D90002946206800F021FB1CE0052D01D0062D1E
:100DA0000BD1012F16DBBBF8000000903346424602
:100DB0002946206800F017FD0CE00F2D01D0102D02
:100DC00008D1F8B2CDE9000B3346424629462068E7
:100DD00000F00FFC2068D0F87401A060012060755D
:100DE0002068C0F87C410620A8E7FFE7207B217D32
:100DF000884275DA206890F88001002871D00020C0
:100E00000790216881F88001216801F160000122CA
:100E100008A900F00FFE10B90A200A90AFE19DF872
:100E20002000804502D009200A90A8E1216801F144
:100E30006000012207A900F0FDFD10B90A200A9008
:100E40009DE19DF81C0081287BD012DC052879D01B
:100E500008DC01281ED002281DD003287AD00428DF
:100E600072D178E0062870D00F286FD01028F7D103
:100E7000EFE085286BD006DC822869D0832868D013
:100E80008428EDD11BE1862879D08F2878D090284E
:100E9000E6D128E100BF216801F16000012208A924
:100EA00000F0C8FD216801F1600000F09FFD9DF891
:100EB0002010891C884202D00A200A905FE107F0C6
:100EC000FF0909964FF0000A32E0216801F1600045
:100ED000012206A900F0AEFD20B90A200A904EE1D9
:100EE00044E106E19DF81C00CDE90008B9F1080FC6
:100EF00001DA494600E008210A4606AB2068099954
:100F0000FFF7DAFD10B90B200A9038E1B9F1080FAC
:100F100001DA494600E008210998084480B20990A6
:100F2000A9F1080000F0FF090AF101001FFA80FA98
:100F30009DF820008245C8DB0220607512200A90CF
:100F40001DE1ADE05AE005E0D2E058E080E0BBE012
:100F5000ABE0AFE000BF216801F16000012208A909
:100F600000F068FD216801F1600000F03FFD9DF890
:100F70002010891C884204D00A200A90FFE0A8E0D3
:100F8000ACE09DF82000401006904FF0000A2DE0E4
:100F9000216801F16000012204A900F04BFD9DF8D9
:100FA000100000020590216801F16000012204A9EF
:100FB00000F040FDBDF814009DF8101008430590A6
:100FC0009DF81C00002106EB0A02CDE90108009102
:100FD00091B205AB01222068FFF72BFE10B90B2060
:100FE0000A90CCE00AF101001FFA80FA06988245C7
:100FF000CEDB0220607512200A90C0E000BF012203
:1010000006A9206800F075FA012802D00A200A908B
:10101000B5E0BDF81800B04202D010200A90AEE052
:10102000012206A9206800F064FA012802D00A20F3
:101030000A90A4E0BBF80000BDF81810884202D066
:1010400010200A909BE00220607512200A9096E022
:1010500000BF012206A9206800F04BFA012802D047
:101060000A200A908BE0BDF81800B04202D0102090
:101070000A9084E0012206A9206800F03AFA0128CB
:1010800002D00A200A907AE0BDF81800B84202D0D7
:1010900010200A9073E00220607512200A906EE022
:1010A000032060750C200A9069E0032060750D2014
:1010B0000A9064E0032060750E200A905FE0032030
:1010C00060750F200A905AE00320607510200A9086
:1010D00055E00320607511200A9050E003206075F0
:1010E00010200A904BE00320607511200A9046E022
:1010F00000BF607D02280CD12068D0F87401A1687F
:10110000401A6168884234D30020607501200A903B
:1011100035E0607D012802D0607D032829D1206858
:10112000D0F87401A168401A2169884221D320684F
:10113000D0F87401A06000206075207B401C2073F3
:1011400000202168C1F87C01207B217D88420ADBD8
:1011500007200A90A07DC0F3400018B1A07D40F0A8
:101160000100A0750BE005200A9008E007200A9016
:1011700005E0607D012801D10620DFE500BF0020E9
:101180002168C1F87C010A98D8E5000038B5054609
:101190000B4806230022012100900A4800F059F86C
:1011A0000446032C0AD0122C06D0072C06D1064880
:1011B000FFF7D3FB012038BD0220FCE70020FAE74F
:1011C000B2000020880200207002002038B50546D9
:1011D0000B4806230022012100900A4800F039F84C
:1011E0000446032C0AD0122C06D0072C06D1064840
:1011F000FFF7B3FB012038BD0220FCE70020FAE72F
:10120000BE000020A0020020700200202DE9FC4159
:1012100007460C4615461E4600202B462246012155
:10122000CDE900603846FFF77CFDBDE8FC812DE983
:10123000FC4107460C4615461E46DDF820802B462D
:1012400022460F213846CDE90068FFF76AFDBDE868
:10125000FC812DE9FC4107460C4615461E46DDF88B
:1012600020802B46224610213846CDE90068FFF742
:1012700058FDBDE8FC8170B504460D46164604B91C
:1012800070BD3246294604F16000FFF70DFA00BF39
:10129000F6E72DE9F04F06460D4690461C46DDE97F
:1012A000097C334613B90020BDE8F08F012F03D02D
:1012B000022F01D00020F7E7002289E003F110009F
:1012C00050F8220000B981E003F1100050F822002C
:1012D000C07A604500D079E003F1100050F8220098
:1012E0000088A84271DC03F1100050F82200018848
:1012F00003F1100050F822000089084405EB0801B2
:10130000884262DB03F1100050F82200807AB84274
:101310005AD103F1100050F822000088281A1FFA51
:1013200080F9494649E003F1100A5AF822A0DAF898
:1013300004A04FEA211B3AF81BA04FEAE17B01EB26
:101340001B7B4FEA2B1BA1EB0B1B4AFA0BFA0AF093
:10135000010ABAF1000F17D008464FEAE17A01EB13
:101360005A7A4FEAEA0AA1EBCA0B4FF0010A0AFACD
:101370000BFA04EBE10B9BF800B04AEA0B0A04EB12
:10138000E10B8BF800A016E008464FEAE17A01EB8A
:101390005A7A4FEAEA0AA1EBCA0B4FF0010A0AFA9D
:1013A0000BFA04EBE10B9BF800B02BEA0A0A04EB02
:1013B000E10B8BF800A0481C81B209EB08008842C1
:1013C000B1DC012070E700E000BF00BF501C82B21A
:1013D000142AFFF673AF002066E72DE9F0470446B4
:1013E000894617461D46089E00BFD4F87001401C70
:1013F0000028FAD1A06810B10120A16888474FF6F3
:10140000FF780020A4F86C01B4F86C11481CA4F813
:101410006C0104F16C0047543946404600F0FEFA76
:101420008046B4F86C11481CA4F86C0104F16C00FF
:1014300000F801904946404600F0F0FA8046290A3B
:10144000B4F86C21501CA4F86C0104F16C008154B8
:10145000290A404600F0E2FA8046B4F86C21501C9C
:10146000A4F86C0104F16C008554E9B2404600F028
:10147000D5FA8046310AB4F86C21501CA4F86C01EE
:1014800004F16C008154310A404600F0C7FA8046EE
:10149000B4F86C21501CA4F86C0104F16C00865463
:1014A000F1B2404600F0BAFA8046B4F86C21501C04
:1014B000A4F86C0104F16C0000F802804FEA2821C6
:1014C000B4F86C21501CA4F86C0104F16C00815438
:1014D000B4F86C112268904700BFD4F87001401C2A
:1014E0000028FAD1A06810B10020A1688847BDE8A3
:1014F000F087F8B506460D4617460DB90020F8BD31
:1015000000241FE00122694606F1600000F092FA13
:1015100008B90420F3E79DF80000000225F8140044
:101520000122694606F1600000F084FA08B904203F
:10153000E5E735F814009DF80010084325F814007D
:10154000601CC4B2BC42DDDB0120D8E773B50546A0
:101550002C4604B97CBD012201A904F1600000F011
:10156000ACFA00B9F6E7D4F87001401C18B94FF690
:10157000FF70A4F87A01B4F87A019DF8041000F025
:101580004DFAA4F87A01D4F87401C4F8700100BFD0
:10159000E0E770B505460E462C4604B970BDC4F8A8
:1015A0007461D4F87001401C00B9F7E7D4F87011E9
:1015B000D4F87401401AB4F87811884211D3B4F801
:1015C0007A0140B104F1600000F021FA4FF0FF30E1
:1015D000C4F87001E2E7012084F88001801EC4F89D
:1015E000700100BFDAE710B5FFF7BEF8FFF7DEF8CD
:1015F00010BD2DE9F84F04460F46934698460A9EC3
:1016000000BFD4F87001401C0028FAD1A06810B1C6
:101610000120A16888474FF6FF7000900020A4F8D1
:101620006C01B4F86C11481CA4F86C0104F16C0056
:1016300000F801B05946009800F0F0F90090B4F8B5
:101640006C11481CA4F86C0104F16C004754394635
:10165000009800F0E3F900904FEA1821B4F86C21EB
:10166000501CA4F86C0104F16C0081544FEA18215D
:10167000009800F0D3F90090B4F86C21501CA4F845
:101680006C0104F16C0000F8028008F0FF01009882
:1016900000F0C4F900900021B4F86C21501CA4F8AB
:1016A0006C0104F16C008154009800F0B7F90090CF
:1016B000B4F86C21501CA4F86C0104F16C00865441
:1016C000F1B2009800F0AAF900900F2F0DD130462A
:1016D000F11706EB5171C910A6EBC10109B1012147
:1016E00000E0002101EBE60904E0102F02D17006B2
:1016F0004FEA1069B4F86C11481CA4F86C0104F1AD
:101700006C0000F801904946009800F087F90090BD
:101710000F2F16D1002511E00B98415DB4F86C2114
:10172000501CA4F86C0104F16C0081540B98415DCD
:10173000009800F073F90090681C85B24D45EBDB12
:101740002CE0102F2AD1DDF82CA0002523E03AF858
:1017500015000112B4F86C21501CA4F86C0104F1BE
:101760006C0081543AF815000112009800F056F907
:1017700000901AF81510B4F86C21501CA4F86C01F4
:1017800004F16C0081541AF81510009800F046F925
:101790000090681C85B2B542D9DB00BF0098C1B289
:1017A000B4F86C21501CA4F86C0104F16C00815455
:1017B00000980112B4F86C21501CA4F86C0104F1DB
:1017C0006C008154B4F86C112268904700BFD4F8C3
:1017D0007001401C0028FAD1A06810B10020A16857
:1017E0008847BDE8F88F2DE9F0470446894617463B
:1017F0001D46089E00BFD4F87001401C0028FAD195
:10180000A06810B10120A16888474FF6FF7800203A
:10181000A4F86C01B4F86C11481CA4F86C0104F134
:101820006C0047543946404600F0F8F88046B4F85A
:101830006C11481CA4F86C0104F16C0000F80190D4
:101840004946404600F0EAF88046290AB4F86C217F
:10185000501CA4F86C0104F16C008154290A404624
:1018600000F0DCF88046B4F86C21501CA4F86C0140
:1018700004F16C008554E9B2404600F0CFF8804690
:10188000310AB4F86C21501CA4F86C0104F16C000E
:101890008154310A404600F0C1F88046B4F86C210A
:1018A000501CA4F86C0104F16C008654F1B240465F
:1018B00000F0B4F88046B4F86C21501CA4F86C0118
:1018C00004F16C0000F802804FEA2821B4F86C2182
:1018D000501CA4F86C0104F16C008154B4F86C1134
:1018E0002268904700BFD4F87001401C0028FAD14C
:1018F000A06810B10020A1688847BDE8F0872DE9F5
:10190000F04105460F46164600F050F8044614B95B
:101910000020BDE8F0812560A66067602046F8E7FA
:1019200070B500243DE0204800EB0410007B00F07F
:10193000010098B31C4800EB0410007BC00968BB91
:10194000194800EB0410006800B928E0164A02EBC1
:1019500004125068144A02EB0412116888470546C5
:10196000012D09D1104800EB0410007B40F08000ED
:101970000D4901EB0411087385B10B4800EB04100D
:10198000007BC0F3400048B1074800EB0410007B27
:1019900040F08000044901EB0411087300BF601C93
:1019A00084B2142CBFDB70BDD4030020002116E0EC
:1019B0000D4800EB0110007B00F0010068B90A48F7
:1019C00000EB0110007B40F00100074A02EB01121E
:1019D0001073054800EB01107047481C81B21429B0
:1019E000E6DB0020F8E70000D4030020014609B937
:1019F00000207047B1F90800B1F90620801A8A88E2
:101A0000104490FBF2F302FB130080B2F1E700B93F
:101A1000704700210181C18000BFF9E7024682EAD8
:101A20000100C0B2024B33F8100080EA2220704758
:101A30004024000870B504460D461646B4F9060069
:101A4000B4F90810884201D1002070BDB4F9060035
:101A5000401CA18890FBF1F201FB120000B2E08073
:101A6000052E27D2DFE806F003090F161D00B4F992
:101A700006102068405C28701CE0B4F9061020684D
:101A8000405C287016E0B4F90610206830F81100A8
:101A900028800FE0B4F90610206850F82100286073
:101AA00008E0B4F90620216851F82200FEF7D5FCC1
:101AB000286000BF00BF0120C7E730B50346B3F977
:101AC0000800401C9C8890FBF4F504FB1500B3F95A
:101AD0000640A04201D1002030BDB3F90800401CEF
:101AE0009C8890FBF4F504FB150000B21881052AD0
:101AF00025D2DFE802F003090F161D000878B3F9BC
:101B000008501C6860551AE00878B3F908501C6842
:101B1000605514E00888B3F908501C6824F81500D3
:101B20000DE00868B3F908501C6844F8250006E089
:101B30000868B3F908501C6844F8250000BF00BFCE
:101B40000120C9E730B503460C46154600211A4668
:101B50000BB9002030BD002108E052F8210018B96F
:101B600042F821400120F5E7481C81B2A942F4DB8C
:101B70000020EFE700BFFEE77047704770477047EF
:101B800008B53048006840F001002E49086000BFE9
:101B90002C48006800F002000028F9D000BF294856
:101BA000406840F08000274948600020009002E033
:101BB0000098401C009000985028F9D321484068B4
:101BC00040F090001F4948600020009002E000981B
:101BD000401C009000985028F9D300BF1948406875
:101BE00020F003001749486008460068164908407D
:101BF0001449086008464068144908401149486083
:101C000008460068104908400E4908600846006808
:101C100020F480200860084640680D4908400949C2
:101C200048600846006808490840064908604FF4C3
:101C30001F00886000F08CFA00214FF0006000F077
:101C40007BF908BD00100240FFFFF6FE0C00FFE824
:101C5000FFFF00F77FB505460C4640F2047000F028
:101C600009FA0020ADF80200ADF804000295ADF8C5
:101C700000406946074800F075FA0121054800F068
:101C8000E1FA03220121362000F0F6F8014800F0C5
:101C900063FA7FBD0010004010B50121084800F034
:101CA000D8FA60B10121064800F0D0FA0548006872
:101CB000401C0449086008460068FEF743FD10BD5B
:101CC00000100040D000002010B50749074800F080
:101CD00073FB38B1054800F035FBC4B22046FEF76F
:101CE00011FD00BF10BD00000503050000380140D4
:101CF00000BFFEE702E008C8121F08C1002AFAD19F
:101D000070477047002001E001C1121F002AFBD17B
:101D10007047F0B5044616460025002201F00F0575
:101D200001F0100707B1354300201EE0012787406E
:101D30001F40C7B122684FEA800C0F2707FA0CF743
:101D4000BA43870005FA07F73A43282904D1012747
:101D500087401F40676105E0482903D1012787407C
:101D60001F4027612260471CB8B20828DED3082034
:101D700022E0012787401F40E7B16268A0F1080711
:101D80004FEA870C0F2707FA0CF7BA43A0F10807B0
:101D9000BF0005FA07F73A43282904D101278740F5
:101DA0001F40676105E0482903D1012787401F4094
:101DB00027616260471CB8B21028DAD3F0BD00007A
:101DC00010B5044640F20E6000F054F940F2026093
:101DD00000F050F94FF40073032218211C48FFF75C
:101DE00098FF4FF48063032248211948FFF791FFC1
:101DF0002146184800F05EFA0021164800F018FB52
:101E00000021144800F004FB0021124800F0F0FA11
:101E10000021104800F0B3FA00210E4800F0B7FA94
:101E200008210C4800F0FCFA04210A4800F0E8FA06
:101E300040F20531074800F0B2FA00221146252091
:101E400000F01AF8034800F086FAFFF797FE10BD7D
:101E500000080140003801404FF4A06000F062F833
:101E6000FEF7D2FC63215F20FFF7F4FE03E0FEF7EC
:101E700054FFFFF755FDFAE72DE9F04103460D4603
:101E8000164600240027A0462448006800F4E060BD
:101E9000B0F5A06F15D006DCB0F5407F18D0B0F5D6
:101EA000806F19D110E0B0F5C06F06D0B0F5E06FCB
:101EB00012D100274FF0040815E001274FF0030866
:101EC00011E00227B8460EE003274FF001080AE0B0
:101ED00004274FF0000806E04FF4A06000F022F85D
:101EE0000227B84600BF00BFC7F1040005FA00F49E
:101EF000C8F104010F20C8403040044324010848C1
:101F0000C45403F01F01012088405911890001F1D8
:101F1000E021C1F80001BDE8F08100000CED00E017
:101F200000E400E002490143024A116070470000EA
:101F30000000FA050CED00E0034A0A400243034B9F
:101F40001A60BFF34F8F704780FFFF1F08ED00E05E
:101F50002DE9F04F8BB00746002009903EA090E895
:101F6000004CC068CDE905BECDF810A007900FF277
:101F7000EC0ADAE9000ACDE9020A0FF2E00ADAE92E
:101F8000000ACDE9000A38484068C0F381000A9091
:101F90000A9820B1012804D0022829D103E033494E
:101FA00028E0324926E03048406800F48038B8F52F
:101FB000803F09D12D4C2C48406800F40039B9F518
:101FC000003F02D1641000E0294C27484068C0F36C
:101FD00083422548406800F0006008B142F01002DA
:101FE0000F2A01D2921C00E0521C04FB02F101E016
:101FF0001E4900BF00BF1C484068C0F3031504A879
:10200000465D21FA06F318484068C0F3022502A88D
:10201000465D23FA06FC14484068C0F3C2251DF84B
:10202000056023FA06F0089037B1012F06D0022F81
:1020300006D0032F0AD106E0099108E0099306E0D3
:10204000CDF824C003E00898099000E000BF00BF6D
:1020500009980BB0BDE8F08F000000000000000000
:1020600001020304060708090010024000127A006A
:1020700000093D00064A02EB9011096800F01F03B9
:1020800001229A401143024B03EB901211607047FA
:1020900000100240002000212B4A126842F48032D6
:1020A000294B1A6000BF401C274A126802F4003115
:1020B00019B94FF6FF729042F5D1234A126802F423
:1020C00000320AB900BFFEE71F4A52681E4B5A6031
:1020D0001A4652685A601A46526842F480625A6040
:1020E0001A46526822F440325A601A46526842F444
:1020F00080325A601A465268144B1A40124B5A608A
:102100001A46526842F420125A601A46126842F087
:1021100080721A6000BF0C4A126802F00072002A36
:10212000F9D0094A526822F00302074B5A601A4656
:10213000526842F002025A6000BF034A526802F03D
:102140000C02082AF9D1704700100240FFFFC3F7C4
:1021500010B5FFF79FFF10BD016841F0010101605C
:10216000704700000A888262294A904220D0B0F16C
:10217000804F1DD0274A90421AD0274A904217D04C
:10218000264A904214D0264A904211D0254A9042C5
:102190000ED0254A90420BD0244A904208D0244ABF
:1021A000904205D0234A904202D0234A90420FD158
:1021B000026822F07002026002688B7803F060030C
:1021C0001A43026002680B7903F010031A4302609D
:1021D0008A68C262194A90420CD0194A904209D0CA
:1021E000026822F44072026002688B8903F4407333
:1021F0001A430260064A904202D0094A904201D135
:102200008A7B0263426942F001024261704700002A
:10221000002C01400004004000080040000C004079
:1022200000340140004C0140005001400054014086
:1022300000180040001C004000200040001000403A
:1022400000140040C2680A43C2607047CA4302617A
:1022500070470246D06800EA01031069084010B1D7
:102260000BB1012070470020FCE7000010B50446C8
:1022700000BF0621084800F073F80028F9D0214675
:10228000054800F064F800BF0621034800F068F834
:102290000028F9D010BD00000038014070B5054697
:1022A0000E46002403E0285DFFF7E0FF641CB44203
:1022B000F9DB70BD2DE9F04704460D460027B8460E
:1022C000B94600261D49601A8C421CD006DC1C4809
:1022D000204470B1B0F5806F1FD10FE0B0F5806F72
:1022E00016D0B0F56C4F18D10320FFF731FE07462A
:1022F00014E00220FFF72CFE07460FE00220FFF754
:1023000027FE07460AE00220FFF722FE074605E007
:102310000220FFF71DFE074600E000BF00BF07EBED
:102320005500B0FBF5F64FF6F07006EA000806F02F
:102330000F0948EA0900A060BDE8F087004C0040A2
:1023400000BCFFBF01464868C0F308007047C1F3F6
:10235000080242607047C16841F40051C160704793
:1023600010B5024602EB9110006801F01F04012332
:10237000A340184008B1012010BD0020FCE70A4628
:102380000021416921F400711143416170470A46FF
:102390000021416921F4807111434161704710B5FA
:1023A000C1F38912825801F01F040123A3401A438C
:1023B000C1F38913C25010BD70B50246002300243A
:1023C000C1F38910105801F01F060125B54000EA3D
:1023D000050302EB91500068C1F304460125B540A6
:1023E00000EA050414B10BB1012070BD0020FCE728
:1023F000C26822F4C062C260C2680A43C260704709
:102400000A460021C16821F004011143C1607047F0
:10241000026922F44052026102690A430261704774
:102420000A460021C16821F008011143C1607047CC
:10243000C26822F48052C260C2680A43C260704718
:102440000000C1C081C1400101C3C003800241C27C
:1024500001C6C006800741C70005C1C581C440044C
:1024600001CCC00C800D41CD000FC1CF81CE400EFC
:10247000000AC1CA81CB400B01C9C009800841C80C
:1024800001D8C018801941D9001BC1DB81DA401A7C
:10249000001EC1DE81DF401F01DDC01D801C41DC4C
:1024A0000014C1D481D5401501D7C017801641D67C
:1024B00001D2C012801341D30011C1D181D040108C
:1024C00001F0C030803141F10033C1F381F240327C
:1024D0000036C1F681F7403701F5C035803441F44C
:1024E000003CC1FC81FD403D01FFC03F803E41FEFC
:1024F00001FAC03A803B41FB0039C1F981F840380C
:102500000028C1E881E9402901EBC02B802A41EA7B
:1025100001EEC02E802F41EF002DC1ED81EC402C4B
:1025200001E4C024802541E50027C1E781E640267B
:102530000022C1E281E3402301E1C021802041E08B
:1025400001A0C060806141A10063C1A381A240627B
:102550000066C1A681A7406701A5C065806441A44B
:10256000006CC1AC81AD406D01AFC06F806E41AEFB
:1025700001AAC06A806B41AB0069C1A981A840680B
:102580000078C1B881B9407901BBC07B807A41BA7B
:1025900001BEC07E807F41BF007DC1BD81BC407C4B
:1025A00001B4C074807541B50077C1B781B640767B
:1025B0000072C1B281B3407301B1C071807041B08B
:1025C0000050C190819140510193C053805241927B
:1025D0000196C056805741970055C195819440544B
:1025E000019CC05C805D419D005FC19F819E405EFB
:1025F000005AC19A819B405B0199C059805841980B
:102600000188C04880494189004BC18B818A404A7A
:10261000004EC18E818F404F018DC04D804C418C4A
:102620000044C184818540450187C047804641867A
:102630000182C042804341830041C181818040408A
:102640006026000800000020D4000000F41C0008F0
:1026500034270008D400002044080000041D0008AE
:10266000000000000000000000000000000000204A
:102670004000010101000200030004000500060003
:102680000700080009000A000B000C000000000011
:10269000000000000000000000000000000000003A
:1026A000000000000000000000000000000000002A
:1026B00000000000000000001400002020000301C2
:1026C00001000200030004000500060007000800E6
:1026D00009000A000B000C000000000000000000D0
:1026E00000000000000000000000000000000000EA
:1026F00000000000000000000000000000000000DA
:10270000000000006000002020000302AAAA555526
:10271000D2040100020003000400050006000600C8
:10272000050004000300020001000000000000009A
:0427300000000000A5
:0400000508000131BD
:00000001FF
