Component: ARM Compiler 5.06 update 6 (build 750) Tool: armlink [4d35ed]

==============================================================================

Section Cross References

    main.o(i.main) refers to gd32f10x_misc.o(i.nvic_priority_group_set) for nvic_priority_group_set
    main.o(i.main) refers to mdm_rtu_app.o(i.MDM_RTU_APPInit) for MDM_RTU_APPInit
    main.o(i.main) refers to tim3.o(i.TIM3_Int_Init) for TIM3_Int_Init
    main.o(i.main) refers to mdm_rtu_app.o(i.MDM_RTU_Loop) for MDM_RTU_Loop
    main.o(i.main) refers to mdm_rtu_rw_man.o(i.MDM_RW_CtrlLoop) for MDM_RW_CtrlLoop
    system_gd32f10x.o(i.SystemInit) refers to system_gd32f10x.o(i.system_clock_config) for system_clock_config
    system_gd32f10x.o(i.SystemInit) refers to gd32f10x_misc.o(i.nvic_vector_table_set) for nvic_vector_table_set
    system_gd32f10x.o(i.system_clock_config) refers to system_gd32f10x.o(i.system_clock_96m_hxtal) for system_clock_96m_hxtal
    startup_gd32f10x_xd.o(RESET) refers to startup_gd32f10x_xd.o(STACK) for __initial_sp
    startup_gd32f10x_xd.o(RESET) refers to startup_gd32f10x_xd.o(.text) for Reset_Handler
    startup_gd32f10x_xd.o(RESET) refers to gd32f10x_it.o(i.NMI_Handler) for NMI_Handler
    startup_gd32f10x_xd.o(RESET) refers to gd32f10x_it.o(i.HardFault_Handler) for HardFault_Handler
    startup_gd32f10x_xd.o(RESET) refers to gd32f10x_it.o(i.MemManage_Handler) for MemManage_Handler
    startup_gd32f10x_xd.o(RESET) refers to gd32f10x_it.o(i.BusFault_Handler) for BusFault_Handler
    startup_gd32f10x_xd.o(RESET) refers to gd32f10x_it.o(i.UsageFault_Handler) for UsageFault_Handler
    startup_gd32f10x_xd.o(RESET) refers to gd32f10x_it.o(i.SVC_Handler) for SVC_Handler
    startup_gd32f10x_xd.o(RESET) refers to gd32f10x_it.o(i.DebugMon_Handler) for DebugMon_Handler
    startup_gd32f10x_xd.o(RESET) refers to gd32f10x_it.o(i.PendSV_Handler) for PendSV_Handler
==============================================================================

Removing Unused input sections from the image.

    Removing gd32f10x_it.o(.rev16_text), (4 bytes).
    Removing gd32f10x_it.o(.revsh_text), (4 bytes).
    Removing gd32f10x_it.o(.rrx_text), (6 bytes).
    Removing main.o(.rev16_text), (4 bytes).
    Removing main.o(.revsh_text), (4 bytes).
    Removing main.o(.rrx_text), (6 bytes).
    Removing system_gd32f10x.o(.rev16_text), (4 bytes).
    Removing system_gd32f10x.o(.revsh_text), (4 bytes).
    Removing system_gd32f10x.o(.rrx_text), (6 bytes).
    Removing system_gd32f10x.o(.data), (4 bytes).
    Removing startup_gd32f10x_xd.o(HEAP), (512 bytes).
    Removing gd32f10x_adc.o(.rev16_text), (4 bytes).
    Removing gd32f10x_adc.o(.revsh_text), (4 bytes).
    Removing gd32f10x_adc.o(.rrx_text), (6 bytes).
    Removing gd32f10x_adc.o(i.adc_calibration_enable), (42 bytes).
    Removing gd32f10x_adc.o(i.adc_channel_length_config), (70 bytes).
    Removing gd32f10x_adc.o(i.adc_data_alignment_config), (22 bytes).
    Removing gd32f10x_adc.o(i.adc_deinit), (88 bytes).
==============================================================================

Image Symbol Table

    Local Symbols

    Symbol Name                              Value     Ov Type        Size  Object(Section)

    ../clib/microlib/init/entry.s            0x00000000   Number         0  entry9b.o ABSOLUTE
    ../clib/microlib/init/entry.s            0x00000000   Number         0  entry.o ABSOLUTE
    ../clib/microlib/init/entry.s            0x00000000   Number         0  entry7a.o ABSOLUTE
    ../clib/microlib/init/entry.s            0x00000000   Number         0  entry2.o ABSOLUTE
    ../clib/microlib/init/entry.s            0x00000000   Number         0  entry11b.o ABSOLUTE
    ../clib/microlib/init/entry.s            0x00000000   Number         0  entry5.o ABSOLUTE
    ../clib/microlib/init/entry.s            0x00000000   Number         0  entry11a.o ABSOLUTE
    ../clib/microlib/init/entry.s            0x00000000   Number         0  entry7b.o ABSOLUTE
    ../clib/microlib/init/entry.s            0x00000000   Number         0  entry10b.o ABSOLUTE
    ../clib/microlib/init/entry.s            0x00000000   Number         0  entry8a.o ABSOLUTE
    ../clib/microlib/init/entry.s            0x00000000   Number         0  entry10a.o ABSOLUTE
    ../clib/microlib/init/entry.s            0x00000000   Number         0  entry8b.o ABSOLUTE
    ../clib/microlib/init/entry.s            0x00000000   Number         0  entry9a.o ABSOLUTE
    ../clib/microlib/longlong.c              0x00000000   Number         0  llushr.o ABSOLUTE
    ../clib/microlib/longlong.c              0x00000000   Number         0  llshl.o ABSOLUTE
    ../clib/microlib/stubs.s                 0x00000000   Number         0  iusefp.o ABSOLUTE
    ../fplib/microlib/d2f.c                  0x00000000   Number         0  d2f.o ABSOLUTE
    ../fplib/microlib/f2d.c                  0x00000000   Number         0  f2d.o ABSOLUTE
    ../fplib/microlib/fpadd.c                0x00000000   Number         0  fadd.o ABSOLUTE
    ../fplib/microlib/fpdiv.c                0x00000000   Number         0  ddiv.o ABSOLUTE
    ../fplib/microlib/fpepilogue.c           0x00000000   Number         0  fepilogue.o ABSOLUTE
    ../fplib/microlib/fpepilogue.c           0x00000000   Number         0  depilogue.o ABSOLUTE
    ../fplib/microlib/fpfix.c                0x00000000   Number         0  ffixui.o ABSOLUTE
    ../fplib/microlib/fpfix.c                0x00000000   Number         0  ffixi.o ABSOLUTE
    ../fplib/microlib/fpflt.c                0x00000000   Number         0  fflti.o ABSOLUTE
    ../fplib/microlib/fpflt.c                0x00000000   Number         0  ffltui.o ABSOLUTE
    ../fplib/microlib/fpmul.c                0x00000000   Number         0  dmul.o ABSOLUTE
    ../fplib/microlib/fpmul.c                0x00000000   Number         0  fmul.o ABSOLUTE
    dc.s                                     0x00000000   Number         0  dc.o ABSOLUTE
    driver\\bitband.c                        0x00000000   Number         0  bitband.o ABSOLUTE
    driver\\led.c                            0x00000000   Number         0  led.o ABSOLUTE
    driver\\systick.c                        0x00000000   Number         0  systick.o ABSOLUTE
    driver\bitband.c                         0x00000000   Number         0  bitband.o ABSOLUTE
    driver\led.c                             0x00000000   Number         0  led.o ABSOLUTE
    driver\systick.c                         0x00000000   Number         0  systick.o ABSOLUTE
    handlers.s                               0x00000000   Number         0  handlers.o ABSOLUTE
    init.s                                   0x00000000   Number         0  init.o ABSOLUTE
    modbus_master\MDM_RTU_APP.c              0x00000000   Number         0  mdm_rtu_app.o ABSOLUTE
    modbus_master\MDM_RTU_Fun.c              0x00000000   Number         0  mdm_rtu_fun.o ABSOLUTE
    modbus_master\MDM_RTU_RW_Man.c           0x00000000   Number         0  mdm_rtu_rw_man.o ABSOLUTE
    modbus_master\MDM_RTU_Serial.c           0x00000000   Number         0  mdm_rtu_serial.o ABSOLUTE
    modbus_master\MDM_RTU_User_Fun.c         0x00000000   Number         0  mdm_rtu_user_fun.o ABSOLUTE
    modbus_master\MD_RTU_CRC16.c             0x00000000   Number         0  md_rtu_crc16.o ABSOLUTE
    modbus_master\MD_RTU_MapTable.c          0x00000000   Number         0  md_rtu_maptable.o ABSOLUTE
    modbus_master\MD_RTU_Queue.c             0x00000000   Number         0  md_rtu_queue.o ABSOLUTE
    modbus_master\MD_RTU_SysInterface.c      0x00000000   Number         0  md_rtu_sysinterface.o ABSOLUTE
    modbus_master\\MDM_RTU_Serial.c          0x00000000   Number         0  mdm_rtu_serial.o ABSOLUTE
    modbus_master\\MD_RTU_SysInterface.c     0x00000000   Number         0  md_rtu_sysinterface.o ABSOLUTE
    modbus_master\\tim3.c                    0x00000000   Number         0  tim3.o ABSOLUTE
    modbus_master\\usart3.c                  0x00000000   Number         0  usart3.o ABSOLUTE
    modbus_master\tim3.c                     0x00000000   Number         0  tim3.o ABSOLUTE
    modbus_master\usart3.c                   0x00000000   Number         0  usart3.o ABSOLUTE
    std\Source\gd32f10x_adc.c                0x00000000   Number         0  gd32f10x_adc.o ABSOLUTE
    std\Source\gd32f10x_bkp.c                0x00000000   Number         0  gd32f10x_bkp.o ABSOLUTE
    std\Source\gd32f10x_can.c                0x00000000   Number         0  gd32f10x_can.o ABSOLUTE
    std\Source\gd32f10x_crc.c                0x00000000   Number         0  gd32f10x_crc.o ABSOLUTE
    std\Source\gd32f10x_dac.c                0x00000000   Number         0  gd32f10x_dac.o ABSOLUTE
    std\Source\gd32f10x_dbg.c                0x00000000   Number         0  gd32f10x_dbg.o ABSOLUTE
    std\Source\gd32f10x_dma.c                0x00000000   Number         0  gd32f10x_dma.o ABSOLUTE
    std\Source\gd32f10x_enet.c               0x00000000   Number         0  gd32f10x_enet.o ABSOLUTE
    std\Source\gd32f10x_exmc.c               0x00000000   Number         0  gd32f10x_exmc.o ABSOLUTE
    std\Source\gd32f10x_exti.c               0x00000000   Number         0  gd32f10x_exti.o ABSOLUTE
    std\Source\gd32f10x_fmc.c                0x00000000   Number         0  gd32f10x_fmc.o ABSOLUTE
    std\Source\gd32f10x_fwdgt.c              0x00000000   Number         0  gd32f10x_fwdgt.o ABSOLUTE
    std\Source\gd32f10x_gpio.c               0x00000000   Number         0  gd32f10x_gpio.o ABSOLUTE
    std\Source\gd32f10x_i2c.c                0x00000000   Number         0  gd32f10x_i2c.o ABSOLUTE
    std\Source\gd32f10x_misc.c               0x00000000   Number         0  gd32f10x_misc.o ABSOLUTE
    std\Source\gd32f10x_pmu.c                0x00000000   Number         0  gd32f10x_pmu.o ABSOLUTE
    std\Source\gd32f10x_rcu.c                0x00000000   Number         0  gd32f10x_rcu.o ABSOLUTE
    std\Source\gd32f10x_rtc.c                0x00000000   Number         0  gd32f10x_rtc.o ABSOLUTE
    std\Source\gd32f10x_sdio.c               0x00000000   Number         0  gd32f10x_sdio.o ABSOLUTE
    std\Source\gd32f10x_spi.c                0x00000000   Number         0  gd32f10x_spi.o ABSOLUTE
    std\Source\gd32f10x_timer.c              0x00000000   Number         0  gd32f10x_timer.o ABSOLUTE
    std\Source\gd32f10x_usart.c              0x00000000   Number         0  gd32f10x_usart.o ABSOLUTE
    std\Source\gd32f10x_wwdgt.c              0x00000000   Number         0  gd32f10x_wwdgt.o ABSOLUTE
    std\\Source\\gd32f10x_adc.c              0x00000000   Number         0  gd32f10x_adc.o ABSOLUTE
    std\\Source\\gd32f10x_bkp.c              0x00000000   Number         0  gd32f10x_bkp.o ABSOLUTE
    std\\Source\\gd32f10x_can.c              0x00000000   Number         0  gd32f10x_can.o ABSOLUTE
    std\\Source\\gd32f10x_crc.c              0x00000000   Number         0  gd32f10x_crc.o ABSOLUTE
    std\\Source\\gd32f10x_dac.c              0x00000000   Number         0  gd32f10x_dac.o ABSOLUTE
    std\\Source\\gd32f10x_dbg.c              0x00000000   Number         0  gd32f10x_dbg.o ABSOLUTE
    std\\Source\\gd32f10x_dma.c              0x00000000   Number         0  gd32f10x_dma.o ABSOLUTE
    std\\Source\\gd32f10x_enet.c             0x00000000   Number         0  gd32f10x_enet.o ABSOLUTE
    std\\Source\\gd32f10x_exmc.c             0x00000000   Number         0  gd32f10x_exmc.o ABSOLUTE
    std\\Source\\gd32f10x_exti.c             0x00000000   Number         0  gd32f10x_exti.o ABSOLUTE
    std\\Source\\gd32f10x_fmc.c              0x00000000   Number         0  gd32f10x_fmc.o ABSOLUTE
    std\\Source\\gd32f10x_fwdgt.c            0x00000000   Number         0  gd32f10x_fwdgt.o ABSOLUTE
    std\\Source\\gd32f10x_gpio.c             0x00000000   Number         0  gd32f10x_gpio.o ABSOLUTE
    std\\Source\\gd32f10x_i2c.c              0x00000000   Number         0  gd32f10x_i2c.o ABSOLUTE
    std\\Source\\gd32f10x_misc.c             0x00000000   Number         0  gd32f10x_misc.o ABSOLUTE
    std\\Source\\gd32f10x_pmu.c              0x00000000   Number         0  gd32f10x_pmu.o ABSOLUTE
    std\\Source\\gd32f10x_rcu.c              0x00000000   Number         0  gd32f10x_rcu.o ABSOLUTE
    std\\Source\\gd32f10x_rtc.c              0x00000000   Number         0  gd32f10x_rtc.o ABSOLUTE
    std\\Source\\gd32f10x_sdio.c             0x00000000   Number         0  gd32f10x_sdio.o ABSOLUTE
    std\\Source\\gd32f10x_spi.c              0x00000000   Number         0  gd32f10x_spi.o ABSOLUTE
    std\\Source\\gd32f10x_timer.c            0x00000000   Number         0  gd32f10x_timer.o ABSOLUTE
    std\\Source\\gd32f10x_usart.c            0x00000000   Number         0  gd32f10x_usart.o ABSOLUTE
    std\\Source\\gd32f10x_wwdgt.c            0x00000000   Number         0  gd32f10x_wwdgt.o ABSOLUTE
    user\\gd32f10x_it.c                      0x00000000   Number         0  gd32f10x_it.o ABSOLUTE
    user\\main.c                             0x00000000   Number         0  main.o ABSOLUTE
    user\\system_gd32f10x.c                  0x00000000   Number         0  system_gd32f10x.o ABSOLUTE
    user\gd32f10x_it.c                       0x00000000   Number         0  gd32f10x_it.o ABSOLUTE
    user\main.c                              0x00000000   Number         0  main.o ABSOLUTE
    user\startup_gd32f10x_xd.s               0x00000000   Number         0  startup_gd32f10x_xd.o ABSOLUTE
    user\system_gd32f10x.c                   0x00000000   Number         0  system_gd32f10x.o ABSOLUTE
    RESET                                    0x08000000   Section      304  startup_gd32f10x_xd.o(RESET)
    .ARM.Collect$$$$00000000                 0x08000130   Section        0  entry.o(.ARM.Collect$$$$00000000)
    .ARM.Collect$$$$00000001                 0x08000130   Section        4  entry2.o(.ARM.Collect$$$$00000001)
    .ARM.Collect$$$$00000004                 0x08000134   Section        4  entry5.o(.ARM.Collect$$$$00000004)
    .ARM.Collect$$$$00000008                 0x08000138   Section        0  entry7b.o(.ARM.Collect$$$$00000008)
    .ARM.Collect$$$$0000000A                 0x08000138   Section        0  entry8b.o(.ARM.Collect$$$$0000000A)
    .ARM.Collect$$$$0000000B                 0x08000138   Section        8  entry9a.o(.ARM.Collect$$$$0000000B)
    .ARM.Collect$$$$0000000D                 0x08000140   Section        0  entry10a.o(.ARM.Collect$$$$0000000D)
    .ARM.Collect$$$$0000000F                 0x08000140   Section        0  entry11a.o(.ARM.Collect$$$$0000000F)
    .ARM.Collect$$$$00002712                 0x08000140   Section        4  entry2.o(.ARM.Collect$$$$00002712)
    __lit__00000000                          0x08000140   Data           4  entry2.o(.ARM.Collect$$$$00002712)
    .text                                    0x08000144   Section       36  startup_gd32f10x_xd.o(.text)
    .text                                    0x08000168   Section        0  fadd.o(.text)
    .text                                    0x08000218   Section        0  fmul.o(.text)
    .text                                    0x0800027c   Section        0  dmul.o(.text)
    .text                                    0x08000360   Section        0  ddiv.o(.text)
    .text                                    0x0800043e   Section        0  fflti.o(.text)
    .text                                    0x08000450   Section        0  ffltui.o(.text)
    .text                                    0x0800045a   Section        0  ffixi.o(.text)
    .text                                    0x0800048c   Section        0  ffixui.o(.text)
    .text                                    0x080004b4   Section        0  f2d.o(.text)
    .text                                    0x080004da   Section        0  d2f.o(.text)
    .text                                    0x08000512   Section        0  fepilogue.o(.text)
    .text                                    0x08000512   Section        0  iusefp.o(.text)
    .text                                    0x08000580   Section        0  depilogue.o(.text)
    .text                                    0x0800063c   Section       36  init.o(.text)
    .text                                    0x08000660   Section        0  llshl.o(.text)
    .text                                    0x0800067e   Section        0  llushr.o(.text)
    i.BusFault_Handler                       0x0800069e   Section        0  gd32f10x_it.o(i.BusFault_Handler)
    i.DebugMon_Handler                       0x080006a2   Section        0  gd32f10x_it.o(i.DebugMon_Handler)
    i.HardFault_Handler                      0x080006a4   Section        0  gd32f10x_it.o(i.HardFault_Handler)
    i.MDInitQueue                            0x080006a8   Section        0  md_rtu_queue.o(i.MDInitQueue)
    i.MDMInitSerial                          0x080006c4   Section        0  mdm_rtu_serial.o(i.MDMInitSerial)
    i.MDMSerialRecvByte                      0x08000704   Section        0  mdm_rtu_serial.o(i.MDMSerialRecvByte)
    i.MDMSerialSWRecv_Send                   0x08000728   Section        0  mdm_rtu_serial.o(i.MDMSerialSWRecv_Send)
    i.MDMSerialSendBytes                     0x08000734   Section        0  mdm_rtu_serial.o(i.MDMSerialSendBytes)
    i.MDMTimeHandler100US                    0x08000744   Section        0  mdm_rtu_serial.o(i.MDMTimeHandler100US)
    i.MDM_RTUUserRead                        0x08000768   Section        0  mdm_rtu_app.o(i.MDM_RTUUserRead)
    MDM_RTUUserRead                          0x08000769   Thumb Code    64  mdm_rtu_app.o(i.MDM_RTUUserRead)
    i.MDM_RTUUserWrite                       0x080007ac   Section        0  mdm_rtu_app.o(i.MDM_RTUUserWrite)
    MDM_RTUUserWrite                         0x080007ad   Thumb Code    76  mdm_rtu_app.o(i.MDM_RTUUserWrite)
    i.MDM_RTU_APPInit                        0x08000808   Section        0  mdm_rtu_app.o(i.MDM_RTU_APPInit)
    i.MDM_RTU_AddMapItem                     0x0800091c   Section        0  mdm_rtu_fun.o(i.MDM_RTU_AddMapItem)
    i.MDM_RTU_CB_Init                        0x0800093c   Section        0  mdm_rtu_fun.o(i.MDM_RTU_CB_Init)
    i.MDM_RTU_CB_OverTimeReset               0x0800095a   Section        0  mdm_rtu_fun.o(i.MDM_RTU_CB_OverTimeReset)
    i.MDM_RTU_Init                           0x08000968   Section        0  mdm_rtu_fun.o(i.MDM_RTU_Init)
    i.MDM_RTU_InsideWriteBits                0x08000ab8   Section        0  mdm_rtu_fun.o(i.MDM_RTU_InsideWriteBits)
    i.MDM_RTU_InsideWriteRegs                0x08000c32   Section        0  mdm_rtu_fun.o(i.MDM_RTU_InsideWriteRegs)
    i.MDM_RTU_Loop                           0x08000d1a   Section        0  mdm_rtu_app.o(i.MDM_RTU_Loop)
    i.MDM_RTU_NB_RW                          0x08000d22   Section        0  mdm_rtu_fun.o(i.MDM_RTU_NB_RW)
    MDM_RTU_NB_RW                            0x08000d23   Thumb Code  1128  mdm_rtu_fun.o(i.MDM_RTU_NB_RW)
    i.MDM_RTU_NB_RW_CtrlTest0                0x0800118c   Section        0  mdm_rtu_app.o(i.MDM_RTU_NB_RW_CtrlTest0)
    MDM_RTU_NB_RW_CtrlTest0                  0x0800118d   Thumb Code    52  mdm_rtu_app.o(i.MDM_RTU_NB_RW_CtrlTest0)
    i.MDM_RTU_NB_RW_CtrlTest1                0x080011cc   Section        0  mdm_rtu_app.o(i.MDM_RTU_NB_RW_CtrlTest1)
    MDM_RTU_NB_RW_CtrlTest1                  0x080011cd   Thumb Code    52  mdm_rtu_app.o(i.MDM_RTU_NB_RW_CtrlTest1)
    i.MDM_RTU_NB_ReadCoil                    0x0800120c   Section        0  mdm_rtu_fun.o(i.MDM_RTU_NB_ReadCoil)
    i.MDM_RTU_NB_WriteCoils                  0x0800122e   Section        0  mdm_rtu_fun.o(i.MDM_RTU_NB_WriteCoils)
    i.MDM_RTU_NB_WriteRegs                   0x08001252   Section        0  mdm_rtu_fun.o(i.MDM_RTU_NB_WriteRegs)
    i.MDM_RTU_QueueInit                      0x08001276   Section        0  mdm_rtu_fun.o(i.MDM_RTU_QueueInit)
    i.MDM_RTU_ReadBits                       0x08001292   Section        0  mdm_rtu_user_fun.o(i.MDM_RTU_ReadBits)
    i.MDM_RTU_ReadFun                        0x080013da   Section        0  mdm_rtu_fun.o(i.MDM_RTU_ReadFun)
    MDM_RTU_ReadFun                          0x080013db   Thumb Code   280  mdm_rtu_fun.o(i.MDM_RTU_ReadFun)
    i.MDM_RTU_ReadUint16                     0x080014f2   Section        0  mdm_rtu_fun.o(i.MDM_RTU_ReadUint16)
    i.MDM_RTU_RecvByte                       0x0800154c   Section        0  mdm_rtu_fun.o(i.MDM_RTU_RecvByte)
    i.MDM_RTU_TimeHandler                    0x08001592   Section        0  mdm_rtu_fun.o(i.MDM_RTU_TimeHandler)
    i.MDM_RTU_UserUpdate                     0x080015e6   Section        0  mdm_rtu_app.o(i.MDM_RTU_UserUpdate)
    MDM_RTU_UserUpdate                       0x080015e7   Thumb Code    12  mdm_rtu_app.o(i.MDM_RTU_UserUpdate)
    i.MDM_RTU_WriteFun                       0x080015f2   Section        0  mdm_rtu_fun.o(i.MDM_RTU_WriteFun)
    MDM_RTU_WriteFun                         0x080015f3   Thumb Code   500  mdm_rtu_fun.o(i.MDM_RTU_WriteFun)
    i.MDM_RTU_WriteSingleFun                 0x080017e6   Section        0  mdm_rtu_fun.o(i.MDM_RTU_WriteSingleFun)
    MDM_RTU_WriteSingleFun                   0x080017e7   Thumb Code   280  mdm_rtu_fun.o(i.MDM_RTU_WriteSingleFun)
    i.MDM_RW_CtrlAddRW                       0x080018fe   Section        0  mdm_rtu_rw_man.o(i.MDM_RW_CtrlAddRW)
    i.MDM_RW_CtrlLoop                        0x08001920   Section        0  mdm_rtu_rw_man.o(i.MDM_RW_CtrlLoop)
    i.MDM_RW_CtrlNew                         0x080019ac   Section        0  mdm_rtu_rw_man.o(i.MDM_RW_CtrlNew)
    MDM_RW_CtrlNew                           0x080019ad   Thumb Code    58  mdm_rtu_rw_man.o(i.MDM_RW_CtrlNew)
    i.MDQueueLength                          0x080019ec   Section        0  md_rtu_queue.o(i.MDQueueLength)
    i.MDResetQueue                           0x08001a0e   Section        0  md_rtu_queue.o(i.MDResetQueue)
    i.MD_CRC16Update                         0x08001a1c   Section        0  md_rtu_crc16.o(i.MD_CRC16Update)
    i.MDdeQueue                              0x08001a34   Section        0  md_rtu_queue.o(i.MDdeQueue)
    i.MDenQueue                              0x08001aba   Section        0  md_rtu_queue.o(i.MDenQueue)
    i.MapTableAdd                            0x08001b44   Section        0  md_rtu_maptable.o(i.MapTableAdd)
    i.MemManage_Handler                      0x08001b74   Section        0  gd32f10x_it.o(i.MemManage_Handler)
    i.NMI_Handler                            0x08001b78   Section        0  gd32f10x_it.o(i.NMI_Handler)
    i.PendSV_Handler                         0x08001b7a   Section        0  gd32f10x_it.o(i.PendSV_Handler)
    i.RS485RWConvInit                        0x08001b7c   Section        0  usart3.o(i.RS485RWConvInit)
    i.SVC_Handler                            0x08001b7e   Section        0  gd32f10x_it.o(i.SVC_Handler)
    i.SystemInit                             0x08001b80   Section        0  system_gd32f10x.o(i.SystemInit)
    i.TIM3_Int_Init                          0x08001c54   Section        0  tim3.o(i.TIM3_Int_Init)
    i.TIMER5_IRQHandler                      0x08001c98   Section        0  tim3.o(i.TIMER5_IRQHandler)
    i.USART0_IRQHandler                      0x08001cc8   Section        0  usart3.o(i.USART0_IRQHandler)
    i.UsageFault_Handler                     0x08001cf0   Section        0  gd32f10x_it.o(i.UsageFault_Handler)
    i.__scatterload_copy                     0x08001cf4   Section       14  handlers.o(i.__scatterload_copy)
    i.__scatterload_null                     0x08001d02   Section        2  handlers.o(i.__scatterload_null)
    i.__scatterload_zeroinit                 0x08001d04   Section       14  handlers.o(i.__scatterload_zeroinit)
    i.gpio_init                              0x08001d12   Section        0  gd32f10x_gpio.o(i.gpio_init)
    i.init_usart3                            0x08001dc0   Section        0  usart3.o(i.init_usart3)
    i.main                                   0x08001e58   Section        0  main.o(i.main)
    i.nvic_irq_enable                        0x08001e78   Section        0  gd32f10x_misc.o(i.nvic_irq_enable)
    i.nvic_priority_group_set                0x08001f24   Section        0  gd32f10x_misc.o(i.nvic_priority_group_set)
    i.nvic_vector_table_set                  0x08001f38   Section        0  gd32f10x_misc.o(i.nvic_vector_table_set)
    i.rcu_clock_freq_get                     0x08001f50   Section        0  gd32f10x_rcu.o(i.rcu_clock_freq_get)
    i.rcu_periph_clock_enable                0x08002074   Section        0  gd32f10x_rcu.o(i.rcu_periph_clock_enable)
    i.system_clock_96m_hxtal                 0x08002094   Section        0  system_gd32f10x.o(i.system_clock_96m_hxtal)
    system_clock_96m_hxtal                   0x08002095   Thumb Code   180  system_gd32f10x.o(i.system_clock_96m_hxtal)
    i.system_clock_config                    0x08002150   Section        0  system_gd32f10x.o(i.system_clock_config)
    system_clock_config                      0x08002151   Thumb Code     8  system_gd32f10x.o(i.system_clock_config)
    i.timer_enable                           0x08002158   Section        0  gd32f10x_timer.o(i.timer_enable)
    i.timer_init                             0x08002164   Section        0  gd32f10x_timer.o(i.timer_init)
    i.timer_interrupt_enable                 0x08002244   Section        0  gd32f10x_timer.o(i.timer_interrupt_enable)
    i.timer_interrupt_flag_clear             0x0800224c   Section        0  gd32f10x_timer.o(i.timer_interrupt_flag_clear)
    i.timer_interrupt_flag_get               0x08002252   Section        0  gd32f10x_timer.o(i.timer_interrupt_flag_get)
    i.usart3_send_byte                       0x0800226c   Section        0  usart3.o(i.usart3_send_byte)
    i.usart3_send_bytes                      0x0800229c   Section        0  usart3.o(i.usart3_send_bytes)
    i.usart_baudrate_set                     0x080022b4   Section        0  gd32f10x_usart.o(i.usart_baudrate_set)
    i.usart_data_receive                     0x08002344   Section        0  gd32f10x_usart.o(i.usart_data_receive)
    i.usart_data_transmit                    0x0800234e   Section        0  gd32f10x_usart.o(i.usart_data_transmit)
    i.usart_enable                           0x08002356   Section        0  gd32f10x_usart.o(i.usart_enable)
    i.usart_flag_get                         0x08002360   Section        0  gd32f10x_usart.o(i.usart_flag_get)
    i.usart_hardware_flow_cts_config         0x0800237e   Section        0  gd32f10x_usart.o(i.usart_hardware_flow_cts_config)
    i.usart_hardware_flow_rts_config         0x0800238e   Section        0  gd32f10x_usart.o(i.usart_hardware_flow_rts_config)
    i.usart_interrupt_enable                 0x0800239e   Section        0  gd32f10x_usart.o(i.usart_interrupt_enable)
    i.usart_interrupt_flag_get               0x080023b8   Section        0  gd32f10x_usart.o(i.usart_interrupt_flag_get)
    i.usart_parity_config                    0x080023f0   Section        0  gd32f10x_usart.o(i.usart_parity_config)
    i.usart_receive_config                   0x08002400   Section        0  gd32f10x_usart.o(i.usart_receive_config)
    i.usart_stop_bit_set                     0x08002410   Section        0  gd32f10x_usart.o(i.usart_stop_bit_set)
    i.usart_transmit_config                  0x08002420   Section        0  gd32f10x_usart.o(i.usart_transmit_config)
    i.usart_word_length_set                  0x08002430   Section        0  gd32f10x_usart.o(i.usart_word_length_set)
    .constdata                               0x08002440   Section      512  md_rtu_crc16.o(.constdata)
    crc16_table                              0x08002440   Data         512  md_rtu_crc16.o(.constdata)
    .data                                    0x20000000   Section      202  mdm_rtu_app.o(.data)
    mapTableDataMaster0                      0x20000000   Data           8  mdm_rtu_app.o(.data)
    mapTableItemMaster0                      0x20000008   Data          12  mdm_rtu_app.o(.data)
    regDataMaster1                           0x20000014   Data          64  mdm_rtu_app.o(.data)
    mapTableItemMaster1                      0x20000054   Data          12  mdm_rtu_app.o(.data)
    regDataMaster2                           0x20000060   Data          64  mdm_rtu_app.o(.data)
    mapTableItemMaster2                      0x200000a0   Data          12  mdm_rtu_app.o(.data)
    .data                                    0x200000cc   Section        4  mdm_rtu_serial.o(.data)
    .data                                    0x200000d0   Section        4  tim3.o(.data)
    .bss                                     0x200000d4   Section      765  mdm_rtu_app.o(.bss)
    MDSRecvQueueData                         0x200002d0   Data         257  mdm_rtu_app.o(.bss)
    .bss                                     0x200003d4   Section      320  mdm_rtu_rw_man.o(.bss)
    STACK                                    0x20000518   Section     1024  startup_gd32f10x_xd.o(STACK)

    Global Symbols

    Symbol Name                              Value     Ov Type        Size  Object(Section)

    BuildAttributes$$THM_ISAv4$P$D$K$B$S$PE$A:L22UL41UL21$X:L11$S22US41US21$IEEE1$IW$USESV6$~STKCKD$USESV7$~SHL$OTIME$ROPI$EBA8$MICROLIB$REQ8$PRES8$EABIv2 0x00000000   Number         0  anon$$obj.o ABSOLUTE
    __ARM_use_no_argv                        0x00000000   Number         0  main.o ABSOLUTE
    __cpp_initialize__aeabi_                  - Undefined Weak Reference
    __cxa_finalize                            - Undefined Weak Reference
    __decompress                              - Undefined Weak Reference
    _clock_init                               - Undefined Weak Reference
    _microlib_exit                            - Undefined Weak Reference
    __Vectors_Size                           0x00000130   Number         0  startup_gd32f10x_xd.o ABSOLUTE
    __Vectors                                0x08000000   Data           4  startup_gd32f10x_xd.o(RESET)
    __Vectors_End                            0x08000130   Data           0  startup_gd32f10x_xd.o(RESET)
    __main                                   0x08000131   Thumb Code     0  entry.o(.ARM.Collect$$$$00000000)
    _main_stk                                0x08000131   Thumb Code     0  entry2.o(.ARM.Collect$$$$00000001)
    _main_scatterload                        0x08000135   Thumb Code     0  entry5.o(.ARM.Collect$$$$00000004)
    __main_after_scatterload                 0x08000139   Thumb Code     0  entry5.o(.ARM.Collect$$$$00000004)
    _main_clock                              0x08000139   Thumb Code     0  entry7b.o(.ARM.Collect$$$$00000008)
    _main_cpp_init                           0x08000139   Thumb Code     0  entry8b.o(.ARM.Collect$$$$0000000A)
    _main_init                               0x08000139   Thumb Code     0  entry9a.o(.ARM.Collect$$$$0000000B)
    __rt_final_cpp                           0x08000141   Thumb Code     0  entry10a.o(.ARM.Collect$$$$0000000D)
    __rt_final_exit                          0x08000141   Thumb Code     0  entry11a.o(.ARM.Collect$$$$0000000F)
    Reset_Handler                            0x08000145   Thumb Code     8  startup_gd32f10x_xd.o(.text)
    SysTick_Handler                          0x0800015d   Thumb Code     2  startup_gd32f10x_xd.o(.text)
    ADC0_1_IRQHandler                        0x0800015f   Thumb Code     0  startup_gd32f10x_xd.o(.text)
    ADC2_IRQHandler                          0x0800015f   Thumb Code     0  startup_gd32f10x_xd.o(.text)
    CAN0_EWMC_IRQHandler                     0x0800015f   Thumb Code     0  startup_gd32f10x_xd.o(.text)
    CAN0_RX1_IRQHandler                      0x0800015f   Thumb Code     0  startup_gd32f10x_xd.o(.text)
    DMA0_Channel0_IRQHandler                 0x0800015f   Thumb Code     0  startup_gd32f10x_xd.o(.text)
    DMA0_Channel1_IRQHandler                 0x0800015f   Thumb Code     0  startup_gd32f10x_xd.o(.text)
    DMA0_Channel2_IRQHandler                 0x0800015f   Thumb Code     0  startup_gd32f10x_xd.o(.text)
    DMA0_Channel3_IRQHandler                 0x0800015f   Thumb Code     0  startup_gd32f10x_xd.o(.text)
    DMA0_Channel4_IRQHandler                 0x0800015f   Thumb Code     0  startup_gd32f10x_xd.o(.text)
    DMA0_Channel5_IRQHandler                 0x0800015f   Thumb Code     0  startup_gd32f10x_xd.o(.text)
    DMA0_Channel6_IRQHandler                 0x0800015f   Thumb Code     0  startup_gd32f10x_xd.o(.text)
    DMA1_Channel0_IRQHandler                 0x0800015f   Thumb Code     0  startup_gd32f10x_xd.o(.text)
    DMA1_Channel1_IRQHandler                 0x0800015f   Thumb Code     0  startup_gd32f10x_xd.o(.text)
    DMA1_Channel2_IRQHandler                 0x0800015f   Thumb Code     0  startup_gd32f10x_xd.o(.text)
    DMA1_Channel3_4_IRQHandler               0x0800015f   Thumb Code     0  startup_gd32f10x_xd.o(.text)
    EXMC_IRQHandler                          0x0800015f   Thumb Code     0  startup_gd32f10x_xd.o(.text)
    EXTI0_IRQHandler                         0x0800015f   Thumb Code     0  startup_gd32f10x_xd.o(.text)
    EXTI10_15_IRQHandler                     0x0800015f   Thumb Code     0  startup_gd32f10x_xd.o(.text)
    EXTI1_IRQHandler                         0x0800015f   Thumb Code     0  startup_gd32f10x_xd.o(.text)
    EXTI2_IRQHandler                         0x0800015f   Thumb Code     0  startup_gd32f10x_xd.o(.text)
    EXTI3_IRQHandler                         0x0800015f   Thumb Code     0  startup_gd32f10x_xd.o(.text)
    EXTI4_IRQHandler                         0x0800015f   Thumb Code     0  startup_gd32f10x_xd.o(.text)
    EXTI5_9_IRQHandler                       0x0800015f   Thumb Code     0  startup_gd32f10x_xd.o(.text)
    FMC_IRQHandler                           0x0800015f   Thumb Code     0  startup_gd32f10x_xd.o(.text)
    I2C0_ER_IRQHandler                       0x0800015f   Thumb Code     0  startup_gd32f10x_xd.o(.text)
    I2C0_EV_IRQHandler                       0x0800015f   Thumb Code     0  startup_gd32f10x_xd.o(.text)
    I2C1_ER_IRQHandler                       0x0800015f   Thumb Code     0  startup_gd32f10x_xd.o(.text)
    I2C1_EV_IRQHandler                       0x0800015f   Thumb Code     0  startup_gd32f10x_xd.o(.text)
    LVD_IRQHandler                           0x0800015f   Thumb Code     0  startup_gd32f10x_xd.o(.text)
    RCU_IRQHandler                           0x0800015f   Thumb Code     0  startup_gd32f10x_xd.o(.text)
    RTC_Alarm_IRQHandler                     0x0800015f   Thumb Code     0  startup_gd32f10x_xd.o(.text)
    RTC_IRQHandler                           0x0800015f   Thumb Code     0  startup_gd32f10x_xd.o(.text)
    SDIO_IRQHandler                          0x0800015f   Thumb Code     0  startup_gd32f10x_xd.o(.text)
    SPI0_IRQHandler                          0x0800015f   Thumb Code     0  startup_gd32f10x_xd.o(.text)
    SPI1_IRQHandler                          0x0800015f   Thumb Code     0  startup_gd32f10x_xd.o(.text)
    SPI2_IRQHandler                          0x0800015f   Thumb Code     0  startup_gd32f10x_xd.o(.text)
    TAMPER_IRQHandler                        0x0800015f   Thumb Code     0  startup_gd32f10x_xd.o(.text)
    TIMER0_BRK_TIMER8_IRQHandler             0x0800015f   Thumb Code     0  startup_gd32f10x_xd.o(.text)
    TIMER0_Channel_IRQHandler                0x0800015f   Thumb Code     0  startup_gd32f10x_xd.o(.text)
    TIMER0_TRG_CMT_TIMER10_IRQHandler        0x0800015f   Thumb Code     0  startup_gd32f10x_xd.o(.text)
    TIMER0_UP_TIMER9_IRQHandler              0x0800015f   Thumb Code     0  startup_gd32f10x_xd.o(.text)
    TIMER1_IRQHandler                        0x0800015f   Thumb Code     0  startup_gd32f10x_xd.o(.text)
    TIMER2_IRQHandler                        0x0800015f   Thumb Code     0  startup_gd32f10x_xd.o(.text)
    TIMER3_IRQHandler                        0x0800015f   Thumb Code     0  startup_gd32f10x_xd.o(.text)
    TIMER4_IRQHandler                        0x0800015f   Thumb Code     0  startup_gd32f10x_xd.o(.text)
    TIMER6_IRQHandler                        0x0800015f   Thumb Code     0  startup_gd32f10x_xd.o(.text)
    TIMER7_BRK_TIMER11_IRQHandler            0x0800015f   Thumb Code     0  startup_gd32f10x_xd.o(.text)
    TIMER7_Channel_IRQHandler                0x0800015f   Thumb Code     0  startup_gd32f10x_xd.o(.text)
    TIMER7_TRG_CMT_TIMER13_IRQHandler        0x0800015f   Thumb Code     0  startup_gd32f10x_xd.o(.text)
    TIMER7_UP_TIMER12_IRQHandler             0x0800015f   Thumb Code     0  startup_gd32f10x_xd.o(.text)
    UART3_IRQHandler                         0x0800015f   Thumb Code     0  startup_gd32f10x_xd.o(.text)
    UART4_IRQHandler                         0x0800015f   Thumb Code     0  startup_gd32f10x_xd.o(.text)
    USART1_IRQHandler                        0x0800015f   Thumb Code     0  startup_gd32f10x_xd.o(.text)
    USART2_IRQHandler                        0x0800015f   Thumb Code     0  startup_gd32f10x_xd.o(.text)
    USBD_HP_CAN0_TX_IRQHandler               0x0800015f   Thumb Code     0  startup_gd32f10x_xd.o(.text)
    USBD_LP_CAN0_RX0_IRQHandler              0x0800015f   Thumb Code     0  startup_gd32f10x_xd.o(.text)
    USBD_WKUP_IRQHandler                     0x0800015f   Thumb Code     0  startup_gd32f10x_xd.o(.text)
    WWDGT_IRQHandler                         0x0800015f   Thumb Code     0  startup_gd32f10x_xd.o(.text)
    __aeabi_fadd                             0x08000169   Thumb Code   164  fadd.o(.text)
    __aeabi_fsub                             0x0800020d   Thumb Code     6  fadd.o(.text)
    __aeabi_frsub                            0x08000213   Thumb Code     6  fadd.o(.text)
    __aeabi_fmul                             0x08000219   Thumb Code   100  fmul.o(.text)
    __aeabi_dmul                             0x0800027d   Thumb Code   228  dmul.o(.text)
    __aeabi_ddiv                             0x08000361   Thumb Code   222  ddiv.o(.text)
    __aeabi_i2f                              0x0800043f   Thumb Code    18  fflti.o(.text)
    __aeabi_ui2f                             0x08000451   Thumb Code    10  ffltui.o(.text)
    __aeabi_f2iz                             0x0800045b   Thumb Code    50  ffixi.o(.text)
    __aeabi_f2uiz                            0x0800048d   Thumb Code    40  ffixui.o(.text)
    __aeabi_f2d                              0x080004b5   Thumb Code    38  f2d.o(.text)
    __aeabi_d2f                              0x080004db   Thumb Code    56  d2f.o(.text)
    __I$use$fp                               0x08000513   Thumb Code     0  iusefp.o(.text)
    _float_round                             0x08000513   Thumb Code    18  fepilogue.o(.text)
    _float_epilogue                          0x08000525   Thumb Code    92  fepilogue.o(.text)
    _double_round                            0x08000581   Thumb Code    30  depilogue.o(.text)
    _double_epilogue                         0x0800059f   Thumb Code   156  depilogue.o(.text)
    __scatterload                            0x0800063d   Thumb Code    28  init.o(.text)
    __scatterload_rt2                        0x0800063d   Thumb Code     0  init.o(.text)
    __aeabi_llsl                             0x08000661   Thumb Code    30  llshl.o(.text)
    _ll_shift_l                              0x08000661   Thumb Code     0  llshl.o(.text)
    __aeabi_llsr                             0x0800067f   Thumb Code    32  llushr.o(.text)
    _ll_ushift_r                             0x0800067f   Thumb Code     0  llushr.o(.text)
    BusFault_Handler                         0x0800069f   Thumb Code     4  gd32f10x_it.o(i.BusFault_Handler)
    DebugMon_Handler                         0x080006a3   Thumb Code     2  gd32f10x_it.o(i.DebugMon_Handler)
    HardFault_Handler                        0x080006a5   Thumb Code     4  gd32f10x_it.o(i.HardFault_Handler)
    MDInitQueue                              0x080006a9   Thumb Code    26  md_rtu_queue.o(i.MDInitQueue)
    MDMInitSerial                            0x080006c5   Thumb Code    50  mdm_rtu_serial.o(i.MDMInitSerial)
    MDMSerialRecvByte                        0x08000705   Thumb Code    30  mdm_rtu_serial.o(i.MDMSerialRecvByte)
    MDMSerialSWRecv_Send                     0x08000729   Thumb Code     6  mdm_rtu_serial.o(i.MDMSerialSWRecv_Send)
    MDMSerialSendBytes                       0x08000735   Thumb Code    16  mdm_rtu_serial.o(i.MDMSerialSendBytes)
    MDMTimeHandler100US                      0x08000745   Thumb Code    30  mdm_rtu_serial.o(i.MDMTimeHandler100US)
    MDM_RTU_APPInit                          0x08000809   Thumb Code   200  mdm_rtu_app.o(i.MDM_RTU_APPInit)
    MDM_RTU_AddMapItem                       0x0800091d   Thumb Code    32  mdm_rtu_fun.o(i.MDM_RTU_AddMapItem)
    MDM_RTU_CB_Init                          0x0800093d   Thumb Code    30  mdm_rtu_fun.o(i.MDM_RTU_CB_Init)
    MDM_RTU_CB_OverTimeReset                 0x0800095b   Thumb Code    14  mdm_rtu_fun.o(i.MDM_RTU_CB_OverTimeReset)
    MDM_RTU_Init                             0x08000969   Thumb Code   318  mdm_rtu_fun.o(i.MDM_RTU_Init)
    MDM_RTU_InsideWriteBits                  0x08000ab9   Thumb Code   378  mdm_rtu_fun.o(i.MDM_RTU_InsideWriteBits)
    MDM_RTU_InsideWriteRegs                  0x08000c33   Thumb Code   232  mdm_rtu_fun.o(i.MDM_RTU_InsideWriteRegs)
    MDM_RTU_Loop                             0x08000d1b   Thumb Code     8  mdm_rtu_app.o(i.MDM_RTU_Loop)
    MDM_RTU_NB_ReadCoil                      0x0800120d   Thumb Code    34  mdm_rtu_fun.o(i.MDM_RTU_NB_ReadCoil)
    MDM_RTU_NB_WriteCoils                    0x0800122f   Thumb Code    36  mdm_rtu_fun.o(i.MDM_RTU_NB_WriteCoils)
    MDM_RTU_NB_WriteRegs                     0x08001253   Thumb Code    36  mdm_rtu_fun.o(i.MDM_RTU_NB_WriteRegs)
    MDM_RTU_QueueInit                        0x08001277   Thumb Code    28  mdm_rtu_fun.o(i.MDM_RTU_QueueInit)
    MDM_RTU_ReadBits                         0x08001293   Thumb Code   328  mdm_rtu_user_fun.o(i.MDM_RTU_ReadBits)
    MDM_RTU_ReadUint16                       0x080014f3   Thumb Code    90  mdm_rtu_fun.o(i.MDM_RTU_ReadUint16)
    MDM_RTU_RecvByte                         0x0800154d   Thumb Code    70  mdm_rtu_fun.o(i.MDM_RTU_RecvByte)
    MDM_RTU_TimeHandler                      0x08001593   Thumb Code    84  mdm_rtu_fun.o(i.MDM_RTU_TimeHandler)
    MDM_RW_CtrlAddRW                         0x080018ff   Thumb Code    34  mdm_rtu_rw_man.o(i.MDM_RW_CtrlAddRW)
    MDM_RW_CtrlLoop                          0x08001921   Thumb Code   136  mdm_rtu_rw_man.o(i.MDM_RW_CtrlLoop)
    MDQueueLength                            0x080019ed   Thumb Code    34  md_rtu_queue.o(i.MDQueueLength)
    MDResetQueue                             0x08001a0f   Thumb Code    14  md_rtu_queue.o(i.MDResetQueue)
    MD_CRC16Update                           0x08001a1d   Thumb Code    20  md_rtu_crc16.o(i.MD_CRC16Update)
    MDdeQueue                                0x08001a35   Thumb Code   134  md_rtu_queue.o(i.MDdeQueue)
    MDenQueue                                0x08001abb   Thumb Code   138  md_rtu_queue.o(i.MDenQueue)
    MapTableAdd                              0x08001b45   Thumb Code    48  md_rtu_maptable.o(i.MapTableAdd)
    MemManage_Handler                        0x08001b75   Thumb Code     4  gd32f10x_it.o(i.MemManage_Handler)
    NMI_Handler                              0x08001b79   Thumb Code     2  gd32f10x_it.o(i.NMI_Handler)
    PendSV_Handler                           0x08001b7b   Thumb Code     2  gd32f10x_it.o(i.PendSV_Handler)
    RS485RWConvInit                          0x08001b7d   Thumb Code     2  usart3.o(i.RS485RWConvInit)
    SVC_Handler                              0x08001b7f   Thumb Code     2  gd32f10x_it.o(i.SVC_Handler)
    SystemInit                               0x08001b81   Thumb Code   196  system_gd32f10x.o(i.SystemInit)
    TIM3_Int_Init                            0x08001c55   Thumb Code    64  tim3.o(i.TIM3_Int_Init)
    TIMER5_IRQHandler                        0x08001c99   Thumb Code    40  tim3.o(i.TIMER5_IRQHandler)
    USART0_IRQHandler                        0x08001cc9   Thumb Code    30  usart3.o(i.USART0_IRQHandler)
    UsageFault_Handler                       0x08001cf1   Thumb Code     4  gd32f10x_it.o(i.UsageFault_Handler)
    __scatterload_copy                       0x08001cf5   Thumb Code    14  handlers.o(i.__scatterload_copy)
    __scatterload_null                       0x08001d03   Thumb Code     2  handlers.o(i.__scatterload_null)
    __scatterload_zeroinit                   0x08001d05   Thumb Code    14  handlers.o(i.__scatterload_zeroinit)
    gpio_init                                0x08001d13   Thumb Code   172  gd32f10x_gpio.o(i.gpio_init)
    init_usart3                              0x08001dc1   Thumb Code   144  usart3.o(i.init_usart3)
    main                                     0x08001e59   Thumb Code    32  main.o(i.main)
    nvic_irq_enable                          0x08001e79   Thumb Code   162  gd32f10x_misc.o(i.nvic_irq_enable)
    nvic_priority_group_set                  0x08001f25   Thumb Code    10  gd32f10x_misc.o(i.nvic_priority_group_set)
    nvic_vector_table_set                    0x08001f39   Thumb Code    16  gd32f10x_misc.o(i.nvic_vector_table_set)
    rcu_clock_freq_get                       0x08001f51   Thumb Code   264  gd32f10x_rcu.o(i.rcu_clock_freq_get)
    rcu_periph_clock_enable                  0x08002075   Thumb Code    28  gd32f10x_rcu.o(i.rcu_periph_clock_enable)
    timer_enable                             0x08002159   Thumb Code    10  gd32f10x_timer.o(i.timer_enable)
    timer_init                               0x08002165   Thumb Code   170  gd32f10x_timer.o(i.timer_init)
    timer_interrupt_enable                   0x08002245   Thumb Code     8  gd32f10x_timer.o(i.timer_interrupt_enable)
    timer_interrupt_flag_clear               0x0800224d   Thumb Code     6  gd32f10x_timer.o(i.timer_interrupt_flag_clear)
    timer_interrupt_flag_get                 0x08002253   Thumb Code    24  gd32f10x_timer.o(i.timer_interrupt_flag_get)
    usart3_send_byte                         0x0800226d   Thumb Code    42  usart3.o(i.usart3_send_byte)
    usart3_send_bytes                        0x0800229d   Thumb Code    24  usart3.o(i.usart3_send_bytes)
    usart_baudrate_set                       0x080022b5   Thumb Code   136  gd32f10x_usart.o(i.usart_baudrate_set)
    usart_data_receive                       0x08002345   Thumb Code    10  gd32f10x_usart.o(i.usart_data_receive)
    usart_data_transmit                      0x0800234f   Thumb Code     8  gd32f10x_usart.o(i.usart_data_transmit)
    usart_enable                             0x08002357   Thumb Code    10  gd32f10x_usart.o(i.usart_enable)
    usart_flag_get                           0x08002361   Thumb Code    30  gd32f10x_usart.o(i.usart_flag_get)
    usart_hardware_flow_cts_config           0x0800237f   Thumb Code    16  gd32f10x_usart.o(i.usart_hardware_flow_cts_config)
    usart_hardware_flow_rts_config           0x0800238f   Thumb Code    16  gd32f10x_usart.o(i.usart_hardware_flow_rts_config)
    usart_interrupt_enable                   0x0800239f   Thumb Code    26  gd32f10x_usart.o(i.usart_interrupt_enable)
    usart_interrupt_flag_get                 0x080023b9   Thumb Code    56  gd32f10x_usart.o(i.usart_interrupt_flag_get)
    usart_parity_config                      0x080023f1   Thumb Code    16  gd32f10x_usart.o(i.usart_parity_config)
    usart_receive_config                     0x08002401   Thumb Code    16  gd32f10x_usart.o(i.usart_receive_config)
    usart_stop_bit_set                       0x08002411   Thumb Code    16  gd32f10x_usart.o(i.usart_stop_bit_set)
    usart_transmit_config                    0x08002421   Thumb Code    16  gd32f10x_usart.o(i.usart_transmit_config)
    usart_word_length_set                    0x08002431   Thumb Code    16  gd32f10x_usart.o(i.usart_word_length_set)
    Region$$Table$$Base                      0x08002640   Number         0  anon$$obj.o(Region$$Table)
    Region$$Table$$Limit                     0x08002660   Number         0  anon$$obj.o(Region$$Table)
    temp                                     0x200000ac   Data           2  mdm_rtu_app.o(.data)
    temp2                                    0x200000ae   Data           2  mdm_rtu_app.o(.data)
    temp1                                    0x200000b0   Data           2  mdm_rtu_app.o(.data)
    data1                                    0x200000b2   Data          12  mdm_rtu_app.o(.data)
    data2                                    0x200000be   Data          12  mdm_rtu_app.o(.data)
    pModbusMBase                             0x200000cc   Data           4  mdm_rtu_serial.o(.data)
    sys_tick_100us                           0x200000d0   Data           4  tim3.o(.data)
    modbus_RTU                               0x200000d4   Data         388  mdm_rtu_app.o(.bss)
    modbusRWRTUCB                            0x20000258   Data          24  mdm_rtu_app.o(.bss)
    modbusRWRTUCB1                           0x20000270   Data          24  mdm_rtu_app.o(.bss)
    modbusRWRTUCB2                           0x20000288   Data          24  mdm_rtu_app.o(.bss)
    modbusRWRTUCB3                           0x200002a0   Data          24  mdm_rtu_app.o(.bss)
    modbusRWRTUCB4                           0x200002b8   Data          24  mdm_rtu_app.o(.bss)
    MDM_RW_CtrlList                          0x200003d4   Data         320  mdm_rtu_rw_man.o(.bss)
    __initial_sp                             0x20000918   Data           0  startup_gd32f10x_xd.o(STACK)



==============================================================================

Memory Map of the image

  Image Entry point : 0x08000131

  Load Region LR_IROM1 (Base: 0x08000000, Size: 0x00002734, Max: 0x00300000, ABSOLUTE)

    Execution Region ER_IROM1 (Exec base: 0x08000000, Load base: 0x08000000, Size: 0x00002660, Max: 0x00300000, ABSOLUTE)

    Exec Addr    Load Addr    Size         Type   Attr      Idx    E Section Name        Object

    0x08000000   0x08000000   0x00000130   Data   RO          310    RESET               startup_gd32f10x_xd.o
    0x08000130   0x08000130   0x00000000   Code   RO         4719  * .ARM.Collect$$$$00000000  mc_w.l(entry.o)
    0x08000130   0x08000130   0x00000004   Code   RO         4742    .ARM.Collect$$$$00000001  mc_w.l(entry2.o)
    0x08000134   0x08000134   0x00000004   Code   RO         4745    .ARM.Collect$$$$00000004  mc_w.l(entry5.o)
    0x08000138   0x08000138   0x00000000   Code   RO         4747    .ARM.Collect$$$$00000008  mc_w.l(entry7b.o)
    0x08000138   0x08000138   0x00000000   Code   RO         4749    .ARM.Collect$$$$0000000A  mc_w.l(entry8b.o)
    0x08000138   0x08000138   0x00000008   Code   RO         4750    .ARM.Collect$$$$0000000B  mc_w.l(entry9a.o)
    0x08000140   0x08000140   0x00000000   Code   RO         4752    .ARM.Collect$$$$0000000D  mc_w.l(entry10a.o)
    0x08000140   0x08000140   0x00000000   Code   RO         4754    .ARM.Collect$$$$0000000F  mc_w.l(entry11a.o)
    0x08000140   0x08000140   0x00000004   Code   RO         4743    .ARM.Collect$$$$00002712  mc_w.l(entry2.o)
    0x08000144   0x08000144   0x00000024   Code   RO          311    .text               startup_gd32f10x_xd.o
    0x08000168   0x08000168   0x000000b0   Code   RO         4722    .text               mf_w.l(fadd.o)
    0x08000218   0x08000218   0x00000064   Code   RO         4724    .text               mf_w.l(fmul.o)
    0x0800027c   0x0800027c   0x000000e4   Code   RO         4726    .text               mf_w.l(dmul.o)
    0x08000360   0x08000360   0x000000de   Code   RO         4728    .text               mf_w.l(ddiv.o)
    0x0800043e   0x0800043e   0x00000012   Code   RO         4730    .text               mf_w.l(fflti.o)
    0x08000450   0x08000450   0x0000000a   Code   RO         4732    .text               mf_w.l(ffltui.o)
    0x0800045a   0x0800045a   0x00000032   Code   RO         4734    .text               mf_w.l(ffixi.o)
    0x0800048c   0x0800048c   0x00000028   Code   RO         4736    .text               mf_w.l(ffixui.o)
    0x080004b4   0x080004b4   0x00000026   Code   RO         4738    .text               mf_w.l(f2d.o)
    0x080004da   0x080004da   0x00000038   Code   RO         4740    .text               mf_w.l(d2f.o)
    0x08000512   0x08000512   0x00000000   Code   RO         4756    .text               mc_w.l(iusefp.o)
    0x08000512   0x08000512   0x0000006e   Code   RO         4757    .text               mf_w.l(fepilogue.o)
    0x08000580   0x08000580   0x000000ba   Code   RO         4759    .text               mf_w.l(depilogue.o)
    0x0800063a   0x0800063a   0x00000002   PAD
    0x0800063c   0x0800063c   0x00000024   Code   RO         4761    .text               mc_w.l(init.o)
    0x08000660   0x08000660   0x0000001e   Code   RO         4763    .text               mc_w.l(llshl.o)
    0x0800067e   0x0800067e   0x00000020   Code   RO         4765    .text               mc_w.l(llushr.o)
    0x0800069e   0x0800069e   0x00000004   Code   RO            4    i.BusFault_Handler  gd32f10x_it.o
    0x080006a2   0x080006a2   0x00000002   Code   RO            5    i.DebugMon_Handler  gd32f10x_it.o
    0x080006a4   0x080006a4   0x00000004   Code   RO            6    i.HardFault_Handler  gd32f10x_it.o
    0x080006a8   0x080006a8   0x0000001a   Code   RO         4126    i.MDInitQueue       md_rtu_queue.o
    0x080006c2   0x080006c2   0x00000002   PAD
    0x080006c4   0x080006c4   0x00000040   Code   RO         4539    i.MDMInitSerial     mdm_rtu_serial.o
    0x08000704   0x08000704   0x00000024   Code   RO         4540    i.MDMSerialRecvByte  mdm_rtu_serial.o
    0x08000728   0x08000728   0x0000000c   Code   RO         4541    i.MDMSerialSWRecv_Send  mdm_rtu_serial.o
    0x08000734   0x08000734   0x00000010   Code   RO         4542    i.MDMSerialSendBytes  mdm_rtu_serial.o
    0x08000744   0x08000744   0x00000024   Code   RO         4543    i.MDMTimeHandler100US  mdm_rtu_serial.o
    0x08000768   0x08000768   0x00000044   Code   RO         4214    i.MDM_RTUUserRead   mdm_rtu_app.o
    0x080007ac   0x080007ac   0x0000005c   Code   RO         4215    i.MDM_RTUUserWrite  mdm_rtu_app.o
    0x08000808   0x08000808   0x00000114   Code   RO         4216    i.MDM_RTU_APPInit   mdm_rtu_app.o
    0x0800091c   0x0800091c   0x00000020   Code   RO         4282    i.MDM_RTU_AddMapItem  mdm_rtu_fun.o
    0x0800093c   0x0800093c   0x0000001e   Code   RO         4284    i.MDM_RTU_CB_Init   mdm_rtu_fun.o
    0x0800095a   0x0800095a   0x0000000e   Code   RO         4285    i.MDM_RTU_CB_OverTimeReset  mdm_rtu_fun.o
    0x08000968   0x08000968   0x00000150   Code   RO         4287    i.MDM_RTU_Init      mdm_rtu_fun.o
    0x08000ab8   0x08000ab8   0x0000017a   Code   RO         4288    i.MDM_RTU_InsideWriteBits  mdm_rtu_fun.o
    0x08000c32   0x08000c32   0x000000e8   Code   RO         4289    i.MDM_RTU_InsideWriteRegs  mdm_rtu_fun.o
    0x08000d1a   0x08000d1a   0x00000008   Code   RO         4217    i.MDM_RTU_Loop      mdm_rtu_app.o
    0x08000d22   0x08000d22   0x00000468   Code   RO         4290    i.MDM_RTU_NB_RW     mdm_rtu_fun.o
    0x0800118a   0x0800118a   0x00000002   PAD
    0x0800118c   0x0800118c   0x00000040   Code   RO         4218    i.MDM_RTU_NB_RW_CtrlTest0  mdm_rtu_app.o
    0x080011cc   0x080011cc   0x00000040   Code   RO         4219    i.MDM_RTU_NB_RW_CtrlTest1  mdm_rtu_app.o
    0x0800120c   0x0800120c   0x00000022   Code   RO         4291    i.MDM_RTU_NB_ReadCoil  mdm_rtu_fun.o
    0x0800122e   0x0800122e   0x00000024   Code   RO         4295    i.MDM_RTU_NB_WriteCoils  mdm_rtu_fun.o
    0x08001252   0x08001252   0x00000024   Code   RO         4296    i.MDM_RTU_NB_WriteRegs  mdm_rtu_fun.o
    0x08001276   0x08001276   0x0000001c   Code   RO         4299    i.MDM_RTU_QueueInit  mdm_rtu_fun.o
    0x08001292   0x08001292   0x00000148   Code   RO         4593    i.MDM_RTU_ReadBits  mdm_rtu_user_fun.o
    0x080013da   0x080013da   0x00000118   Code   RO         4303    i.MDM_RTU_ReadFun   mdm_rtu_fun.o
    0x080014f2   0x080014f2   0x0000005a   Code   RO         4307    i.MDM_RTU_ReadUint16  mdm_rtu_fun.o
    0x0800154c   0x0800154c   0x00000046   Code   RO         4308    i.MDM_RTU_RecvByte  mdm_rtu_fun.o
    0x08001592   0x08001592   0x00000054   Code   RO         4309    i.MDM_RTU_TimeHandler  mdm_rtu_fun.o
    0x080015e6   0x080015e6   0x0000000c   Code   RO         4220    i.MDM_RTU_UserUpdate  mdm_rtu_app.o
    0x080015f2   0x080015f2   0x000001f4   Code   RO         4311    i.MDM_RTU_WriteFun  mdm_rtu_fun.o
    0x080017e6   0x080017e6   0x00000118   Code   RO         4314    i.MDM_RTU_WriteSingleFun  mdm_rtu_fun.o
    0x080018fe   0x080018fe   0x00000022   Code   RO         4487    i.MDM_RW_CtrlAddRW  mdm_rtu_rw_man.o
    0x08001920   0x08001920   0x0000008c   Code   RO         4490    i.MDM_RW_CtrlLoop   mdm_rtu_rw_man.o
    0x080019ac   0x080019ac   0x00000040   Code   RO         4491    i.MDM_RW_CtrlNew    mdm_rtu_rw_man.o
    0x080019ec   0x080019ec   0x00000022   Code   RO         4128    i.MDQueueLength     md_rtu_queue.o
    0x08001a0e   0x08001a0e   0x0000000e   Code   RO         4129    i.MDResetQueue      md_rtu_queue.o
    0x08001a1c   0x08001a1c   0x00000018   Code   RO         4082    i.MD_CRC16Update    md_rtu_crc16.o
    0x08001a34   0x08001a34   0x00000086   Code   RO         4130    i.MDdeQueue         md_rtu_queue.o
    0x08001aba   0x08001aba   0x0000008a   Code   RO         4132    i.MDenQueue         md_rtu_queue.o
    0x08001b44   0x08001b44   0x00000030   Code   RO         4105    i.MapTableAdd       md_rtu_maptable.o
    0x08001b74   0x08001b74   0x00000004   Code   RO            7    i.MemManage_Handler  gd32f10x_it.o
    0x08001b78   0x08001b78   0x00000002   Code   RO            8    i.NMI_Handler       gd32f10x_it.o
    0x08001b7a   0x08001b7a   0x00000002   Code   RO            9    i.PendSV_Handler    gd32f10x_it.o
    0x08001b7c   0x08001b7c   0x00000002   Code   RO         4656    i.RS485RWConvInit   usart3.o
    0x08001b7e   0x08001b7e   0x00000002   Code   RO           10    i.SVC_Handler       gd32f10x_it.o
    0x08001b80   0x08001b80   0x000000d4   Code   RO          271    i.SystemInit        system_gd32f10x.o
    0x08001c54   0x08001c54   0x00000044   Code   RO         4614    i.TIM3_Int_Init     tim3.o
    0x08001c98   0x08001c98   0x00000030   Code   RO         4615    i.TIMER5_IRQHandler  tim3.o
    0x08001cc8   0x08001cc8   0x00000028   Code   RO         4657    i.USART0_IRQHandler  usart3.o
    0x08001cf0   0x08001cf0   0x00000004   Code   RO           11    i.UsageFault_Handler  gd32f10x_it.o
    0x08001cf4   0x08001cf4   0x0000000e   Code   RO         4769    i.__scatterload_copy  mc_w.l(handlers.o)
    0x08001d02   0x08001d02   0x00000002   Code   RO         4770    i.__scatterload_null  mc_w.l(handlers.o)
    0x08001d04   0x08001d04   0x0000000e   Code   RO         4771    i.__scatterload_zeroinit  mc_w.l(handlers.o)
    0x08001d12   0x08001d12   0x000000ac   Code   RO         1880    i.gpio_init         gd32f10x_gpio.o
    0x08001dbe   0x08001dbe   0x00000002   PAD
    0x08001dc0   0x08001dc0   0x00000098   Code   RO         4658    i.init_usart3       usart3.o
    0x08001e58   0x08001e58   0x00000020   Code   RO          174    i.main              main.o
    0x08001e78   0x08001e78   0x000000ac   Code   RO         2196    i.nvic_irq_enable   gd32f10x_misc.o
    0x08001f24   0x08001f24   0x00000014   Code   RO         2197    i.nvic_priority_group_set  gd32f10x_misc.o
    0x08001f38   0x08001f38   0x00000018   Code   RO         2198    i.nvic_vector_table_set  gd32f10x_misc.o
    0x08001f50   0x08001f50   0x00000124   Code   RO         2354    i.rcu_clock_freq_get  gd32f10x_rcu.o
    0x08002074   0x08002074   0x00000020   Code   RO         2371    i.rcu_periph_clock_enable  gd32f10x_rcu.o
    0x08002094   0x08002094   0x000000bc   Code   RO          272    i.system_clock_96m_hxtal  system_gd32f10x.o
    0x08002150   0x08002150   0x00000008   Code   RO          273    i.system_clock_config  system_gd32f10x.o
    0x08002158   0x08002158   0x0000000a   Code   RO         3216    i.timer_enable      gd32f10x_timer.o
    0x08002162   0x08002162   0x00000002   PAD
    0x08002164   0x08002164   0x000000e0   Code   RO         3226    i.timer_init        gd32f10x_timer.o
    0x08002244   0x08002244   0x00000008   Code   RO         3233    i.timer_interrupt_enable  gd32f10x_timer.o
    0x0800224c   0x0800224c   0x00000006   Code   RO         3234    i.timer_interrupt_flag_clear  gd32f10x_timer.o
    0x08002252   0x08002252   0x00000018   Code   RO         3235    i.timer_interrupt_flag_get  gd32f10x_timer.o
    0x0800226a   0x0800226a   0x00000002   PAD
    0x0800226c   0x0800226c   0x00000030   Code   RO         4659    i.usart3_send_byte  usart3.o
    0x0800229c   0x0800229c   0x00000018   Code   RO         4660    i.usart3_send_bytes  usart3.o
    0x080022b4   0x080022b4   0x00000090   Code   RO         3613    i.usart_baudrate_set  gd32f10x_usart.o
    0x08002344   0x08002344   0x0000000a   Code   RO         3614    i.usart_data_receive  gd32f10x_usart.o
    0x0800234e   0x0800234e   0x00000008   Code   RO         3615    i.usart_data_transmit  gd32f10x_usart.o
    0x08002356   0x08002356   0x0000000a   Code   RO         3620    i.usart_enable      gd32f10x_usart.o
    0x08002360   0x08002360   0x0000001e   Code   RO         3622    i.usart_flag_get    gd32f10x_usart.o
    0x0800237e   0x0800237e   0x00000010   Code   RO         3626    i.usart_hardware_flow_cts_config  gd32f10x_usart.o
    0x0800238e   0x0800238e   0x00000010   Code   RO         3627    i.usart_hardware_flow_rts_config  gd32f10x_usart.o
    0x0800239e   0x0800239e   0x0000001a   Code   RO         3629    i.usart_interrupt_enable  gd32f10x_usart.o
    0x080023b8   0x080023b8   0x00000038   Code   RO         3631    i.usart_interrupt_flag_get  gd32f10x_usart.o
    0x080023f0   0x080023f0   0x00000010   Code   RO         3641    i.usart_parity_config  gd32f10x_usart.o
    0x08002400   0x08002400   0x00000010   Code   RO         3643    i.usart_receive_config  gd32f10x_usart.o
    0x08002410   0x08002410   0x00000010   Code   RO         3649    i.usart_stop_bit_set  gd32f10x_usart.o
    0x08002420   0x08002420   0x00000010   Code   RO         3653    i.usart_transmit_config  gd32f10x_usart.o
    0x08002430   0x08002430   0x00000010   Code   RO         3654    i.usart_word_length_set  gd32f10x_usart.o
    0x08002440   0x08002440   0x00000200   Data   RO         4083    .constdata          md_rtu_crc16.o
    0x08002640   0x08002640   0x00000020   Data   RO         4767    Region$$Table       anon$$obj.o


    Execution Region RW_IRAM1 (Exec base: 0x20000000, Load base: 0x08002660, Size: 0x00000918, Max: 0x00018000, ABSOLUTE)

    Exec Addr    Load Addr    Size         Type   Attr      Idx    E Section Name        Object

    0x20000000   0x08002660   0x000000ca   Data   RW         4222    .data               mdm_rtu_app.o
    0x200000ca   0x0800272a   0x00000002   PAD
    0x200000cc   0x0800272c   0x00000004   Data   RW         4544    .data               mdm_rtu_serial.o
    0x200000d0   0x08002730   0x00000004   Data   RW         4616    .data               tim3.o
    0x200000d4        -       0x000002fd   Zero   RW         4221    .bss                mdm_rtu_app.o
    0x200003d1   0x08002734   0x00000003   PAD
    0x200003d4        -       0x00000140   Zero   RW         4494    .bss                mdm_rtu_rw_man.o
    0x20000514   0x08002734   0x00000004   PAD
    0x20000518        -       0x00000400   Zero   RW          308    STACK               startup_gd32f10x_xd.o


==============================================================================

Image component sizes


      Code (inc. data)   RO Data    RW Data    ZI Data      Debug   Object Name

       172          0          0          0          0        804   gd32f10x_gpio.o
        24          0          0          0          0      41784   gd32f10x_it.o
       216         28          0          0          0       1788   gd32f10x_misc.o
       324         32          0          0          0       1591   gd32f10x_rcu.o
       272         54          0          0          0       3293   gd32f10x_timer.o
       396          8          0          0          0       7992   gd32f10x_usart.o
        32          0          0          0          0       6443   main.o
        24          4        512          0          0       1597   md_rtu_crc16.o
        48          0          0          0          0       1654   md_rtu_maptable.o
       346         12          0          0          0       3841   md_rtu_queue.o
       584        120          0        202        765       9621   mdm_rtu_app.o
      3588         18          0          0          0      15196   mdm_rtu_fun.o
       238         10          0          0        320       2459   mdm_rtu_rw_man.o
       164         32          0          4          0       3465   mdm_rtu_serial.o
       328          0          0          0          0       1451   mdm_rtu_user_fun.o
        36          8        304          0       1024        780   startup_gd32f10x_xd.o
       408         24          0          0          0       2185   system_gd32f10x.o
       116         12          0          4          0       1293   tim3.o
       266         24          0          0          0       2983   usart3.o

    ----------------------------------------------------------------------
      7592        386        848        212       2116     110220   Object Totals
         0          0         32          0          0          0   (incl. Generated)
        10          0          0          2          7          0   (incl. Padding)

    ----------------------------------------------------------------------

      Code (inc. data)   RO Data    RW Data    ZI Data      Debug   Library Member Name

         0          0          0          0          0          0   entry.o
         0          0          0          0          0          0   entry10a.o
         0          0          0          0          0          0   entry11a.o
         8          4          0          0          0          0   entry2.o
         4          0          0          0          0          0   entry5.o
         0          0          0          0          0          0   entry7b.o
         0          0          0          0          0          0   entry8b.o
         8          4          0          0          0          0   entry9a.o
        30          0          0          0          0          0   handlers.o
        36          8          0          0          0         68   init.o
         0          0          0          0          0          0   iusefp.o
        30          0          0          0          0         68   llshl.o
        32          0          0          0          0         68   llushr.o
        56          0          0          0          0         88   d2f.o
       222          0          0          0          0        100   ddiv.o
       186          0          0          0          0        176   depilogue.o
       228          0          0          0          0         96   dmul.o
        38          0          0          0          0         68   f2d.o
       176          0          0          0          0        140   fadd.o
       110          0          0          0          0        168   fepilogue.o
        50          0          0          0          0         68   ffixi.o
        40          0          0          0          0         68   ffixui.o
        18          0          0          0          0         68   fflti.o
        10          0          0          0          0         68   ffltui.o
       100          0          0          0          0         76   fmul.o

    ----------------------------------------------------------------------
      1384         16          0          0          0       1388   Library Totals
         2          0          0          0          0          0   (incl. Padding)

    ----------------------------------------------------------------------

      Code (inc. data)   RO Data    RW Data    ZI Data      Debug   Library Name

       148         16          0          0          0        204   mc_w.l
      1234          0          0          0          0       1184   mf_w.l

    ----------------------------------------------------------------------
      1384         16          0          0          0       1388   Library Totals

    ----------------------------------------------------------------------

==============================================================================


      Code (inc. data)   RO Data    RW Data    ZI Data      Debug   

      8976        402        848        212       2116     106924   Grand Totals
      8976        402        848        212       2116     106924   ELF Image Totals
      8976        402        848        212          0          0   ROM Totals

==============================================================================

    Total RO  Size (Code + RO Data)                 9824 (   9.59kB)
    Total RW  Size (RW Data + ZI Data)              2328 (   2.27kB)
    Total ROM Size (Code + RO Data + RW Data)      10036 (   9.80kB)

==============================================================================

