:020000040800F2
:10000000600900204501000805200008A506000839
:10001000012000089F060008A12100080000000040
:100020000000000000000000000000002D2000087B
:10003000A306000800000000072000085D0100087A
:100040005F0100085F0100085F0100085F01000810
:100050005F0100085F0100085F0100085F01000800
:100060005F0100085F0100085F0100085F010008F0
:100070005F0100085F0100085F0100085F010008E0
:100080005F0100085F0100085F0100085F010008D0
:100090005F0100085F0100085F0100085F010008C0
:1000A0005F0100085F0100085F0100085F010008B0
:1000B0005F0100085F0100085F0100085F010008A0
:1000C0005F0100085F0100085F0100085F01000890
:1000D0005F0100085F010008792100085F01000846
:1000E0005F0100085F0100085F0100085F01000870
:1000F0005F0100085F0100085F0100085F01000860
:100100005F0100085F0100085F0100085F0100084F
:100110005F0100085F010008492100085F01000835
:100120005F0100085F0100085F0100085F0100082F
:10013000DFF80CD000F082FA0048004709230008DD
:10014000600900200648804706480047FEE7FEE7B2
:10015000FEE7FEE7FEE7FEE7FEE7FEE7FEE7FEE777
:100160003120000831010008F0B480EA0102D40F08
:100170004200B2EB410F02D20246084611464A0045
:1001800042D0C30DDDB2C1F3C752AD1A202D35DA0E
:10019000C1F3160141F4000204B15242C5F1200638
:1001A00002FA06F12A411044B3EBD05F23D0C4B168
:1001B000012DA0EBC35009DCF0BC4FF0004202EA75
:1001C000C352DBB200F5000000F0ACB9400000F112
:1001D000807000EBC350A0F1807040EAD1704900FC
:1001E00009E0490841EAC071A0EBC35000F50000E6
:1001F000400800EBC350F0BC00F08BB96142012213
:1002000002EB4101001BF6E7F0BC704781F00041B2
:10021000AAE780F00040A7E780EA010210B502F0EB
:100220000043400022D04A001FD0010E01EB1261B2
:10023000C0F35600C2F3560240F4000042F400023C
:10024000A0FB022000047F39140400D0401C50EAB7
:10025000124001D44000491EC2B20C0604EBD0107B
:10026000401C4008802A02D003E0002010BD20F08E
:100270000100002900DA0020184310BD2DE9FE4FCF
:1002800081EA030404F0004421F0004100944FF09F
:10029000000B23F0004350EA01045ED052EA03044D
:1002A0005BD0C3F30A54C1F30A552C44A4F2F334CF
:1002B0000194A0FB0254C1F3130141F48011C3F374
:1002C000130343F4801301FB024400FB034E840A32
:1002D000970A44EA815447EA8357A4FB07680295CA
:1002E0008D0A05FB07854FEA932C04FB0C54270568
:1002F000029D4FEA065847EA1637B5EB08056EEB44
:10030000070C870E920E47EA811742EA8312A7FB79
:100310000201B6EB0B0164EB00042B0D43EA0C3336
:100320005E1844EB1C50DA465146E7FB0201C5F368
:1003300013044FEA0B3343EA14534FEA0432019C8F
:1003400043EA0603A4F10C040294009CCDE900B436
:1003500000F025F903B0BDE8F08F00200146F9E771
:100360002DE9F04D81EA030404F0004B21F0004533
:1003700014464FF0000A23F0004150EA050220D055
:1003800054EA01021DD0C5F30A570246C5F3130310
:10039000C1F31300C1F30A5640F4801543F48013EF
:1003A000A7EB0608101BD64608F2FD3873EB0500D4
:1003B00002D308F1010801E092185B41B8F1000F87
:1003C00003DA00200146BDE8F08D00204FF48011D3
:1003D000064684460EE0171B73EB050705D3121B78
:1003E00063EB050306434CEA010C49084FEA300071
:1003F00092185B4150EA0107EDD152EA030012D096
:1004000082EA040083EA0501084305D0101BAB41D2
:1004100006D20122002306E000224FF0004302E052
:100420006FF0010253101AEB06004CEB085110EB71
:100430000A0041EB0B01BDE8F04D00F0A1B8C10F7F
:1004400080EAE0700844CA079623002100F06AB8E9
:1004500096230022114600F065B800F0004220F01B
:100460000040C10DC0F3160040F400007F2901DAFE
:1004700000207047962903DCC1F19601C84001E0D5
:1004800096398840002AF4D04042704720F000405E
:10049000C10DC0F3160040F400007F2901DA0020EE
:1004A0007047962903DCC1F19601C8407047963920
:1004B0008840704700F0004230F000400AD0C10D83
:1004C00001F56071C0F3160042EA0151C20840070D
:1004D0001143704700200146704701F0004330B4DB
:1004E00021F0004150EA010206D00A0DA2F5607227
:1004F000C1F31301002A02DC30BC00207047440F16
:1005000044EAC104C100E01830BC00EBC250AFF3B4
:1005100000800029A8BF7047401C490008BF20F098
:100520000100704710B4B0FA80FC00FA0CF050EAF9
:10053000010404BF10BC704749B1CCF1200421FA7A
:1005400004F411FA0CF118BF012121430843A3EB75
:100550000C01CB1D4FEA00614FEA102042BF002082
:1005600010BC704700EBC35010440029A4BF10BC5E
:100570007047401C490008BF20F0010010BC7047C4
:1005800010B5141E73F1000408DA401C41F100019B
:1005900092185B411A4301D120F0010010BD2DE9F2
:1005A000F04D92469B4611B1B1FA81F202E0B0FAE9
:1005B00080F22032904600F053F804460F4640EA9D
:1005C0000A0041EA0B0153465A46084313D011462C
:1005D00053EA010019D0C8F14002504600F04FF82C
:1005E00005460E4650465946424600F039F8084343
:1005F00005D0012004E020463946BDE8F08D0020FA
:10060000054346EAE0762C4337430A986305E40A3B
:10061000A0EB08000022FD0A44EA47540A3002D544
:1006200000200146E9E7010510196941DDE90845A7
:1006300000196941BDE8F04DA2E70000064C074DE6
:1006400006E0E06840F0010394E8070098471034A2
:10065000AC42F6D3FFF770FDF82A0008182B00080B
:10066000202A04DB203A00FA02F100207047914072
:10067000C2F1200320FA03F3194390407047202A67
:1006800004DB203A21FA02F00021704721FA02F33C
:10069000D040C2F12002914008431946704700BF84
:1006A000FEE7704700BFFEE703460BB90020704726
:1006B00019609A8000201881D8800120987200BFAC
:1006C000F5E7014609B900207047B1F90800B1F912
:1006D0000620801A8A88104490FBF2F302FB130074
:1006E00080B2F1E700B9704700210181C18000BFED
:1006F000F9E700002DE9FF4104460F4615461E4666
:100700001948A04201D0BDE8FF81012E06D0022E7B
:100710000FD0032E0ED0042E22D120E06B462A46A5
:100720003946204600F0ECFABDF80000ADF80000B4
:1007300016E015E0082D01DA284600E00820024600
:100740006B463946204600F0D0FCBDF800004FEA69
:100750001028BDF8000000F0FF0800BF00E000BF57
:1007600000BF00BFCFE70000CC0200202DE9F04120
:1007700004460D4617469846069E094804600CB983
:10078000BDE8F08107480649096808600648044941
:1007900009688860284601F06DFD00BFF0E70000A1
:1007A000C0000020E9070008D107000810B5044682
:1007B0000648006800B910BD044800682146426838
:1007C00002480068904700BFF5E70000C000002025
:1007D00018B10121034A116002E00021014A1160B1
:1007E000704700008401214270B504460D46294639
:1007F000204601F0A9FF70BD10B504460648006808
:1008000000B910BD044800682146C268024800686B
:10081000904700BFF5E70000C00000200EB50020A3
:10082000012108224FF41653CDE9002102900A4617
:100830001749184800F04CF840F20110164B0246D8
:1008400016490090134800F0A7F91549114800F027
:1008500031F808B900200EBD12490E4800F02AF800
:1008600008B90020F7E710490A4800F023F808B952
:100870000020F0E70D49074800F01CF808B90020F7
:10088000E9E70B49034800F089FD0120E3E7000098
:100890006D070008CC020020C9010020C80000201C
:1008A00040000020A00000208C000020B4000020A8
:1008B000F506000870B504460D4604B10DB90020D8
:1008C00070BD1422294604F50D7001F081FBF7E795
:1008D0002DE9F04F89B004460F4693469846139D84
:1008E00014B909B0BDE8F08F002020620021A18476
:1008F0006061218384F82CB0A4F82E01A4F83002A2
:10090000002606E0002104F50D7040F82610701C4A
:10091000C6B2142EF6DB4148E0604148606000201A
:100920002060A0602061401EC4F884020020C4F84A
:100930008C02C4F888024046FFF78AFD0190FFF759
:10094000B9FD02460B46CDE9020100203549FFF70B
:1009500007FD0022344BCDE90401FFF78FFCCDE900
:100960000601FFF7BAFD81464FF0000A149909B15C
:10097000012200E0002212995018FFF760FD49465D
:100980000690FFF749FC0790FFF780FD1FFA80FAF9
:1009900065B95046FFF75CFD49460690FFF7E4FB5A
:1009A0000790FFF773FD1FFA80FA27E0012D12D19F
:1009B0004FF07F514846FFF72FFC06905046FFF757
:1009C00047FD05900699FFF7CFFB0790FFF75EFD07
:1009D0001FFA80FA12E0022D10D169074846FFF78E
:1009E0001BFC06905046FFF733FD05900699FFF774
:1009F000BBFB0790FFF74AFD1FFA80FAA4F890A20C
:100A00004FF6FF70A4F8920237B114982B4600906D
:100A100041462046129AB84700BF62E7A713000874
:100A2000B91100080000F03F006AF84010B5034813
:100A300000F006F800F026FD10BD0000CC020020FA
:100A40002DE9FE4304460CB9BDE8FE8304F522708F
:100A500003C8401AB4F89012884200D2F4E7204646
:100A600000F02EFC064606B991E094F82D0030B156
:100A700094F82D0094F82C10884200D087E02E20A6
:100A8000005D012817DB2E20005D042813DC3020D8
:100A9000015D2F20005D41EA00253220015D3120FB
:100AA000005D41EA00272E20035D3A462946204694
:100AB00000F034F965E02E20005D052803D02E20DB
:100AC000005D062818D13020015D2F20005D41EA2D
:100AD00000253220015D3120005D41EA00200290B6
:100AE000022002A9CDE900102E20035D0122294633
:100AF000204600F038FE44E02E20005D0F2803D091
:100B00002E20005D10283CD13020015D2F20005D9B
:100B100041EA00283220015D3120005D41EA0025D4
:100B20003320075D2E20005D0F2813D1E91705EB58
:100B30005171C910A5EBC10109B1012100E00021EB
:100B400001EBE501B9420ED003228F21204600F0CF
:100B500056FB17E0B7EB450F05D003229021204646
:100B600000F04DFB0EE03320015D04F13400CDE9CF
:100B700000012E20035D2A464146204600F0F3FD89
:100B800000BF00BFD4F88802C4F88C0200BF002068
:100B9000A4F82E0100BF57E72DE9F04104460E46A8
:100BA00017461D46DDF818800CB9BDE8F0813A46BD
:100BB000314604F11400FFF777FD4246294604F15F
:100BC0002000FFF771FD00BFEFE72DE9F047064673
:100BD0000D4694461C46089F334613B90020BDE8D5
:100BE000F087012F03D0022F01D00020F7E7002269
:100BF00081E003F50D7050F8220000B979E003F5AB
:100C00000D7050F822000088A84271DC03F50D70C9
:100C100050F82200018803F50D7050F82200008979
:100C2000084405EB0C01884262DB03F50D7050F8B7
:100C30002200807AB8425AD103F50D7050F8220094
:100C40000088281A1FFA80F8414649E003F50D791B
:100C500059F82290D9F804904FEA211A39F81A90DD
:100C60004FEAE17A01EB1A7A4FEA2A1AA1EB0A1A43
:100C700049FA0AF909F00109B9F1000F17D008463D
:100C80004FEAE17901EB59794FEAE909A1EBC90A89
:100C90004FF0010909FA0AF904EBE10A9AF800A0F9
:100CA00049EA0A0904EBE10A8AF8009016E00846CE
:100CB0004FEAE17901EB59794FEAE909A1EBC90A59
:100CC0004FF0010909FA0AF904EBE10A9AF800A0C9
:100CD0002AEA090A04EBE10989F800A0481C81B25C
:100CE00008EB0C008842B1DC012078E700E000BF8F
:100CF00000BF501C82B2142AFFF67BAF00206EE7C3
:100D0000F8B504460D4616461F4601203B463246BE
:100D1000294600902046FFF758FFF8BD2DE9FE4F09
:100D20000446894616469846002714B90020BDE8B7
:100D3000FE8F0027CDE104F50D7050F8270000B9B3
:100D4000C5E104F50D7050F82700008848457BDCAC
:100D500004F50D7050F82700018804F50D7050F867
:100D600027000089084409EB060188426CDBB8F1D2
:100D7000010F06D104F50D7050F82700807A012884
:100D800009D0B8F1020F6ED104F50D7050F82700AC
:100D9000807A0228F7D104F50D7050F827000088FA
:100DA000A9EB00001FFA80FB00200290824600BFE2
:100DB000D4F88402401C0028FAD1A06810B10120A8
:100DC000A16888474FF6FF7001900020A4F8300218
:100DD00094F82C10019801F067F8019094F82C1009
:100DE000B4F83022501CA4F8300204F598708154F5
:100DF0004146019801F058F80190B4F83012481CAF
:100E0000A4F8300204F5987000F80180F01706EBA2
:100E10005070C010A6EBC0000096002801DD012034
:100E200000E0002000EBE600C1B2019801F03CF8C0
:100E300001903046F11706EB5171C910A6EBC101C4
:100E4000002902DD012101E040E1002101EBE60182
:100E5000CAB2B4F83032591CA4F8301204F59871B3
:100E6000CA545D4648E07DE0A5EB0B010298B0EB6B
:100E7000E10F14D05146019801F016F80190B4F832
:100E80003012481CA4F8300204F5987000F801A054
:100E90004FF0000AA5EB0B00C0F3CF00029004F561
:100EA0000D7151F8271049682A1131F81210EA170C
:100EB00005EB12721211A5EB0212114101F00101B2
:100EC00069B12846E91705EB5171C910A5EBC102BC
:100ED0000121914041EA0A0101F0FF0A0AE0284697
:100EE000E91705EB5171C910A5EBC1020121914031
:100EF0002AEA010A681C85B20BEB0600A842B3DCA3
:100F00005146019800F0D0FF0190B4F83012481C0F
:100F1000A4F8300204F5987000F801A00198C1B25D
:100F2000B4F83022501CA4F8300204F598708154B3
:100F300001980112B4F83022501CA4F8300204F5D4
:100F400098708154B4F830122268904700BFD4F8EA
:100F50008402401C0028FAD1A06810B10020A168CA
:100F60008847B1E0B8F1030F06D104F50D7050F8D1
:100F70002700807A032809D0B8F1040F7ED104F548
:100F80000D7050F82700807A0428F7D14FF0000A3E
:100F900004F50D7050F827000088A9EB000080B21E
:100FA000029000BFD4F88402401C0028FAD1A06847
:100FB00010B10120A16888474FF6FF7B0020A4F8FC
:100FC000300294F82C10584600F06EFF834694F8D7
:100FD0002C10B4F83022501CA4F8300204F598709C
:100FE00081544146584600F05FFF8346B4F8301202
:100FF000481CA4F8300204F5987000F801807006CF
:10100000010E584600F050FF83467006010EB4F8FA
:101010003022501CA4F8300204F5987081544FF02F
:10102000000A28E004F50D7050F827004168029886
:1010300000EB6A0031F81050290A584600F034FFDE
:101040008346290AB4F83022501CA4F8300204F573
:1010500098708154E9B2584600F026FF8346B4F8F0
:101060003022501CA4F8300204F5987085540AF11F
:1010700002001FFA80FABAEB460F00E023E0D1DB52
:10108000B4F83022501CA4F8300204F5987000F82F
:1010900002B04FEA2B21B4F83022501CA4F83002E1
:1010A00004F598708154B4F830122268904700BF5C
:1010B000D4F88402401C0028FAD1A06810B10020A6
:1010C000A168884700E002E0012030E600BF781CFC
:1010D00087B2142FFFF62FAE08F18000C1B20222B2
:1010E000204600F08CF8002021E6F8B504460D46B5
:1010F00016461F4603203B463246294600902046AE
:1011000000F001F8F8BD2DE9F04305460C461746FE
:101110009C46079E2A4612B90020BDE8F083032EA4
:1011200003D0042E01D00020F7E7002140E002F5B3
:101130000D7050F8210000B938E002F50D7050F83C
:1011400021000088A04230DC02F50D7050F821002B
:10115000038802F50D7050F8210000891844E31946
:10116000984222DB02F50D7050F82100807AB042DF
:101170001AD102F50D7050F821000088201A1FFACC
:1011800080F800230CE002F50D7050F82100406853
:1011900008EB030930F819002CF81300581C83B22F
:1011A000BB42F0DB0120B8E700BF00BF481C81B2A2
:1011B0001429BCDB0020B0E773B505462C4604B902
:1011C0007CBD012201A904F1140000F0BCFE00B9AD
:1011D000F6E7D4F88402401C18B94FF6FF70A4F863
:1011E0009202B4F892029DF8041000F05DFEA4F89B
:1011F0009202D4F88802C4F8840200BFE0E72DE927
:10120000F04104460F46154600BFD4F88402401C46
:101210000028FAD1A06810B10120A16888474FF6D4
:10122000FF760020A4F8300294F82C10304600F02D
:101230003BFE064694F82C10B4F83022501CA4F85B
:10124000300204F5987081543946304600F02CFE87
:101250000646B4F83012481CA4F8300204F5987021
:1012600047542946304600F01FFE0646B4F83012B7
:10127000481CA4F8300204F598704554B4F83022A4
:10128000501CA4F8300204F5987086543112B4F85A
:101290003022501CA4F8300204F598708154B4F840
:1012A00030122268904700BFD4F88402401C002806
:1012B000FAD1A06810B10020A1688847BDE8F0818C
:1012C0007CB504460CB900207CBD0122694604F1BE
:1012D000200000F0F5FD08B90020F5E700251CE02E
:1012E000012201A904F1200000F0EAFD08B9002064
:1012F000EAE7B4F82E01FF2800DD0CE09DF80410A9
:10130000B4F82E2104F12D008154B4F82E01401CB4
:10131000A4F82E0100BF681C85B29DF8000085422C
:10132000DEDBB4F82E01012836DB2E20005D01281B
:1013300013D02E20005D02280FD02E20005D032840
:101340000BD02E20005D042807D02E20005D05283C
:1013500003D02E20005D062805D1B4F82E01082800
:101360001AD10120B0E72E20005D0F2803D02E20D7
:10137000005D10280ED1B4F82E0109280CDB3320B3
:10138000015DB4F82E2101F10900824201D1012052
:101390009AE701E0002097E7012095E700B9704740
:1013A000016100BFFBE72DE9FC4705460F464FF002
:1013B0000008C1462C460CB9BDE8FC87C4F8887209
:1013C000D4F88802401C50B9D4F88C02C0F1FF3820
:1013D000C4F888820020C4F88C024FF00109D4F8C8
:1013E0008402401C00B9E7E7B9F1000F0AD0D4F835
:1013F0008412C1F1FF31D4F888020844C4F888028D
:10140000C4F88482D4F88412D4F88802401AB4F85C
:101410009012884233D3B4F8920240B104F1140020
:10142000FFF760F94FF0FF30C4F88402C4E704F11D
:101430001400FFF746F90190012201A904F12000F0
:1014400000F081FD002611E00122694604F114003C
:1014500000F036FD00B9AFE70122694604F1200033
:1014600000F071FD00B9A7E7701C86B2BDF804005A
:101470008642E9DB4FF0FF30C4F8840200BF00BFB2
:101480009AE700001FB5FF2003900B4A07CA8DE8BA
:10149000070003AB05220121084800F056F9BDF80A
:1014A0000C200B21054800F030FC6B46052211464C
:1014B000024800F035FC1FBDEC2A0008CC020020D9
:1014C0002DE9F04306460C4617461D46334613B930
:1014D0000020BDE8F083012D03D0022D01D00020B3
:1014E000F7E7002178E003F50D7050F8210000B90E
:1014F00070E003F50D7050F821000088A04268DC10
:1015000003F50D7050F82100028803F50D7050F8B6
:10151000210000890244601C82425ADB03F50D70F1
:1015200050F82100807AA84252D103F50D7050F88E
:1015300021000088201A82B22FB303F50D7C5CF8DD
:1015400021C0DCF804C04FEA22183CF818C010464D
:101550004FEAE27802EB18784FEA2818A2EB081954
:101560004FF0010808FA09F84CEA080C1FFA8CF849
:1015700003F50D7C5CF821C0DCF804C04FEA2219A9
:101580002CF8198022E003F50D7C5CF821C0DCF812
:1015900004C04FEA22183CF818C010464FEAE2781F
:1015A00002EB18784FEA2818A2EB08194FF001084F
:1015B00008FA09F82CEA080C03F50D7858F8218090
:1015C000D8F804804FEA221928F819C0012080E7D2
:1015D00000BF00BF481C81B2142984DB002078E7DB
:1015E0002DE9F04F06460D4694469846099F33462E
:1015F00013B90020BDE8F08F012F03D0022F01D0D6
:101600000020F7E700219BE003F50D7050F8210062
:1016100000B993E003F50D7050F821000088A8424E
:101620007EDC03F50D7050F82100028803F50D7083
:1016300050F821000089104405EB0C0290427CDB3D
:1016400003F50D7050F82100807AB84274D103F58B
:101650000D7050F821000088281A84B2002267E03B
:10166000C1464FEAE27A02EB5A7A4FEAEA0AA2EB63
:10167000CA0A09EBE20B9BF800B04BFA0AFB0BF02D
:10168000010ABAF1000F27D003F50D7A5AF821A00C
:10169000DAF804A004EB020B4FEA2B1B3AF81BA06C
:1016A00010194FEAE07B00EB1B7B4FEA2B1BA0EBF2
:1016B0000B1E4FF0010B0BFA0EFB4AEA0B0A03F567
:1016C0000D7B5BF821B0DBF804B004EB020E4FEAAF
:1016D0002E1E2BF81EA029E003F50D7A5AF821A042
:1016E000DAF804A004EB020B4FEA2B1B3AF81BA01C
:1016F00010194FEAE07B00EB1B7B4FEA2B1BA0EBA2
:101700000B1E4FF0010B0BFA0EFB2AEA0B0A03F536
:101710000D7B5BF821B0DBF804B004EB020E01E0B6
:101720000BE009E04FEA2E1E2BF81EA0501C82B2DF
:10173000624595DB01205DE700BF00BF481C81B218
:101740001429FFF661AF002054E7F8B504460D46B2
:1017500016461F4601203B46324629460090204649
:10176000FFF73EFFF8BD2DE9FC5F04460D46174626
:101770009846DDE90C6B4FF00009B8F1050F09D070
:10178000B8F1060F7DD0B8F10F0F7BD0B8F1100F74
:1017900079D10BE23088B0F57F4F02D03088002835
:1017A00072D13088B0F57F4F07D101231A46294600
:1017B0002046FFF785FE814606E0012300222946E8
:1017C0002046FFF77DFE8146B9F1000F7CD000BFB7
:1017D000D4F88402401C0028FAD1A06810B101207E
:1017E000A16888474FF6FF7A0020A4F8300294F8E9
:1017F0002C10504600F058FB824694F82C10B4F898
:101800003022501CA4F8300204F5987081544146EF
:10181000504600F049FB8246B4F83012481CA4F848
:10182000300204F5987000F80180290A504600F053
:101830003BFB8246290AB4F83022501CA4F830023F
:1018400004F598708154E9B2504600F02DFB8246B1
:10185000B4F83022501CA4F8300204F59870855476
:101860003088010A504600F01FFB82463088010A8A
:10187000B4F83022501CA4F8300204F5987081545A
:1018800003E0EEE049E037E241E03178504600F015
:101890000BFB82463178B4F83022501CA4F8300299
:1018A00004F598708154B4F83022501CA4F830022A
:1018B00004F5987000F802A04FEA2A21B4F830220B
:1018C000501CA4F8300200E01BE004F5987081542D
:1018D000B4F830122268904700BFD4F88402401C4C
:1018E0000028FAD1A06810B10020A16888472069BB
:1018F00090B101231A4629462046D4F810C0E0478B
:101900000AE0022285212046FFF779FC04E0032249
:1019100085212046FFF773FCEEE1012033463A466D
:10192000294600902046FFF75BFE8146B9F1000F83
:101930007CD000BFD4F88402401C0028FAD1A068F3
:1019400010B10120A16888474FF6FF7A0020A4F863
:10195000300294F82C10504600F0A6FA824694F813
:101960002C10B4F83022501CA4F8300204F5987002
:1019700081544146504600F097FA8246B4F830123E
:10198000481CA4F8300204F5987000F80180290A78
:10199000504600F089FA8246290AB4F83022501CD9
:1019A000A4F8300204F598708154E9B2504600F072
:1019B0007BFA8246B4F83022501CA4F8300204F5B9
:1019C00098708554390A504600F06EFA8246390AFA
:1019D000B4F83022501CA4F8300204F598708154F9
:1019E000F9B2504600F060FA8246B4F83022501C3A
:1019F000A4F8300204F598708754B4F83022501CD3
:101A0000A4F8300204F5987000F802A04FEA2A21E9
:101A1000B4F83022501CA4F8300204F598708154B8
:101A2000B4F830122268904700BF00E013E0D4F809
:101A30008402401C0028F8D1A06810B10020A168E1
:101A40008847206960B101233A4629462046D4F8E8
:101A500010C0E04704E002228F212046FFF7CFFBB1
:101A60004AE1328803232946204600F069F981467D
:101A7000B9F1000F7DD000BFD4F88402401C0028CB
:101A8000FAD1A06810B10120A16888474FF6FF7A0B
:101A90000020A4F8300294F82C10504600F004FA0C
:101AA000824694F82C10B4F83022501CA4F830026E
:101AB00004F5987081544146504600F0F5F982468D
:101AC000B4F83012481CA4F8300204F5987000F8FD
:101AD0000180290A504600F0E7F98246290AB4F845
:101AE0003022501CA4F8300204F598708154E9B2F9
:101AF000504600F0D9F98246B4F83022501CA4F8C0
:101B0000300204F5987085543088010A504600F080
:101B1000CBF982463088010AB4F83022501CA4F870
:101B2000300204F5987081543178504600F0BCF9C9
:101B300082463178B4F83022501CA4F8300204F503
:101B400098708154B4F83022501CA4F8300204F587
:101B5000987000F802A04FEA2A21B4F83022501CF5
:101B6000A4F8300204F598708154B4F83012226859
:101B700000E015E0904700BFD4F88402401C002824
:101B8000FAD1A06810B10020A1688847206960B12F
:101B90000323012229462046D4F810C0E04704E080
:101BA000022286212046FFF72AFBA5E0032001211F
:101BB00033463A46CDE900102946204600F00AF99E
:101BC0008146B9F1000F7ED000BFD4F88402401CDA
:101BD0000028FAD1A06810B10120A16888474FF60B
:101BE000FF7A0020A4F8300294F82C10504600F040
:101BF0005BF9824694F82C10B4F83022501CA4F8FB
:101C0000300204F5987081544146504600F04CF97A
:101C10008246B4F83012481CA4F8300204F59870DB
:101C200000F80180290A504600F03EF98246290A50
:101C3000B4F83022501CA4F8300204F59870815496
:101C4000E9B2504600F030F98246B4F83022501C18
:101C5000A4F8300204F598708554390A504600F013
:101C600023F98246390AB4F83022501CA4F8300215
:101C700004F598708154F9B2504600F015F9824687
:101C8000B4F83022501CA4F8300204F59870875440
:101C9000B4F83022501CA4F8300204F5987000F813
:101CA00002A04FEA2A21B4F83022501CA4F83002D6
:101CB00004F598708154B4F830122268904700BF40
:101CC000D4F8840200E011E0401C0028F8D1A0689C
:101CD00010B10020A1688847206960B103233A460B
:101CE00029462046D4F810C0E04704E002229021A3
:101CF0002046FFF784FA00BF00BFB9F1000F02D100
:101D00000020BDE8FC9F0120FBE770B504460D46AE
:101D10001646032332462946204600F011F870BDCE
:101D2000FCB504460D4616461F46032000213B46DF
:101D30003246CDE900102946204600F04BF8FCBDA4
:101D4000F0B505460C4616462A460AB90020F0BDF5
:101D5000032B03D0042B01D00020F8E7002135E04D
:101D600002F50D7050F8210000B92DE002F50D705C
:101D700050F821000088A04225DC02F50D7050F8D3
:101D80002100078802F50D7050F8210000890744F2
:101D9000601C874217DB02F50D7050F82100807A35
:101DA00098420FD102F50D7050F821000088201ADA
:101DB00087B202F50D7050F82100406820F81760D6
:101DC0000120C4E700BF00BF481C81B21429C7DB53
:101DD0000020BCE72DE9F04F06460D4694461C4610
:101DE000DDE90987324612B90020BDE8F08F032FE4
:101DF00003D0042F01D00020F7E7002150E002F5C6
:101E00000D7050F8210000B948E002F50D7050F84F
:101E100021000088A84240DC02F50D7050F8210036
:101E2000038802F50D7050F821000089184405EB75
:101E30000C03984231DB02F50D7050F82100807AD6
:101E4000B84229D102F50D7050F821000088281AF7
:101E50001FFA80F9002300BF1AE0B8F1000F09D083
:101E600014F81300000234F813A040EA1A2024F8F2
:101E7000130001E034F8130002F50D7A5AF821A09E
:101E8000DAF804A009EB030B2AF81B00581C83B2F4
:101E90006345E2DB0120A8E700BF00BF481C81B218
:101EA0001429ACDB0020A0E7024682EA0100C0B2A0
:101EB000024B33F8100080EA22207047EC2800081B
:101EC00070B504460D461646B4F90600B4F908107C
:101ED000884201D1002070BDB4F90600401CA188E1
:101EE00090FBF1F201FB120000B2E080052E27D238
:101EF000DFE806F003090F161D00B4F9061020688C
:101F0000405C28701CE0B4F906102068405C287022
:101F100016E0B4F90610206830F8110028800FE0B0
:101F2000B4F90610206850F82100286008E0B4F9E0
:101F30000620216851F82200FEF78FFA286000BFC2
:101F400000BF0120C7E730B50346B3F90800401CC5
:101F50009C8890FBF4F504FB1500B3F90640A04201
:101F600001D1002030BDB3F90800401C9C8890FBD3
:101F7000F4F504FB150000B21881052A25D2DFE82C
:101F800002F003090F161D000878B3F908501C6809
:101F900060551AE00878B3F908501C68605514E0E1
:101FA0000888B3F908501C6824F815000DE008688B
:101FB000B3F908501C6844F8250006E00868B3F936
:101FC00008501C6844F8250000BF00BF0120C9E785
:101FD00030B503460C46154600211A460BB90020C1
:101FE00030BD002108E052F8210018B942F8214024
:101FF0000120F5E7481C81B2A942F4DB0020EFE79D
:1020000000BFFEE77047704710B540F2026000F075
:1020100087FA022303221021034800F0D4F802219A
:10202000014800F0CEF810BD0008014070470000E4
:1020300008B53048006840F001002E49086000BF34
:102040002C48006800F002000028F9D000BF2948A1
:10205000406840F08000274948600020009002E07E
:102060000098401C009000985028F9D321484068FF
:1020700040F090001F4948600020009002E0009866
:10208000401C009000985028F9D300BF19484068C0
:1020900020F00300174948600846006816490840C8
:1020A00014490860084640681449084011494860CE
:1020B00008460068104908400E4908600846006854
:1020C00020F480200860084640680D49084009490E
:1020D00048600846006808490840064908604FF40F
:1020E0001F00886000F08AFA00214FF0006000F0C5
:1020F00079F908BD00100240FFFFF6FE0C00FFE872
:10210000FFFF00F77FB505460C4640F2047000F073
:1021100007FA0020ADF80200ADF804000295ADF812
:1021200000406946074800F073FA0121054800F0B5
:10213000DFFA03220121362000F0F4F8014800F014
:1021400061FA7FBD0010004010B50121084800F081
:10215000D6FA60B10121064800F0CEFA05480068C1
:10216000401C0449086008460068FEF745FB10BDA6
:1021700000100040C400002010B50749074800F0D7
:1021800071FB38B1054800F033FBC4B22046FEF7BE
:102190000DFB00BF10BD000005030500004400401A
:1021A00000BFFEE702E008C8121F08C1002AFAD1EA
:1021B00070477047002001E001C1121F002AFBD1C7
:1021C000704741617047F0B504461646002500226D
:1021D00001F00F0501F0100707B1354300201EE0A4
:1021E000012787401F40C7B122684FEA800C0F27A4
:1021F00007FA0CF7BA43870005FA07F73A4328298C
:1022000004D1012787401F40676105E0482903D1B9
:10221000012787401F4027612260471CB8B2082869
:10222000DED3082022E0012787401F40E7B1626823
:10223000A0F108074FEA870C0F2707FA0CF7BA43FB
:10224000A0F10807BF0005FA07F73A43282904D18F
:10225000012787401F40676105E0482903D1012716
:1022600087401F4027616260471CB8B21028DAD34C
:10227000F0BD000010B5044640F2117000F050F9B6
:1022800040F2026000F04CF90423032218211C489C
:10229000FFF799FF0823032248211948FFF793FF0E
:1022A0002146184800F05CFA0021164800F016FBA1
:1022B0000021144800F002FB0021124800F0EEFA61
:1022C0000021104800F0B1FA00210E4800F0B5FAE4
:1022D00008210C4800F0FAFA04210A4800F0E6FA56
:1022E00040F20531074800F0B0FA002211462620DE
:1022F00000F018F8034800F084FAFFF785FE10BDDF
:1023000000080140004400404FF4A06000F060F875
:10231000FEF784FA63215F20FFF7F4FE01E0FEF789
:1023200085FBFCE72DE9F04103460D4616460024E7
:102330000027A0462448006800F4E060B0F5A06FD4
:1023400015D006DCB0F5407F18D0B0F5806F19D1FC
:1023500010E0B0F5C06F06D0B0F5E06F12D10027E5
:102360004FF0040815E001274FF0030811E00227A1
:10237000B8460EE003274FF001080AE004274FF0AB
:10238000000806E04FF4A06000F022F80227B846EB
:1023900000BF00BFC7F1040005FA00F4C8F1040152
:1023A0000F20C8403040044324010848C45403F0BF
:1023B0001F01012088405911890001F1E021C1F875
:1023C0000001BDE8F08100000CED00E000E400E059
:1023D00002490143024A1160704700000000FA05FB
:1023E0000CED00E0034A0A400243034B1A60BFF3BE
:1023F0004F8F704780FFFF1F08ED00E02DE9F04F81
:102400008BB00746002009903EA090E8004CC068C1
:10241000CDE905BECDF810A007900FF2EC0ADAE97D
:10242000000ACDE9020A0FF2E00ADAE9000ACDE972
:10243000000A38484068C0F381000A900A9820B129
:10244000012804D0022829D103E0334928E0324989
:1024500026E03048406800F48038B8F5803F09D164
:102460002D4C2C48406800F40039B9F5003F02D1EA
:10247000641000E0294C27484068C0F38342254897
:10248000406800F0006008B142F010020F2A01D24B
:10249000921C00E0521C04FB02F101E01E4900BF47
:1024A00000BF1C484068C0F3031504A8465D21FA2C
:1024B00006F318484068C0F3022502A8465D23FAD7
:1024C00006FC14484068C0F3C2251DF8056023FAD5
:1024D00006F0089037B1012F06D0022F06D0032F47
:1024E0000AD106E0099108E0099306E0CDF824C07E
:1024F00003E00898099000E000BF00BF09980BB006
:10250000BDE8F08F0000000000000000010203049D
:10251000060708090010024000127A0000093D0079
:10252000064A02EB9011096800F01F0301229A404D
:102530001143024B03EB90121160704700100240F0
:10254000002000212B4A126842F48032294B1A6085
:1025500000BF401C274A126802F4003119B94FF637
:10256000FF729042F5D1234A126802F400320AB990
:1025700000BFFEE71F4A52681E4B5A601A46526857
:102580005A601A46526842F480625A601A4652688B
:1025900022F440325A601A46526842F480325A603D
:1025A0001A465268144B1A40124B5A601A46526827
:1025B00042F420125A601A46126842F080721A6081
:1025C00000BF0C4A126802F00072002AF9D0094AD2
:1025D000526822F00302074B5A601A46526842F0D2
:1025E00002025A6000BF034A526802F00C02082A35
:1025F000F9D1704700100240FFFFC3F710B5FFF795
:102600009FFF10BD016841F00101016070470000AB
:102610000A888262294A904220D0B0F1804F1DD0B2
:10262000274A90421AD0274A904217D0264A904211
:1026300014D0264A904211D0254A90420ED0254A05
:1026400090420BD0244A904208D0244A904205D0B0
:10265000234A904202D0234A90420FD1026822F0CE
:102660007002026002688B7803F060031A43026014
:1026700002680B7903F010031A4302608A68C26291
:10268000194A90420CD0194A904209D0026822F4AB
:102690004072026002688B8903F440731A4302603F
:1026A000064A904202D0094A904201D18A7B0263D5
:1026B000426942F00102426170470000002C014073
:1026C0000004004000080040000C004000340140BD
:1026D000004C0140005001400054014000180040EF
:1026E000001C00400020004000100040001400408A
:1026F000C2680A43C2607047CA430261704702461B
:10270000D06800EA01031069084010B10BB1012044
:1027100070470020FCE7000010B5044600BF06210A
:10272000084800F073F80028F9D02146054800F069
:1027300064F800BF0621034800F068F80028F9D0CB
:1027400010BD00000044004070B505460E46002450
:1027500003E0285DFFF7E0FF641CB442F9DB70BDC5
:102760002DE9F04704460D460027B846B946002635
:102770001D49601A8C421CD006DC1C48204470B1F4
:10278000B0F5806F1FD10FE0B0F5806F16D0B0F5B7
:102790006C4F18D10320FFF731FE074614E00220EA
:1027A000FFF72CFE07460FE00220FFF727FE074643
:1027B0000AE00220FFF722FE074605E00220FFF7AD
:1027C0001DFE074600E000BF00BF07EB5500B0FB51
:1027D000F5F64FF6F07006EA000806F00F0948EA31
:1027E0000900A060BDE8F087004C004000BCFFBFBE
:1027F00001464868C0F308007047C1F30802426010
:102800007047C16841F40051C160704710B502467D
:1028100002EB9110006801F01F040123A34018404F
:1028200008B1012010BD0020FCE70A4600214169E3
:1028300021F400711143416170470A46002141694A
:1028400021F4807111434161704710B5C1F38912C1
:10285000825801F01F040123A3401A43C1F38913D6
:10286000C25010BD70B5024600230024C1F3891088
:10287000105801F01F060125B54000EA050302EBE0
:1028800091500068C1F304460125B54000EA0504F3
:1028900014B10BB1012070BD0020FCE7C26822F426
:1028A000C062C260C2680A43C26070470A46002123
:1028B000C16821F004011143C1607047026922F42C
:1028C0004052026102690A43026170470A460021D0
:1028D000C16821F008011143C1607047C26822F449
:1028E0008052C260C2680A43C26070470000C1C023
:1028F00081C1400101C3C003800241C201C6C006BC
:10290000800741C70005C1C581C4400401CCC00C8B
:10291000800D41CD000FC1CF81CE400E000AC1CA4B
:1029200081CB400B01C9C009800841C801D8C0183B
:10293000801941D9001BC1DB81DA401A001EC1DEBB
:1029400081DF401F01DDC01D801C41DC0014C1D4AB
:1029500081D5401501D7C017801641D601D2C012CB
:10296000801341D30011C1D181D0401001F0C0309B
:10297000803141F10033C1F381F240320036C1F6BB
:1029800081F7403701F5C035803441F4003CC1FC8B
:1029900081FD403D01FFC03F803E41FE01FAC03A4B
:1029A000803B41FB0039C1F981F840380028C1E87B
:1029B00081E9402901EBC02B802A41EA01EEC02EBB
:1029C000802F41EF002DC1ED81EC402C01E4C024AB
:1029D000802541E50027C1E781E640260022C1E2CB
:1029E00081E3402301E1C021802041E001A0C060DB
:1029F000806141A10063C1A381A240620066C1A6BB
:102A000081A7406701A5C065806441A4006CC1AC8A
:102A100081AD406D01AFC06F806E41AE01AAC06A4A
:102A2000806B41AB0069C1A981A840680078C1B83A
:102A300081B9407901BBC07B807A41BA01BEC07EBA
:102A4000807F41BF007DC1BD81BC407C01B4C074AA
:102A5000807541B50077C1B781B640760072C1B2CA
:102A600081B3407301B1C071807041B00050C1901A
:102A7000819140510193C053805241920196C056BA
:102A8000805741970055C19581944054019CC05C8A
:102A9000805D419D005FC19F819E405E005AC19A4A
:102AA000819B405B0199C059805841980188C0487A
:102AB00080494189004BC18B818A404A004EC18EBA
:102AC000818F404F018DC04D804C418C0044C184AA
:102AD000818540450187C047804641860182C042CA
:102AE000804341830041C181818040400100020058
:102AF0000300040005000000182B0008000000205F
:102B0000C8000000A4210008E02B0008C800002035
:102B100098080000B421000801000200030004002E
:102B2000050006000700080009000A000B000C0061
:102B30000000000000000000000000000000000095
:102B40000000000000000000000000000000000085
:102B50000000000000000000000000000000002055
:102B6000200003000B0015001F00290033003D006A
:102B7000470051005B0065006F0079000000000015
:102B80000000000000000000000000000000000045
:102B90000000000000000000000000000000000035
:102BA00000000000000000004C0000202000040095
:102BB000000000000000000000000000980000205D
:102BC0004000010055555555000000000000000070
:102BD000AC000020400002000000000000000000E7
:0400000508000131BD
:00000001FF
