:020000040800F2
:1000000068090020450100085D2000083D07000840
:10001000592000089F060008D521000800000000B4
:100020000000000000000000000000006320000845
:10003000A3060008000000005F2000085D01000822
:100040005F0100085F0100085F0100085F01000810
:100050005F0100085F010008A50600085F010008B5
:100060005F0100085F0100085F0100085F010008F0
:100070005F0100085F0100085F0100085F010008E0
:100080005F0100085F0100085F0100085F010008D0
:100090005F0100085F0100085F0100081507000804
:1000A0005F0100085F0100085F0100085F010008B0
:1000B0005F0100085F0100085F0100085F010008A0
:1000C0005F0100085F0100085F0100085F01000890
:1000D0005F010008AD2100085F0100085F01000812
:1000E000C90600085F0100085F0100085F01000801
:1000F0005F0100085F0100085F0100085F01000860
:100100005F0100085F0100085F0100085F0100084F
:100110005F0100085F0100087D2100085F01000801
:100120005F0100085F0100085F0100085F0100082F
:10013000DFF80CD000F082FA00480047F5250008EF
:10014000680900200648804706480047FEE7FEE7AA
:10015000FEE7FEE7FEE7FEE7FEE7FEE7FEE7FEE777
:100160006520000831010008F0B480EA0102D40FD4
:100170004200B2EB410F02D20246084611464A0045
:1001800042D0C30DDDB2C1F3C752AD1A202D35DA0E
:10019000C1F3160141F4000204B15242C5F1200638
:1001A00002FA06F12A411044B3EBD05F23D0C4B168
:1001B000012DA0EBC35009DCF0BC4FF0004202EA75
:1001C000C352DBB200F5000000F0ACB9400000F112
:1001D000807000EBC350A0F1807040EAD1704900FC
:1001E00009E0490841EAC071A0EBC35000F50000E6
:1001F000400800EBC350F0BC00F08BB96142012213
:1002000002EB4101001BF6E7F0BC704781F00041B2
:10021000AAE780F00040A7E780EA010210B502F0EB
:100220000043400022D04A001FD0010E01EB1261B2
:10023000C0F35600C2F3560240F4000042F400023C
:10024000A0FB022000047F39140400D0401C50EAB7
:10025000124001D44000491EC2B20C0604EBD0107B
:10026000401C4008802A02D003E0002010BD20F08E
:100270000100002900DA0020184310BD2DE9FE4FCF
:1002800081EA030404F0004421F0004100944FF09F
:10029000000B23F0004350EA01045ED052EA03044D
:1002A0005BD0C3F30A54C1F30A552C44A4F2F334CF
:1002B0000194A0FB0254C1F3130141F48011C3F374
:1002C000130343F4801301FB024400FB034E840A32
:1002D000970A44EA815447EA8357A4FB07680295CA
:1002E0008D0A05FB07854FEA932C04FB0C54270568
:1002F000029D4FEA065847EA1637B5EB08056EEB44
:10030000070C870E920E47EA811742EA8312A7FB79
:100310000201B6EB0B0164EB00042B0D43EA0C3336
:100320005E1844EB1C50DA465146E7FB0201C5F368
:1003300013044FEA0B3343EA14534FEA0432019C8F
:1003400043EA0603A4F10C040294009CCDE900B436
:1003500000F025F903B0BDE8F08F00200146F9E771
:100360002DE9F04D81EA030404F0004B21F0004533
:1003700014464FF0000A23F0004150EA050220D055
:1003800054EA01021DD0C5F30A570246C5F3130310
:10039000C1F31300C1F30A5640F4801543F48013EF
:1003A000A7EB0608101BD64608F2FD3873EB0500D4
:1003B00002D308F1010801E092185B41B8F1000F87
:1003C00003DA00200146BDE8F08D00204FF48011D3
:1003D000064684460EE0171B73EB050705D3121B78
:1003E00063EB050306434CEA010C49084FEA300071
:1003F00092185B4150EA0107EDD152EA030012D096
:1004000082EA040083EA0501084305D0101BAB41D2
:1004100006D20122002306E000224FF0004302E052
:100420006FF0010253101AEB06004CEB085110EB71
:100430000A0041EB0B01BDE8F04D00F0A1B8C10F7F
:1004400080EAE0700844CA079623002100F06AB8E9
:1004500096230022114600F065B800F0004220F01B
:100460000040C10DC0F3160040F400007F2901DAFE
:1004700000207047962903DCC1F19601C84001E0D5
:1004800096398840002AF4D04042704720F000405E
:10049000C10DC0F3160040F400007F2901DA0020EE
:1004A0007047962903DCC1F19601C8407047963920
:1004B0008840704700F0004230F000400AD0C10D83
:1004C00001F56071C0F3160042EA0151C20840070D
:1004D0001143704700200146704701F0004330B4DB
:1004E00021F0004150EA010206D00A0DA2F5607227
:1004F000C1F31301002A02DC30BC00207047440F16
:1005000044EAC104C100E01830BC00EBC250AFF3B4
:1005100000800029A8BF7047401C490008BF20F098
:100520000100704710B4B0FA80FC00FA0CF050EAF9
:10053000010404BF10BC704749B1CCF1200421FA7A
:1005400004F411FA0CF118BF012121430843A3EB75
:100550000C01CB1D4FEA00614FEA102042BF002082
:1005600010BC704700EBC35010440029A4BF10BC5E
:100570007047401C490008BF20F0010010BC7047C4
:1005800010B5141E73F1000408DA401C41F100019B
:1005900092185B411A4301D120F0010010BD2DE9F2
:1005A000F04D92469B4611B1B1FA81F202E0B0FAE9
:1005B00080F22032904600F053F804460F4640EA9D
:1005C0000A0041EA0B0153465A46084313D011462C
:1005D00053EA010019D0C8F14002504600F04FF82C
:1005E00005460E4650465946424600F039F8084343
:1005F00005D0012004E020463946BDE8F08D0020FA
:10060000054346EAE0762C4337430A986305E40A3B
:10061000A0EB08000022FD0A44EA47540A3002D544
:1006200000200146E9E7010510196941DDE90845A7
:1006300000196941BDE8F04DA2E70000064C074DE6
:1006400006E0E06840F0010394E8070098471034A2
:10065000AC42F6D3FFF770FDDC2D0008FC2D00083E
:10066000202A04DB203A00FA02F100207047914072
:10067000C2F1200320FA03F3194390407047202A67
:1006800004DB203A21FA02F00021704721FA02F33C
:10069000D040C2F12002914008431946704700BF84
:1006A000FEE7704710B5012001F012FE012804D1C9
:1006B0000449088001F006FE02E00020014908809C
:1006C00010BD00000000002010B54FF4804001F084
:1006D000FFFD012806D104200C490880000301F029
:1006E000F1FD02E00020094908804FF4004001F0CC
:1006F000EFFD012806D1082005490880000301F01C
:10070000E1FD02E000200249088010BD0400002045
:100710000600002010B5802001F0DAFD012806D186
:10072000022005490880802001F0CCFD02E0002075
:100730000149088010BD00000200002000BFFEE754
:1007400003460BB90020704719609A800020188179
:10075000D8800120987200BFF5E7014609B9002052
:100760007047B1F90800B1F90620801A8A88104450
:1007700090FBF2F302FB130080B2F1E700B970477F
:1007800000210181C18000BFF9E700002DE9FF4190
:1007900004460F4615461E46BDF800004FEA1028D5
:1007A0001748A04201D0BDE8FF81012E06D0022EDD
:1007B0000FD0032E0ED0042E1ED11CE06B462A460D
:1007C0003946204600F0E2FABDF80000ADF800001E
:1007D00012E011E0082D01DA284600E00820024668
:1007E0006B463946204600F0C6FCBDF8000000F01C
:1007F000FF0800BF00E000BF00BF00BFD3E700005C
:10080000D40200202DE9F04104460D4617469846D3
:10081000069E094804600CB9BDE8F0810748064906
:10082000096808600648044909688860284601F09C
:1008300005FE00BFF0E70000C800002075080008B2
:100840006908000810B504460648006800B910BDE4
:10085000044800682146426802480068904700BF8B
:10086000F5E70000C800002001490860704700005B
:10087000B401224270B504460D462946204602F0D6
:10088000DBF870BD10B504460648006800B910BD1D
:10089000044800682146C26802480068904700BFCB
:1008A000F5E70000C80000200EB500200121082255
:1008B0004FF41653CDE9002102900222174918483F
:1008C00000F04CF840F20110164B02461649009019
:1008D000134800F0A7F91549114800F031F808B99C
:1008E00000200EBD12490E4800F02AF808B9002079
:1008F000F7E710490A4800F023F808B90020F0E7AC
:100900000D49074800F01CF808B90020E9E70B4939
:10091000034800F089FD0120E3E700000508000816
:10092000D4020020D1010020D00000204800002087
:10093000A800002094000020BC0000208D070008C3
:1009400070B504460D4604B10DB9002070BD1422E7
:10095000294604F50D7001F067FBF7E72DE9F04F2C
:1009600089B004460F4693469846139D14B909B0C2
:10097000BDE8F08F002020620021A1846061218306
:1009800084F82CB0A4F82E01A4F83002002606E06A
:10099000002104F50D7040F82610701CC6B2142E0C
:1009A000F6DB4148E0604148606000202060A060C4
:1009B0002061401EC4F884020020C4F88C02C4F8F0
:1009C00088024046FFF744FD0190FFF773FD0246A1
:1009D0000B46CDE9020100203549FFF7C1FC00229A
:1009E000344BCDE90401FFF749FCCDE90601FFF7DF
:1009F00074FD81464FF0000A149909B1012200E00C
:100A0000002212995018FFF71AFD49460690FFF789
:100A100003FC0790FFF73AFD1FFA80FA65B95046CC
:100A2000FFF716FD49460690FFF79EFB0790FFF77C
:100A30002DFD1FFA80FA27E0012D12D14FF07F51D2
:100A40004846FFF7E9FB06905046FFF701FD059089
:100A50000699FFF789FB0790FFF718FD1FFA80FA48
:100A600012E0022D10D169074846FFF7D5FB06902A
:100A70005046FFF7EDFC05900699FFF775FB0790D0
:100A8000FFF704FD1FFA80FAA4F890A24FF6FF705A
:100A9000A4F8920237B114982B46009041462046A4
:100AA000129AB84700BF62E73314000845120008E5
:100AB0000000F03F006AF84010B5034800F006F867
:100AC00000F026FD10BD0000D40200202DE9FE43F9
:100AD00004460CB9BDE8FE8304F5227003C8401A31
:100AE000B4F89012884200D2F4E7204600F02EFCC1
:100AF000064606B991E094F82D0030B194F82D0027
:100B000094F82C10884200D087E02E20005D012848
:100B100017DB2E20005D042813DC3020015D2F2020
:100B2000005D41EA00253220015D3120005D41EA8F
:100B300000272E20035D3A462946204600F034F96E
:100B400065E02E20005D052803D02E20005D0628DC
:100B500018D13020015D2F20005D41EA00253220B0
:100B6000015D3120005D41EA00200290022002A9CF
:100B7000CDE900102E20035D01222946204600F019
:100B800038FE44E02E20005D0F2803D02E20005DAB
:100B900010283CD13020015D2F20005D41EA002863
:100BA0003220015D3120005D41EA00253320075DE0
:100BB0002E20005D0F2813D1E91705EB5171C910E4
:100BC000A5EBC10109B1012100E0002101EBE50124
:100BD000B9420ED003228F21204600F056FB17E0C9
:100BE000B7EB450F05D003229021204600F04DFBC6
:100BF0000EE03320015D04F13400CDE900012E2028
:100C0000035D2A464146204600F0F3FD00BF00BFC9
:100C1000D4F88802C4F88C0200BF0020A4F82E018A
:100C200000BF57E72DE9F04104460E4617461D4622
:100C3000DDF818800CB9BDE8F0813A46314604F180
:100C40001400FFF77DFD4246294604F12000FFF71E
:100C500077FD00BFEFE72DE9F04706460D469446C5
:100C60001C46089F334613B90020BDE8F087012FCA
:100C700003D0022F01D00020F7E7002281E003F526
:100C80000D7050F8220000B979E003F50D7050F8AE
:100C900022000088A84271DC03F50D7050F8220094
:100CA000018803F50D7050F822000089084405EB17
:100CB0000C01884262DB03F50D7050F82200807A47
:100CC000B8425AD103F50D7050F822000088281A56
:100CD0001FFA80F8414649E003F50D7959F8229052
:100CE000D9F804904FEA211A39F81A904FEAE17ABC
:100CF00001EB1A7A4FEA2A1AA1EB0A1A49FA0AF901
:100D000009F00109B9F1000F17D008464FEAE1795F
:100D100001EB59794FEAE909A1EBC90A4FF0010942
:100D200009FA0AF904EBE10A9AF800A049EA0A096B
:100D300004EBE10A8AF8009016E008464FEAE179F0
:100D400001EB59794FEAE909A1EBC90A4FF0010912
:100D500009FA0AF904EBE10A9AF800A02AEA090A5A
:100D600004EBE10989F800A0481C81B208EB0C00F3
:100D70008842B1DC012078E700E000BF00BF501CD2
:100D800082B2142AFFF67BAF00206EE7F8B5044666
:100D90000D4616461F4601203B4632462946009026
:100DA0002046FFF758FFF8BD2DE9FE4F044689465F
:100DB00016469846002714B90020BDE8FE8F00278C
:100DC000CDE104F50D7050F8270000B9C5E104F538
:100DD0000D7050F82700008848457BDC04F50D7045
:100DE00050F82700018804F50D7050F8270000899D
:100DF000084409EB060188426CDBB8F1010F06D10B
:100E000004F50D7050F82700807A012809D0B8F158
:100E1000020F6ED104F50D7050F82700807A022879
:100E2000F7D104F50D7050F827000088A9EB0000F9
:100E30001FFA80FB00200290824600BFD4F8840293
:100E4000401C0028FAD1A06810B10120A168884791
:100E50004FF6FF7001900020A4F8300294F82C1097
:100E6000019801F04DF8019094F82C10B4F830225C
:100E7000501CA4F8300204F5987081544146019842
:100E800001F03EF80190B4F83012481CA4F830028A
:100E900004F5987000F80180F01706EB5070C01050
:100EA000A6EBC0000096002801DD012000E0002034
:100EB00000EBE600C1B2019801F022F80190304643
:100EC000F11706EB5171C910A6EBC101002902DD33
:100ED000012101E040E1002101EBE601CAB2B4F8D2
:100EE0003032591CA4F8301204F59871CA545D468A
:100EF00048E07DE0A5EB0B010298B0EBE10F14D0C8
:100F00005146019800F0FCFF0190B4F83012481CE3
:100F1000A4F8300204F5987000F801A04FF0000A20
:100F2000A5EB0B00C0F3CF00029004F50D7151F852
:100F3000271049682A1131F81210EA1705EB1272CE
:100F40001211A5EB0212114101F0010169B128460D
:100F5000E91705EB5171C910A5EBC10201219140C0
:100F600041EA0A0101F0FF0A0AE02846E91705EB09
:100F70005171C910A5EBC102012191402AEA010A71
:100F8000681C85B20BEB0600A842B3DC5146019801
:100F900000F0B6FF0190B4F83012481CA4F83002FB
:100FA00004F5987000F801A00198C1B2B4F830229D
:100FB000501CA4F8300204F5987081540198011275
:100FC000B4F83022501CA4F8300204F59870815413
:100FD000B4F830122268904700BFD4F88402401C55
:100FE0000028FAD1A06810B10020A1688847B1E0BC
:100FF000B8F1030F06D104F50D7050F82700807A80
:10100000032809D0B8F1040F7ED104F50D7050F813
:101010002700807A0428F7D14FF0000A04F50D70FC
:1010200050F827000088A9EB000080B2029000BFB2
:10103000D4F88402401C0028FAD1A06810B1012025
:10104000A16888474FF6FF7B0020A4F8300294F88F
:101050002C10584600F054FF834694F82C10B4F836
:101060003022501CA4F8300204F598708154414697
:10107000584600F045FF8346B4F83012481CA4F8E7
:10108000300204F5987000F801807006010E584691
:1010900000F036FF83467006010EB4F83022501C73
:1010A000A4F8300204F5987081544FF0000A28E04B
:1010B00004F50D7050F827004168029800EB6A00B3
:1010C00031F81050290A584600F01AFF8346290AC1
:1010D000B4F83022501CA4F8300204F59870815402
:1010E000E9B2584600F00CFF8346B4F83022501C99
:1010F000A4F8300204F5987085540AF102001FFA32
:1011000080FABAEB460F00E023E0D1DBB4F83022DE
:10111000501CA4F8300204F5987000F802B04FEAB1
:101120002B21B4F83022501CA4F8300204F598703A
:101130008154B4F830122268904700BFD4F884027A
:10114000401C0028FAD1A06810B10020A16888478F
:1011500000E002E0012030E600BF781C87B2142FC7
:10116000FFF62FAE08F18000C1B20222204600F047
:101170008CF8002021E6F8B504460D4616461F46B9
:1011800003203B46324629460090204600F001F8F5
:10119000F8BD2DE9F04305460C4617469C46079ED0
:1011A0002A4612B90020BDE8F083032E03D0042E96
:1011B00001D00020F7E7002140E002F50D7050F863
:1011C000210000B938E002F50D7050F821000088C8
:1011D000A04230DC02F50D7050F82100038802F5C2
:1011E0000D7050F8210000891844E319984222DB61
:1011F00002F50D7050F82100807AB0421AD102F544
:101200000D7050F821000088201A1FFA80F8002382
:101210000CE002F50D7050F82100406808EB03095E
:1012200030F819002CF81300581C83B2BB42F0DBD5
:101230000120B8E700BF00BF481C81B21429BCDB05
:101240000020B0E773B505462C4604B97CBD0122E9
:1012500001A904F1140000F0A2FE00B9F6E7D4F8E9
:101260008402401C18B94FF6FF70A4F89202B4F83B
:1012700092029DF8041000F043FEA4F89202D4F804
:101280008802C4F8840200BFE0E72DE9F04104467B
:101290000F46154600BFD4F88402401C0028FAD13E
:1012A000A06810B10120A16888474FF6FF760020A2
:1012B000A4F8300294F82C10304600F021FE0646C7
:1012C00094F82C10B4F83022501CA4F8300204F525
:1012D000987081543946304600F012FE0646B4F844
:1012E0003012481CA4F8300204F59870475429467F
:1012F000304600F005FE0646B4F83012481CA4F84B
:10130000300204F598704554B4F83022501CA4F80B
:10131000300204F5987086543112B4F83022501C13
:10132000A4F8300204F598708154B4F830122268A1
:10133000904700BFD4F88402401C0028FAD1A0686E
:1013400010B10020A1688847BDE8F0817CB5044653
:101350000CB900207CBD0122694604F1200000F098
:10136000DBFD08B90020F5E700251CE0012201A9FA
:1013700004F1200000F0D0FD08B90020EAE7B4F83D
:101380002E01FF2800DD0CE09DF80410B4F82E219A
:1013900004F12D008154B4F82E01401CA4F82E0154
:1013A00000BF681C85B29DF800008542DEDBB4F802
:1013B0002E01012836DB2E20005D012813D02E20BF
:1013C000005D02280FD02E20005D03280BD02E20B8
:1013D000005D042807D02E20005D052803D02E20B4
:1013E000005D062805D1B4F82E0108281AD1012085
:1013F000B0E72E20005D0F2803D02E20005D1028BE
:101400000ED1B4F82E0109280CDB3320015DB4F8AD
:101410002E2101F10900824201D101209AE701E069
:10142000002097E7012095E700B97047016100BFF0
:10143000FBE72DE9FC4705460F464FF00008C14683
:101440002C460CB9BDE8FC87C4F88872D4F8880231
:10145000401C50B9D4F88C02C0F1FF38C4F888821F
:101460000020C4F88C024FF00109D4F88402401C1B
:1014700000B9E7E7B9F1000F0AD0D4F88412C1F13E
:10148000FF31D4F888020844C4F88802C4F8848282
:10149000D4F88412D4F88802401AB4F89012884222
:1014A00033D3B4F8920240B104F11400FFF766F9A7
:1014B0004FF0FF30C4F88402C4E704F11400FFF7D2
:1014C0004CF90190012201A904F1200000F067FD10
:1014D000002611E00122694604F1140000F01CFD11
:1014E00000B9AFE70122694604F1200000F057FD82
:1014F00000B9A7E7701C86B2BDF804008642E9DB9C
:101500004FF0FF30C4F8840200BF00BF9AE700002C
:1015100008B5094800880949098808430849098825
:10152000084308490988084300906B4604220121BA
:10153000054800F050F908BD00000020020000201E
:101540000400002006000020D40200202DE9F04312
:1015500006460C4617461D46334613B90020BDE823
:10156000F083012D03D0022D01D00020F7E70021E8
:1015700078E003F50D7050F8210000B970E003F534
:101580000D7050F821000088A04268DC03F50D7052
:1015900050F82100028803F50D7050F821000089F1
:1015A0000244601C82425ADB03F50D7050F82100A2
:1015B000807AA84252D103F50D7050F821000088BE
:1015C000201A82B22FB303F50D7C5CF821C0DCF841
:1015D00004C04FEA22183CF818C010464FEAE278DF
:1015E00002EB18784FEA2818A2EB08194FF001080F
:1015F00008FA09F84CEA080C1FFA8CF803F50D7C80
:101600005CF821C0DCF804C04FEA22192CF81980DC
:1016100022E003F50D7C5CF821C0DCF804C04FEA41
:1016200022183CF818C010464FEAE27802EB18780E
:101630004FEA2818A2EB08194FF0010808FA09F838
:101640002CEA080C03F50D7858F82180D8F80480AE
:101650004FEA221928F819C0012080E700BF00BF17
:10166000481C81B2142984DB002078E72DE9F04F73
:1016700006460D4694469846099F334613B9002006
:10168000BDE8F08F012F03D0022F01D00020F7E733
:1016900000219BE003F50D7050F8210000B993E0A4
:1016A00003F50D7050F821000088A8427EDC03F598
:1016B0000D7050F82100028803F50D7050F82100DC
:1016C0000089104405EB0C0290427CDB03F50D70A1
:1016D00050F82100807AB84274D103F50D7050F8AB
:1016E00021000088281A84B2002267E0C1464FEA30
:1016F000E27A02EB5A7A4FEAEA0AA2EBCA0A09EB4B
:10170000E20B9BF800B04BFA0AFB0BF0010ABAF1AE
:10171000000F27D003F50D7A5AF821A0DAF804A0BB
:1017200004EB020B4FEA2B1B3AF81BA010194FEAEF
:10173000E07B00EB1B7B4FEA2B1BA0EB0B1E4FF05B
:10174000010B0BFA0EFB4AEA0B0A03F50D7B5BF863
:1017500021B0DBF804B004EB020E4FEA2E1E2BF88A
:101760001EA029E003F50D7A5AF821A0DAF804A0AA
:1017700004EB020B4FEA2B1B3AF81BA010194FEA9F
:10178000E07B00EB1B7B4FEA2B1BA0EB0B1E4FF00B
:10179000010B0BFA0EFB2AEA0B0A03F50D7B5BF833
:1017A00021B0DBF804B004EB020E01E00BE009E02D
:1017B0004FEA2E1E2BF81EA0501C82B2624595DB0C
:1017C00001205DE700BF00BF481C81B21429FFF66D
:1017D00061AF002054E7F8B504460D4616461F4693
:1017E00001203B463246294600902046FFF73EFF47
:1017F000F8BD2DE9FC5F04460D4617469846DDE925
:101800000C6B4FF00009B8F1050F09D0B8F1060FC5
:101810007DD0B8F10F0F7BD0B8F1100F79D10BE26A
:101820003088B0F57F4F02D03088002872D13088E0
:10183000B0F57F4F07D101231A4629462046FFF70E
:1018400085FE814606E00123002229462046FFF757
:101850007DFE8146B9F1000F7CD000BFD4F8840230
:10186000401C0028FAD1A06810B10120A168884767
:101870004FF6FF7A0020A4F8300294F82C1050465E
:1018800000F03EFB824694F82C10B4F83022501C35
:10189000A4F8300204F5987081544146504600F097
:1018A0002FFB8246B4F83012481CA4F8300204F52D
:1018B000987000F80180290A504600F021FB82460A
:1018C000290AB4F83022501CA4F8300204F59870AC
:1018D0008154E9B2504600F013FB8246B4F830223E
:1018E000501CA4F8300204F5987085543088010A21
:1018F000504600F005FB82463088010AB4F83022D9
:10190000501CA4F8300204F59870815403E0EEE016
:1019100049E037E241E03178504600F0F1FA824682
:101920003178B4F83022501CA4F8300204F59870D5
:101930008154B4F83022501CA4F8300204F5987099
:1019400000F802A04FEA2A21B4F83022501CA4F873
:10195000300200E01BE004F598708154B4F83012B6
:101960002268904700BFD4F88402401C0028FAD1B6
:10197000A06810B10020A1688847206990B10123B8
:101980001A4629462046D4F810C0E0470AE0022251
:1019900085212046FFF779FC04E0032285212046BB
:1019A000FFF773FCEEE1012033463A4629460090EA
:1019B0002046FFF75BFE8146B9F1000F7CD000BFE7
:1019C000D4F88402401C0028FAD1A06810B101208C
:1019D000A16888474FF6FF7A0020A4F8300294F8F7
:1019E0002C10504600F08CFA824694F82C10B4F873
:1019F0003022501CA4F8300204F5987081544146FE
:101A0000504600F07DFA8246B4F83012481CA4F823
:101A1000300204F5987000F80180290A504600F061
:101A20006FFA8246290AB4F83022501CA4F830021A
:101A300004F598708154E9B2504600F061FA82468C
:101A4000B4F83022501CA4F8300204F59870855484
:101A5000390A504600F054FA8246390AB4F8302266
:101A6000501CA4F8300204F598708154F9B2504625
:101A700000F046FA8246B4F83022501CA4F8300236
:101A800004F598708754B4F83022501CA4F8300242
:101A900004F5987000F802A04FEA2A21B4F8302229
:101AA000501CA4F8300204F598708154B4F8301238
:101AB0002268904700BF00E013E0D4F88402401C85
:101AC0000028F8D1A06810B10020A16888472069DB
:101AD00060B101233A4629462046D4F810C0E047B9
:101AE00004E002228F212046FFF7CFFB4AE1328833
:101AF00003232946204600F04EF98146B9F1000F34
:101B00007DD000BFD4F88402401C0028FAD1A06820
:101B100010B10120A16888474FF6FF7A0020A4F891
:101B2000300294F82C10504600F0EAF9824694F8FE
:101B30002C10B4F83022501CA4F8300204F5987030
:101B400081544146504600F0DBF98246B4F8301229
:101B5000481CA4F8300204F5987000F80180290AA6
:101B6000504600F0CDF98246290AB4F83022501CC4
:101B7000A4F8300204F598708154E9B2504600F0A0
:101B8000BFF98246B4F83022501CA4F8300204F5A4
:101B9000987085543088010A504600F0B1F98246A9
:101BA0003088010AB4F83022501CA4F8300204F541
:101BB000987081543178504600F0A2F9824631780D
:101BC000B4F83022501CA4F8300204F59870815407
:101BD000B4F83022501CA4F8300204F5987000F8D4
:101BE00002A04FEA2A21B4F83022501CA4F8300297
:101BF00004F598708154B4F83012226800E015E0C2
:101C0000904700BFD4F88402401C0028FAD1A06895
:101C100010B10020A1688847206960B10323012228
:101C200029462046D4F810C0E04704E0022286216D
:101C30002046FFF72AFBA5E00320012133463A4660
:101C4000CDE900102946204600F0EFF88146B9F1B1
:101C5000000F7ED000BFD4F88402401C0028FAD1C7
:101C6000A06810B10120A16888474FF6FF7A0020D4
:101C7000A4F8300294F82C10504600F041F9824646
:101C800094F82C10B4F83022501CA4F8300204F55B
:101C9000987081544146504600F032F98246B4F8BB
:101CA0003012481CA4F8300204F5987000F8018046
:101CB000290A504600F024F98246290AB4F8302255
:101CC000501CA4F8300204F598708154E9B25046D3
:101CD00000F016F98246B4F83022501CA4F8300205
:101CE00004F598708554390A504600F009F9824687
:101CF000390AB4F83022501CA4F8300204F5987068
:101D00008154F9B2504600F0FBF88246B4F8302214
:101D1000501CA4F8300204F598708754B4F83022AF
:101D2000501CA4F8300204F5987000F802A04FEAA5
:101D30002A21B4F83022501CA4F8300204F598701F
:101D40008154B4F830122268904700BFD4F884025E
:101D500000E011E0401C0028F8D1A06810B100207C
:101D6000A1688847206960B103233A462946204686
:101D7000D4F810C0E04704E0022290212046FFF78B
:101D800084FA00BF00BFB9F1000F02D10020BDE806
:101D9000FC9F0120FBE7F0B505460C4616462A4697
:101DA0000AB90020F0BD032B03D0042B01D0002082
:101DB000F8E7002135E002F50D7050F8210000B978
:101DC0002DE002F50D7050F821000088A04225DCBE
:101DD00002F50D7050F82100078802F50D7050F8DB
:101DE000210000890744601C874217DB02F50D7053
:101DF00050F82100807A98420FD102F50D7050F80A
:101E000021000088201A87B202F50D7050F82100D9
:101E1000406820F817600120C4E700BF00BF481CDD
:101E200081B21429C7DB0020BCE72DE9F04F06463C
:101E30000D4694461C46DDE90987324612B900205A
:101E4000BDE8F08F032F03D0042F01D00020F7E767
:101E5000002150E002F50D7050F8210000B948E073
:101E600002F50D7050F821000088A84240DC02F510
:101E70000D7050F82100038802F50D7050F8210014
:101E80000089184405EB0C03984231DB02F50D7014
:101E900050F82100807AB84229D102F50D7050F82F
:101EA00021000088281A1FFA80F9002300BF1AE0D9
:101EB000B8F1000F09D014F81300000234F813A091
:101EC00040EA1A2024F8130001E034F8130002F568
:101ED0000D7A5AF821A0DAF804A009EB030B2AF8CE
:101EE0001B00581C83B26345E2DB0120A8E700BF5A
:101EF00000BF481C81B21429ACDB0020A0E7000021
:101F0000024682EA0100C0B2024B33F8100080EAB8
:101F100022207047DC2B000870B504460D4616469B
:101F2000B4F90600B4F90810884201D1002070BD50
:101F3000B4F90600401CA18890FBF1F201FB1200ED
:101F400000B2E080052E27D2DFE806F003090F1665
:101F50001D00B4F906102068405C28701CE0B4F93C
:101F600006102068405C287016E0B4F9061020685E
:101F700030F8110028800FE0B4F90610206850F8FE
:101F80002100286008E0B4F90620216851F82200F9
:101F9000FEF763FA286000BF00BF0120C7E730B535
:101FA0000346B3F90800401C9C8890FBF4F504FB41
:101FB0001500B3F90640A04201D1002030BDB3F9AD
:101FC0000800401C9C8890FBF4F504FB150000B24F
:101FD0001881052A25D2DFE802F003090F161D003B
:101FE0000878B3F908501C6860551AE00878B3F90E
:101FF00008501C68605514E00888B3F908501C6844
:1020000024F815000DE00868B3F908501C6844F87E
:10201000250006E00868B3F908501C6844F825005C
:1020200000BF00BF0120C9E730B503460C46154686
:1020300000211A460BB9002030BD002108E052F8FB
:10204000210018B942F821400120F5E7481C81B26F
:10205000A942F4DB0020EFE700BFFEE770477047BE
:102060007047704708B53048006840F001002E49BD
:10207000086000BF2C48006800F002000028F9D07A
:1020800000BF2948406840F0800027494860002090
:10209000009002E00098401C009000985028F9D36E
:1020A0002148406840F090001F494860002000909F
:1020B00002E00098401C009000985028F9D300BF1F
:1020C0001948406820F00300174948600846006836
:1020D00016490840144908600846406814490840F9
:1020E0001149486008460068104908400E490860D8
:1020F0000846006820F480200860084640680D49C2
:1021000008400949486008460068084908400649EF
:1021100008604FF41F00886000F0E8FB00214FF0DA
:10212000006000F0D7FA08BD00100240FFFFF6FE85
:102130000C00FFE8FFFF00F77FB505460C4640F2B4
:10214000047000F065FB0020ADF80200ADF804005B
:102150000295ADF800406946074800F0D1FB012127
:10216000054800F03DFC03220121362000F052FA20
:10217000014800F0BFFB7FBD0010004010B50121F9
:10218000084800F034FC60B10121064800F02CFC46
:1021900005480068401C0449086008460068FEF7CE
:1021A00071FB10BD00100040CC00002010B50749A5
:1021B000074800F0CFFC38B1054800F091FCC4B2EC
:1021C0002046FEF73FFB00BF10BD000005030500E1
:1021D0000038014000BFFEE702E008C8121F08C136
:1021E000002AFAD170477047002001E001C1121F98
:1021F000002AFBD17047000010B52D4B1B688343AC
:102200002B4C2360231D1B688343241D2360231D47
:102210001B688343241D2360231D1B688343241DE7
:10222000236011B101290ED105E0214B1B68034346
:102230001F4C236008E01E4B1B1D1B6803431C4CF6
:10224000241D236000E000BF00BF32B1012A11D07D
:10225000022A1CD0032A27D127E0154B08331B681C
:102260000343134C08342360231D1B688343241D40
:1022700023601BE00E4B08331B6883430C4C08346F
:102280002360231D1B680343241D23600EE0084BBD
:1022900008331B680343064C08342360231D1B6866
:1022A0000343241D236001E000BF00BF00BF10BD39
:1022B00000040140024909680143014A1160704766
:1022C0000004014001490860704700001404014007
:1022D000014604480068084008B10120704700200A
:1022E000FCE7000014040140024909680143014A67
:1022F000116070471004014010B500228B071C0FBD
:102300000F2303FA04F204290EDA204B9B6893434F
:102310001E4CA36023469B688C07240F00FA04F42C
:1023200023431A4CA3602FE008290EDA174BDB6811
:102330009343164CE3602346DB688C07240F00FAB6
:1023400004F42343114CE3601EE00C290EDA0F4B1A
:102350001B6993430D4C236123461B698C07240F93
:1023600000FA04F42343094C23610DE0074B5B6939
:102370009343064C636123465B698C07240F00FA84
:1023800004F42343014C636110BD000000000140D0
:10239000F0B5044616460025002201F00F0501F0B5
:1023A000100707B1354300201EE0012787401F407A
:1023B000C7B122684FEA800C0F2707FA0CF7BA431F
:1023C000870005FA07F73A43282904D101278740F7
:1023D0001F40676105E0482903D1012787401F405E
:1023E00027612260471CB8B20828DED3082022E00B
:1023F000012787401F40E7B16268A0F108074FEA54
:10240000870C0F2707FA0CF7BA43A0F10807BF00A3
:1024100005FA07F73A43282904D1012787401F40CE
:10242000676105E0482903D1012787401F402761E4
:102430006260471CB8B21028DAD3F0BD10B504466C
:1024400040F20E6000F0E4F940F2026000F0E0F9C2
:102450004FF40073032218211C48FFF799FF4FF433
:102460008063032248211948FFF792FF214618484C
:1024700000F0EEFA0021164800F0A8FB00211448F5
:1024800000F094FB0021124800F080FB002110486E
:1024900000F043FB00210E4800F047FB08210C48E8
:1024A00000F08CFB04210A4800F078FB40F2053173
:1024B000074800F042FB00221146252000F0AAF850
:1024C000034800F016FBFFF7CBFD10BD00080140EC
:1024D0000038014010B540F2026000F099F940F276
:1024E000046000F095F940F2066000F091F94FF4B5
:1024F000C06000F08DF901231A4604213A48FFF725
:1025000047FF4FF48043012204213848FFF740FF82
:102510004FF40043012204213448FFF739FF8023A0
:10252000012204213248FFF733FF00210846FFF75C
:10253000E3FE0E210420FFF7DFFE0F210420FFF74A
:10254000DBFE07210220FFF7D7FE01220021104603
:10255000FFF752FE012200219003FFF74DFE0122FA
:102560000021D003FFF748FE012200218020FFF761
:1025700043FE0120FFF79EFE4FF48040FFF79AFED6
:102580004FF40040FFF796FE8020FFF793FE0022F5
:102590000221062000F03EF801220221172000F05F
:1025A00039F802221146282000F034F80120FFF704
:1025B0009BFE4FF48040FFF797FE4FF40040FFF77B
:1025C00093FE8020FFF790FE0120FFF77BFE802026
:1025D000FFF778FE4FF48040FFF774FE4FF40040A1
:1025E000FFF770FE10BD0000000801400018014018
:1025F000001001404FF4A06000F062F8FEF754F9BB
:1026000063215F20FFF798FDFFF764FF01E0FEF70D
:1026100053FAFCE72DE9F04103460D461646002427
:102620000027A0462448006800F4E060B0F5A06FE1
:1026300015D006DCB0F5407F18D0B0F5806F19D109
:1026400010E0B0F5C06F06D0B0F5E06F12D10027F2
:102650004FF0040815E001274FF0030811E00227AE
:10266000B8460EE003274FF001080AE004274FF0B8
:10267000000806E04FF4A06000F022F80227B846F8
:1026800000BF00BFC7F1040005FA00F4C8F104015F
:102690000F20C8403040044324010848C45403F0CC
:1026A0001F01012088405911890001F1E021C1F882
:1026B0000001BDE8F08100000CED00E000E400E066
:1026C00002490143024A1160704700000000FA0508
:1026D0000CED00E0034A0A400243034B1A60BFF3CB
:1026E0004F8F704780FFFF1F08ED00E02DE9F04F8E
:1026F0008BB00746002009903EA090E8004CC068CF
:10270000CDE905BECDF810A007900FF2EC0ADAE98A
:10271000000ACDE9020A0FF2E00ADAE9000ACDE97F
:10272000000A38484068C0F381000A900A9820B136
:10273000012804D0022829D103E0334928E0324996
:1027400026E03048406800F48038B8F5803F09D171
:102750002D4C2C48406800F40039B9F5003F02D1F7
:10276000641000E0294C27484068C0F383422548A4
:10277000406800F0006008B142F010020F2A01D258
:10278000921C00E0521C04FB02F101E01E4900BF54
:1027900000BF1C484068C0F3031504A8465D21FA39
:1027A00006F318484068C0F3022502A8465D23FAE4
:1027B00006FC14484068C0F3C2251DF8056023FAE2
:1027C00006F0089037B1012F06D0022F06D0032F54
:1027D0000AD106E0099108E0099306E0CDF824C08B
:1027E00003E00898099000E000BF00BF09980BB013
:1027F000BDE8F08F000000000000000001020304AB
:10280000060708090010024000127A0000093D0086
:10281000064A02EB9011096800F01F0301229A405A
:102820001143024B03EB90121160704700100240FD
:10283000002000212B4A126842F48032294B1A6092
:1028400000BF401C274A126802F4003119B94FF644
:10285000FF729042F5D1234A126802F400320AB99D
:1028600000BFFEE71F4A52681E4B5A601A46526864
:102870005A601A46526842F480625A601A46526898
:1028800022F440325A601A46526842F480325A604A
:102890001A465268144B1A40124B5A601A46526834
:1028A00042F420125A601A46126842F080721A608E
:1028B00000BF0C4A126802F00072002AF9D0094ADF
:1028C000526822F00302074B5A601A46526842F0DF
:1028D00002025A6000BF034A526802F00C02082A42
:1028E000F9D1704700100240FFFFC3F710B5FFF7A2
:1028F0009FFF10BD016841F00101016070470000B9
:102900000A888262294A904220D0B0F1804F1DD0BF
:10291000274A90421AD0274A904217D0264A90421E
:1029200014D0264A904211D0254A90420ED0254A12
:1029300090420BD0244A904208D0244A904205D0BD
:10294000234A904202D0234A90420FD1026822F0DB
:102950007002026002688B7803F060031A43026021
:1029600002680B7903F010031A4302608A68C2629E
:10297000194A90420CD0194A904209D0026822F4B8
:102980004072026002688B8903F440731A4302604C
:10299000064A904202D0094A904201D18A7B0263E2
:1029A000426942F00102426170470000002C014080
:1029B0000004004000080040000C004000340140CA
:1029C000004C0140005001400054014000180040FC
:1029D000001C004000200040001000400014004097
:1029E000C2680A43C2607047CA4302617047024628
:1029F000D06800EA01031069084010B10BB1012052
:102A000070470020FCE7000010B5044600BF062117
:102A1000084800F073F80028F9D02146054800F076
:102A200064F800BF0621034800F068F80028F9D0D8
:102A300010BD00000038014070B505460E46002468
:102A400003E0285DFFF7E0FF641CB442F9DB70BDD2
:102A50002DE9F04704460D460027B846B946002642
:102A60001D49601A8C421CD006DC1C48204470B101
:102A7000B0F5806F1FD10FE0B0F5806F16D0B0F5C4
:102A80006C4F18D10320FFF731FE074614E00220F7
:102A9000FFF72CFE07460FE00220FFF727FE074650
:102AA0000AE00220FFF722FE074605E00220FFF7BA
:102AB0001DFE074600E000BF00BF07EB5500B0FB5E
:102AC000F5F64FF6F07006EA000806F00F0948EA3E
:102AD0000900A060BDE8F087004C004000BCFFBFCB
:102AE00001464868C0F308007047C1F3080242601D
:102AF0007047C16841F40051C160704710B502468B
:102B000002EB9110006801F01F040123A34018405C
:102B100008B1012010BD0020FCE70A4600214169F0
:102B200021F400711143416170470A460021416957
:102B300021F4807111434161704710B5C1F38912CE
:102B4000825801F01F040123A3401A43C1F38913E3
:102B5000C25010BD70B5024600230024C1F3891095
:102B6000105801F01F060125B54000EA050302EBED
:102B700091500068C1F304460125B54000EA050400
:102B800014B10BB1012070BD0020FCE7C26822F433
:102B9000C062C260C2680A43C26070470A46002130
:102BA000C16821F004011143C1607047026922F439
:102BB0004052026102690A43026170470A460021DD
:102BC000C16821F008011143C1607047C26822F456
:102BD0008052C260C2680A43C26070470000C1C030
:102BE00081C1400101C3C003800241C201C6C006C9
:102BF000800741C70005C1C581C4400401CCC00C99
:102C0000800D41CD000FC1CF81CE400E000AC1CA58
:102C100081CB400B01C9C009800841C801D8C01848
:102C2000801941D9001BC1DB81DA401A001EC1DEC8
:102C300081DF401F01DDC01D801C41DC0014C1D4B8
:102C400081D5401501D7C017801641D601D2C012D8
:102C5000801341D30011C1D181D0401001F0C030A8
:102C6000803141F10033C1F381F240320036C1F6C8
:102C700081F7403701F5C035803441F4003CC1FC98
:102C800081FD403D01FFC03F803E41FE01FAC03A58
:102C9000803B41FB0039C1F981F840380028C1E888
:102CA00081E9402901EBC02B802A41EA01EEC02EC8
:102CB000802F41EF002DC1ED81EC402C01E4C024B8
:102CC000802541E50027C1E781E640260022C1E2D8
:102CD00081E3402301E1C021802041E001A0C060E8
:102CE000806141A10063C1A381A240620066C1A6C8
:102CF00081A7406701A5C065806441A4006CC1AC98
:102D000081AD406D01AFC06F806E41AE01AAC06A57
:102D1000806B41AB0069C1A981A840680078C1B847
:102D200081B9407901BBC07B807A41BA01BEC07EC7
:102D3000807F41BF007DC1BD81BC407C01B4C074B7
:102D4000807541B50077C1B781B640760072C1B2D7
:102D500081B3407301B1C071807041B00050C19027
:102D6000819140510193C053805241920196C056C7
:102D7000805741970055C19581944054019CC05C97
:102D8000805D419D005FC19F819E405E005AC19A57
:102D9000819B405B0199C059805841980188C04887
:102DA00080494189004BC18B818A404A004EC18EC7
:102DB000818F404F018DC04D804C418C0044C184B7
:102DC000818540450187C047804641860182C042D7
:102DD000804341830041C18181804040FC2D000837
:102DE00000000020D0000000D8210008CC2E0008F0
:102DF000D000002098080000E82100080000000032
:102E000000000000010002000300040005000600AD
:102E10000700080009000A000B000C000000000079
:102E200000000000000000000000000000000000A2
:102E30000000000000000000000000000000000092
:102E40000000000000000000080000202000030037
:102E50000B0015001F00290033003D004700510002
:102E60005B0065006F0079000000000000000000BA
:102E70000000000000000000000000000000000052
:102E80000000000000000000000000000000000042
:102E9000000000005400002020000400000000009A
:102EA0000000000000000000A00000204000010021
:102EB000555555550000000000000000B4000020EA
:0C2EC000400002000000000000000000C4
:0400000508000131BD
:00000001FF
