Component: ARM Compiler 5.06 update 6 (build 750) Tool: armlink [4d35ed]

==============================================================================

Section Cross References

    main.o(i.main) refers to gd32f10x_misc.o(i.nvic_priority_group_set) for nvic_priority_group_set
    main.o(i.main) refers to mds_rtu_app.o(i.MDS_RTU_APPInit) for MDS_RTU_APPInit
    main.o(i.main) refers to tim3.o(i.TIM3_Int_Init) for TIM3_Int_Init
    main.o(i.main) refers to mds_rtu_app.o(i.MDS_RTU_Loop) for MDS_RTU_Loop
    system_gd32f10x.o(i.SystemInit) refers to system_gd32f10x.o(i.system_clock_config) for system_clock_config
    system_gd32f10x.o(i.SystemInit) refers to gd32f10x_misc.o(i.nvic_vector_table_set) for nvic_vector_table_set
    system_gd32f10x.o(i.system_clock_config) refers to system_gd32f10x.o(i.system_clock_96m_hxtal) for system_clock_96m_hxtal
    startup_gd32f10x_xd.o(RESET) refers to startup_gd32f10x_xd.o(STACK) for __initial_sp
    startup_gd32f10x_xd.o(RESET) refers to startup_gd32f10x_xd.o(.text) for Reset_Handler
    startup_gd32f10x_xd.o(RESET) refers to gd32f10x_it.o(i.NMI_Handler) for NMI_Handler
    startup_gd32f10x_xd.o(RESET) refers to gd32f10x_it.o(i.HardFault_Handler) for HardFault_Handler
    startup_gd32f10x_xd.o(RESET) refers to gd32f10x_it.o(i.MemManage_Handler) for MemManage_Handler
    startup_gd32f10x_xd.o(RESET) refers to gd32f10x_it.o(i.BusFault_Handler) for BusFault_Handler
    startup_gd32f10x_xd.o(RESET) refers to gd32f10x_it.o(i.UsageFault_Handler) for UsageFault_Handler
    startup_gd32f10x_xd.o(RESET) refers to gd32f10x_it.o(i.SVC_Handler) for SVC_Handler
    startup_gd32f10x_xd.o(RESET) refers to gd32f10x_it.o(i.DebugMon_Handler) for DebugMon_Handler
    startup_gd32f10x_xd.o(RESET) refers to gd32f10x_it.o(i.PendSV_Handler) for PendSV_Handler
    startup_gd32f10x_xd.o(RESET) refers to usart3.o(i.USART1_IRQHandler) for USART1_IRQHandler
==============================================================================

Removing Unused input sections from the image.

    Removing gd32f10x_it.o(.rev16_text), (4 bytes).
    Removing gd32f10x_it.o(.revsh_text), (4 bytes).
    Removing gd32f10x_it.o(.rrx_text), (6 bytes).
    Removing main.o(.rev16_text), (4 bytes).
    Removing main.o(.revsh_text), (4 bytes).
    Removing main.o(.rrx_text), (6 bytes).
    Removing system_gd32f10x.o(.rev16_text), (4 bytes).
    Removing system_gd32f10x.o(.revsh_text), (4 bytes).
    Removing system_gd32f10x.o(.rrx_text), (6 bytes).
    Removing system_gd32f10x.o(.data), (4 bytes).
    Removing startup_gd32f10x_xd.o(HEAP), (512 bytes).
    Removing gd32f10x_adc.o(.rev16_text), (4 bytes).
    Removing gd32f10x_adc.o(.revsh_text), (4 bytes).
    Removing gd32f10x_adc.o(.rrx_text), (6 bytes).
    Removing gd32f10x_adc.o(i.adc_calibration_enable), (42 bytes).
    Removing gd32f10x_adc.o(i.adc_channel_length_config), (70 bytes).
    Removing gd32f10x_adc.o(i.adc_data_alignment_config), (22 bytes).
    Removing gd32f10x_adc.o(i.adc_deinit), (88 bytes).
==============================================================================

Image Symbol Table

    Local Symbols

    Symbol Name                              Value     Ov Type        Size  Object(Section)

    ../clib/microlib/init/entry.s            0x00000000   Number         0  entry9a.o ABSOLUTE
    ../clib/microlib/init/entry.s            0x00000000   Number         0  entry5.o ABSOLUTE
    ../clib/microlib/init/entry.s            0x00000000   Number         0  entry10b.o ABSOLUTE
    ../clib/microlib/init/entry.s            0x00000000   Number         0  entry10a.o ABSOLUTE
    ../clib/microlib/init/entry.s            0x00000000   Number         0  entry8b.o ABSOLUTE
    ../clib/microlib/init/entry.s            0x00000000   Number         0  entry9b.o ABSOLUTE
    ../clib/microlib/init/entry.s            0x00000000   Number         0  entry8a.o ABSOLUTE
    ../clib/microlib/init/entry.s            0x00000000   Number         0  entry7a.o ABSOLUTE
    ../clib/microlib/init/entry.s            0x00000000   Number         0  entry2.o ABSOLUTE
    ../clib/microlib/init/entry.s            0x00000000   Number         0  entry7b.o ABSOLUTE
    ../clib/microlib/init/entry.s            0x00000000   Number         0  entry.o ABSOLUTE
    ../clib/microlib/init/entry.s            0x00000000   Number         0  entry11b.o ABSOLUTE
    ../clib/microlib/init/entry.s            0x00000000   Number         0  entry11a.o ABSOLUTE
    ../clib/microlib/longlong.c              0x00000000   Number         0  llushr.o ABSOLUTE
    ../clib/microlib/longlong.c              0x00000000   Number         0  llshl.o ABSOLUTE
    ../clib/microlib/stubs.s                 0x00000000   Number         0  iusefp.o ABSOLUTE
    ../fplib/microlib/d2f.c                  0x00000000   Number         0  d2f.o ABSOLUTE
    ../fplib/microlib/f2d.c                  0x00000000   Number         0  f2d.o ABSOLUTE
    ../fplib/microlib/fpadd.c                0x00000000   Number         0  fadd.o ABSOLUTE
    ../fplib/microlib/fpdiv.c                0x00000000   Number         0  ddiv.o ABSOLUTE
    ../fplib/microlib/fpepilogue.c           0x00000000   Number         0  depilogue.o ABSOLUTE
    ../fplib/microlib/fpepilogue.c           0x00000000   Number         0  fepilogue.o ABSOLUTE
    ../fplib/microlib/fpfix.c                0x00000000   Number         0  ffixi.o ABSOLUTE
    ../fplib/microlib/fpfix.c                0x00000000   Number         0  ffixui.o ABSOLUTE
    ../fplib/microlib/fpflt.c                0x00000000   Number         0  fflti.o ABSOLUTE
    ../fplib/microlib/fpflt.c                0x00000000   Number         0  ffltui.o ABSOLUTE
    ../fplib/microlib/fpmul.c                0x00000000   Number         0  dmul.o ABSOLUTE
    ../fplib/microlib/fpmul.c                0x00000000   Number         0  fmul.o ABSOLUTE
    dc.s                                     0x00000000   Number         0  dc.o ABSOLUTE
    driver\\bitband.c                        0x00000000   Number         0  bitband.o ABSOLUTE
    driver\\led.c                            0x00000000   Number         0  led.o ABSOLUTE
    driver\\systick.c                        0x00000000   Number         0  systick.o ABSOLUTE
    driver\bitband.c                         0x00000000   Number         0  bitband.o ABSOLUTE
    driver\led.c                             0x00000000   Number         0  led.o ABSOLUTE
    driver\systick.c                         0x00000000   Number         0  systick.o ABSOLUTE
    handlers.s                               0x00000000   Number         0  handlers.o ABSOLUTE
    init.s                                   0x00000000   Number         0  init.o ABSOLUTE
    modbus\MDS_RTU_APP.c                     0x00000000   Number         0  mds_rtu_app.o ABSOLUTE
    modbus\MDS_RTU_Fun.c                     0x00000000   Number         0  mds_rtu_fun.o ABSOLUTE
    modbus\MDS_RTU_Serial.c                  0x00000000   Number         0  mds_rtu_serial.o ABSOLUTE
    modbus\MDS_RTU_User_Fun.c                0x00000000   Number         0  mds_rtu_user_fun.o ABSOLUTE
    modbus\MD_RTU_CRC16.c                    0x00000000   Number         0  md_rtu_crc16.o ABSOLUTE
    modbus\MD_RTU_MapTable.c                 0x00000000   Number         0  md_rtu_maptable.o ABSOLUTE
    modbus\MD_RTU_Queue.c                    0x00000000   Number         0  md_rtu_queue.o ABSOLUTE
    modbus\MD_RTU_SysInterface.c             0x00000000   Number         0  md_rtu_sysinterface.o ABSOLUTE
    modbus\\MDS_RTU_Serial.c                 0x00000000   Number         0  mds_rtu_serial.o ABSOLUTE
    modbus\\MD_RTU_SysInterface.c            0x00000000   Number         0  md_rtu_sysinterface.o ABSOLUTE
    modbus\\tim3.c                           0x00000000   Number         0  tim3.o ABSOLUTE
    modbus\\usart3.c                         0x00000000   Number         0  usart3.o ABSOLUTE
    modbus\tim3.c                            0x00000000   Number         0  tim3.o ABSOLUTE
    modbus\usart3.c                          0x00000000   Number         0  usart3.o ABSOLUTE
    std\Source\gd32f10x_adc.c                0x00000000   Number         0  gd32f10x_adc.o ABSOLUTE
    std\Source\gd32f10x_bkp.c                0x00000000   Number         0  gd32f10x_bkp.o ABSOLUTE
    std\Source\gd32f10x_can.c                0x00000000   Number         0  gd32f10x_can.o ABSOLUTE
    std\Source\gd32f10x_crc.c                0x00000000   Number         0  gd32f10x_crc.o ABSOLUTE
    std\Source\gd32f10x_dac.c                0x00000000   Number         0  gd32f10x_dac.o ABSOLUTE
    std\Source\gd32f10x_dbg.c                0x00000000   Number         0  gd32f10x_dbg.o ABSOLUTE
    std\Source\gd32f10x_dma.c                0x00000000   Number         0  gd32f10x_dma.o ABSOLUTE
    std\Source\gd32f10x_enet.c               0x00000000   Number         0  gd32f10x_enet.o ABSOLUTE
    std\Source\gd32f10x_exmc.c               0x00000000   Number         0  gd32f10x_exmc.o ABSOLUTE
    std\Source\gd32f10x_exti.c               0x00000000   Number         0  gd32f10x_exti.o ABSOLUTE
    std\Source\gd32f10x_fmc.c                0x00000000   Number         0  gd32f10x_fmc.o ABSOLUTE
    std\Source\gd32f10x_fwdgt.c              0x00000000   Number         0  gd32f10x_fwdgt.o ABSOLUTE
    std\Source\gd32f10x_gpio.c               0x00000000   Number         0  gd32f10x_gpio.o ABSOLUTE
    std\Source\gd32f10x_i2c.c                0x00000000   Number         0  gd32f10x_i2c.o ABSOLUTE
    std\Source\gd32f10x_misc.c               0x00000000   Number         0  gd32f10x_misc.o ABSOLUTE
    std\Source\gd32f10x_pmu.c                0x00000000   Number         0  gd32f10x_pmu.o ABSOLUTE
    std\Source\gd32f10x_rcu.c                0x00000000   Number         0  gd32f10x_rcu.o ABSOLUTE
    std\Source\gd32f10x_rtc.c                0x00000000   Number         0  gd32f10x_rtc.o ABSOLUTE
    std\Source\gd32f10x_sdio.c               0x00000000   Number         0  gd32f10x_sdio.o ABSOLUTE
    std\Source\gd32f10x_spi.c                0x00000000   Number         0  gd32f10x_spi.o ABSOLUTE
    std\Source\gd32f10x_timer.c              0x00000000   Number         0  gd32f10x_timer.o ABSOLUTE
    std\Source\gd32f10x_usart.c              0x00000000   Number         0  gd32f10x_usart.o ABSOLUTE
    std\Source\gd32f10x_wwdgt.c              0x00000000   Number         0  gd32f10x_wwdgt.o ABSOLUTE
    std\\Source\\gd32f10x_adc.c              0x00000000   Number         0  gd32f10x_adc.o ABSOLUTE
    std\\Source\\gd32f10x_bkp.c              0x00000000   Number         0  gd32f10x_bkp.o ABSOLUTE
    std\\Source\\gd32f10x_can.c              0x00000000   Number         0  gd32f10x_can.o ABSOLUTE
    std\\Source\\gd32f10x_crc.c              0x00000000   Number         0  gd32f10x_crc.o ABSOLUTE
    std\\Source\\gd32f10x_dac.c              0x00000000   Number         0  gd32f10x_dac.o ABSOLUTE
    std\\Source\\gd32f10x_dbg.c              0x00000000   Number         0  gd32f10x_dbg.o ABSOLUTE
    std\\Source\\gd32f10x_dma.c              0x00000000   Number         0  gd32f10x_dma.o ABSOLUTE
    std\\Source\\gd32f10x_enet.c             0x00000000   Number         0  gd32f10x_enet.o ABSOLUTE
    std\\Source\\gd32f10x_exmc.c             0x00000000   Number         0  gd32f10x_exmc.o ABSOLUTE
    std\\Source\\gd32f10x_exti.c             0x00000000   Number         0  gd32f10x_exti.o ABSOLUTE
    std\\Source\\gd32f10x_fmc.c              0x00000000   Number         0  gd32f10x_fmc.o ABSOLUTE
    std\\Source\\gd32f10x_fwdgt.c            0x00000000   Number         0  gd32f10x_fwdgt.o ABSOLUTE
    std\\Source\\gd32f10x_gpio.c             0x00000000   Number         0  gd32f10x_gpio.o ABSOLUTE
    std\\Source\\gd32f10x_i2c.c              0x00000000   Number         0  gd32f10x_i2c.o ABSOLUTE
    std\\Source\\gd32f10x_misc.c             0x00000000   Number         0  gd32f10x_misc.o ABSOLUTE
    std\\Source\\gd32f10x_pmu.c              0x00000000   Number         0  gd32f10x_pmu.o ABSOLUTE
    std\\Source\\gd32f10x_rcu.c              0x00000000   Number         0  gd32f10x_rcu.o ABSOLUTE
    std\\Source\\gd32f10x_rtc.c              0x00000000   Number         0  gd32f10x_rtc.o ABSOLUTE
    std\\Source\\gd32f10x_sdio.c             0x00000000   Number         0  gd32f10x_sdio.o ABSOLUTE
    std\\Source\\gd32f10x_spi.c              0x00000000   Number         0  gd32f10x_spi.o ABSOLUTE
    std\\Source\\gd32f10x_timer.c            0x00000000   Number         0  gd32f10x_timer.o ABSOLUTE
    std\\Source\\gd32f10x_usart.c            0x00000000   Number         0  gd32f10x_usart.o ABSOLUTE
    std\\Source\\gd32f10x_wwdgt.c            0x00000000   Number         0  gd32f10x_wwdgt.o ABSOLUTE
    user\\gd32f10x_it.c                      0x00000000   Number         0  gd32f10x_it.o ABSOLUTE
    user\\main.c                             0x00000000   Number         0  main.o ABSOLUTE
    user\\system_gd32f10x.c                  0x00000000   Number         0  system_gd32f10x.o ABSOLUTE
    user\gd32f10x_it.c                       0x00000000   Number         0  gd32f10x_it.o ABSOLUTE
    user\main.c                              0x00000000   Number         0  main.o ABSOLUTE
    user\startup_gd32f10x_xd.s               0x00000000   Number         0  startup_gd32f10x_xd.o ABSOLUTE
    user\system_gd32f10x.c                   0x00000000   Number         0  system_gd32f10x.o ABSOLUTE
    RESET                                    0x08000000   Section      304  startup_gd32f10x_xd.o(RESET)
    .ARM.Collect$$$$00000000                 0x08000130   Section        0  entry.o(.ARM.Collect$$$$00000000)
    .ARM.Collect$$$$00000001                 0x08000130   Section        4  entry2.o(.ARM.Collect$$$$00000001)
    .ARM.Collect$$$$00000004                 0x08000134   Section        4  entry5.o(.ARM.Collect$$$$00000004)
    .ARM.Collect$$$$00000008                 0x08000138   Section        0  entry7b.o(.ARM.Collect$$$$00000008)
    .ARM.Collect$$$$0000000A                 0x08000138   Section        0  entry8b.o(.ARM.Collect$$$$0000000A)
    .ARM.Collect$$$$0000000B                 0x08000138   Section        8  entry9a.o(.ARM.Collect$$$$0000000B)
    .ARM.Collect$$$$0000000D                 0x08000140   Section        0  entry10a.o(.ARM.Collect$$$$0000000D)
    .ARM.Collect$$$$0000000F                 0x08000140   Section        0  entry11a.o(.ARM.Collect$$$$0000000F)
    .ARM.Collect$$$$00002712                 0x08000140   Section        4  entry2.o(.ARM.Collect$$$$00002712)
    __lit__00000000                          0x08000140   Data           4  entry2.o(.ARM.Collect$$$$00002712)
    .text                                    0x08000144   Section       36  startup_gd32f10x_xd.o(.text)
    .text                                    0x08000168   Section        0  fadd.o(.text)
    .text                                    0x08000218   Section        0  fmul.o(.text)
    .text                                    0x0800027c   Section        0  dmul.o(.text)
    .text                                    0x08000360   Section        0  ddiv.o(.text)
    .text                                    0x0800043e   Section        0  fflti.o(.text)
    .text                                    0x08000450   Section        0  ffltui.o(.text)
    .text                                    0x0800045a   Section        0  ffixi.o(.text)
    .text                                    0x0800048c   Section        0  ffixui.o(.text)
    .text                                    0x080004b4   Section        0  f2d.o(.text)
    .text                                    0x080004da   Section        0  d2f.o(.text)
    .text                                    0x08000512   Section        0  iusefp.o(.text)
    .text                                    0x08000512   Section        0  fepilogue.o(.text)
    .text                                    0x08000580   Section        0  depilogue.o(.text)
    .text                                    0x0800063c   Section       36  init.o(.text)
    .text                                    0x08000660   Section        0  llshl.o(.text)
    .text                                    0x0800067e   Section        0  llushr.o(.text)
    i.BusFault_Handler                       0x0800069e   Section        0  gd32f10x_it.o(i.BusFault_Handler)
    i.DebugMon_Handler                       0x080006a2   Section        0  gd32f10x_it.o(i.DebugMon_Handler)
    i.HardFault_Handler                      0x080006a4   Section        0  gd32f10x_it.o(i.HardFault_Handler)
    i.MDInitQueue                            0x080006a8   Section        0  md_rtu_queue.o(i.MDInitQueue)
    i.MDQueueLength                          0x080006c2   Section        0  md_rtu_queue.o(i.MDQueueLength)
    i.MDResetQueue                           0x080006e4   Section        0  md_rtu_queue.o(i.MDResetQueue)
    i.MDSAPPWriteFunciton                    0x080006f4   Section        0  mds_rtu_app.o(i.MDSAPPWriteFunciton)
    MDSAPPWriteFunciton                      0x080006f5   Thumb Code   114  mds_rtu_app.o(i.MDSAPPWriteFunciton)
    i.MDSInitSerial                          0x0800076c   Section        0  mds_rtu_serial.o(i.MDSInitSerial)
    i.MDSSerialRecvByte                      0x080007ac   Section        0  mds_rtu_serial.o(i.MDSSerialRecvByte)
    i.MDSSerialSWRecv_Send                   0x080007d0   Section        0  mds_rtu_serial.o(i.MDSSerialSWRecv_Send)
    MDSSerialSWRecv_Send                     0x080007d1   Thumb Code    18  mds_rtu_serial.o(i.MDSSerialSWRecv_Send)
    i.MDSSerialSendBytes                     0x080007e8   Section        0  mds_rtu_serial.o(i.MDSSerialSendBytes)
    MDSSerialSendBytes                       0x080007e9   Thumb Code    16  mds_rtu_serial.o(i.MDSSerialSendBytes)
    i.MDSTimeHandler100US                    0x080007f8   Section        0  mds_rtu_serial.o(i.MDSTimeHandler100US)
    i.MDS_RTU_APPInit                        0x0800081c   Section        0  mds_rtu_app.o(i.MDS_RTU_APPInit)
    i.MDS_RTU_AddMapItem                     0x080008b4   Section        0  mds_rtu_fun.o(i.MDS_RTU_AddMapItem)
    i.MDS_RTU_Init                           0x080008d0   Section        0  mds_rtu_fun.o(i.MDS_RTU_Init)
    i.MDS_RTU_Loop                           0x08000a2c   Section        0  mds_rtu_app.o(i.MDS_RTU_Loop)
    i.MDS_RTU_Process                        0x08000a40   Section        0  mds_rtu_fun.o(i.MDS_RTU_Process)
    i.MDS_RTU_QueueInit                      0x08000b98   Section        0  mds_rtu_fun.o(i.MDS_RTU_QueueInit)
    i.MDS_RTU_ReadBits                       0x08000bca   Section        0  mds_rtu_user_fun.o(i.MDS_RTU_ReadBits)
    i.MDS_RTU_ReadCoils                      0x08000d00   Section        0  mds_rtu_user_fun.o(i.MDS_RTU_ReadCoils)
    i.MDS_RTU_ReadDataProcess                0x08000d1c   Section        0  mds_rtu_fun.o(i.MDS_RTU_ReadDataProcess)
    i.MDS_RTU_ReadHoldRegs                   0x080010ea   Section        0  mds_rtu_user_fun.o(i.MDS_RTU_ReadHoldRegs)
    i.MDS_RTU_ReadRegs                       0x08001106   Section        0  mds_rtu_user_fun.o(i.MDS_RTU_ReadRegs)
    i.MDS_RTU_RecvByte                       0x080011b8   Section        0  mds_rtu_fun.o(i.MDS_RTU_RecvByte)
    i.MDS_RTU_SendErrorCode                  0x080011fe   Section        0  mds_rtu_fun.o(i.MDS_RTU_SendErrorCode)
    MDS_RTU_SendErrorCode                    0x080011ff   Thumb Code   194  mds_rtu_fun.o(i.MDS_RTU_SendErrorCode)
    i.MDS_RTU_SerialProcess                  0x080012c0   Section        0  mds_rtu_fun.o(i.MDS_RTU_SerialProcess)
    MDS_RTU_SerialProcess                    0x080012c1   Thumb Code   220  mds_rtu_fun.o(i.MDS_RTU_SerialProcess)
    i.MDS_RTU_SetWriteListenFun              0x0800139c   Section        0  mds_rtu_fun.o(i.MDS_RTU_SetWriteListenFun)
    i.MDS_RTU_TimeHandler                    0x080013a6   Section        0  mds_rtu_fun.o(i.MDS_RTU_TimeHandler)
    i.MDS_RTU_UserUpdate                     0x08001484   Section        0  mds_rtu_app.o(i.MDS_RTU_UserUpdate)
    MDS_RTU_UserUpdate                       0x08001485   Thumb Code    52  mds_rtu_app.o(i.MDS_RTU_UserUpdate)
    i.MDS_RTU_WriteBit                       0x080014c0   Section        0  mds_rtu_user_fun.o(i.MDS_RTU_WriteBit)
    i.MDS_RTU_WriteBits                      0x080015e0   Section        0  mds_rtu_user_fun.o(i.MDS_RTU_WriteBits)
    i.MDS_RTU_WriteCoils                     0x0800174a   Section        0  mds_rtu_user_fun.o(i.MDS_RTU_WriteCoils)
    i.MDS_RTU_WriteDataProcess               0x08001766   Section        0  mds_rtu_fun.o(i.MDS_RTU_WriteDataProcess)
    i.MDS_RTU_WriteHoldReg                   0x08001d0a   Section        0  mds_rtu_user_fun.o(i.MDS_RTU_WriteHoldReg)
    i.MDS_RTU_WriteHoldRegs                  0x08001d20   Section        0  mds_rtu_user_fun.o(i.MDS_RTU_WriteHoldRegs)
    i.MDS_RTU_WriteReg                       0x08001d40   Section        0  mds_rtu_user_fun.o(i.MDS_RTU_WriteReg)
    i.MDS_RTU_WriteRegs                      0x08001dd4   Section        0  mds_rtu_user_fun.o(i.MDS_RTU_WriteRegs)
    i.MD_CRC16Update                         0x08001ea8   Section        0  md_rtu_crc16.o(i.MD_CRC16Update)
    i.MDdeQueue                              0x08001ec0   Section        0  md_rtu_queue.o(i.MDdeQueue)
    i.MDenQueue                              0x08001f46   Section        0  md_rtu_queue.o(i.MDenQueue)
    i.MapTableAdd                            0x08001fd0   Section        0  md_rtu_maptable.o(i.MapTableAdd)
    i.MemManage_Handler                      0x08002000   Section        0  gd32f10x_it.o(i.MemManage_Handler)
    i.NMI_Handler                            0x08002004   Section        0  gd32f10x_it.o(i.NMI_Handler)
    i.PendSV_Handler                         0x08002006   Section        0  gd32f10x_it.o(i.PendSV_Handler)
    i.RS485RWConvInit                        0x08002008   Section        0  usart3.o(i.RS485RWConvInit)
    i.SVC_Handler                            0x0800202c   Section        0  gd32f10x_it.o(i.SVC_Handler)
    i.SystemInit                             0x08002030   Section        0  system_gd32f10x.o(i.SystemInit)
    i.TIM3_Int_Init                          0x08002104   Section        0  tim3.o(i.TIM3_Int_Init)
    i.TIMER5_IRQHandler                      0x08002148   Section        0  tim3.o(i.TIMER5_IRQHandler)
    i.USART1_IRQHandler                      0x08002178   Section        0  usart3.o(i.USART1_IRQHandler)
    i.UsageFault_Handler                     0x080021a0   Section        0  gd32f10x_it.o(i.UsageFault_Handler)
    i.__scatterload_copy                     0x080021a4   Section       14  handlers.o(i.__scatterload_copy)
    i.__scatterload_null                     0x080021b2   Section        2  handlers.o(i.__scatterload_null)
    i.__scatterload_zeroinit                 0x080021b4   Section       14  handlers.o(i.__scatterload_zeroinit)
    i.gpio_bit_reset                         0x080021c2   Section        0  gd32f10x_gpio.o(i.gpio_bit_reset)
    i.gpio_init                              0x080021c6   Section        0  gd32f10x_gpio.o(i.gpio_init)
    i.init_usart3                            0x08002274   Section        0  usart3.o(i.init_usart3)
    i.main                                   0x08002308   Section        0  main.o(i.main)
    i.nvic_irq_enable                        0x08002324   Section        0  gd32f10x_misc.o(i.nvic_irq_enable)
    i.nvic_priority_group_set                0x080023d0   Section        0  gd32f10x_misc.o(i.nvic_priority_group_set)
    i.nvic_vector_table_set                  0x080023e4   Section        0  gd32f10x_misc.o(i.nvic_vector_table_set)
    i.rcu_clock_freq_get                     0x080023fc   Section        0  gd32f10x_rcu.o(i.rcu_clock_freq_get)
    i.rcu_periph_clock_enable                0x08002520   Section        0  gd32f10x_rcu.o(i.rcu_periph_clock_enable)
    i.system_clock_96m_hxtal                 0x08002540   Section        0  system_gd32f10x.o(i.system_clock_96m_hxtal)
    system_clock_96m_hxtal                   0x08002541   Thumb Code   180  system_gd32f10x.o(i.system_clock_96m_hxtal)
    i.system_clock_config                    0x080025fc   Section        0  system_gd32f10x.o(i.system_clock_config)
    system_clock_config                      0x080025fd   Thumb Code     8  system_gd32f10x.o(i.system_clock_config)
    i.timer_enable                           0x08002604   Section        0  gd32f10x_timer.o(i.timer_enable)
    i.timer_init                             0x08002610   Section        0  gd32f10x_timer.o(i.timer_init)
    i.timer_interrupt_enable                 0x080026f0   Section        0  gd32f10x_timer.o(i.timer_interrupt_enable)
    i.timer_interrupt_flag_clear             0x080026f8   Section        0  gd32f10x_timer.o(i.timer_interrupt_flag_clear)
    i.timer_interrupt_flag_get               0x080026fe   Section        0  gd32f10x_timer.o(i.timer_interrupt_flag_get)
    i.usart3_send_byte                       0x08002718   Section        0  usart3.o(i.usart3_send_byte)
    i.usart3_send_bytes                      0x08002748   Section        0  usart3.o(i.usart3_send_bytes)
    i.usart_baudrate_set                     0x08002760   Section        0  gd32f10x_usart.o(i.usart_baudrate_set)
    i.usart_data_receive                     0x080027f0   Section        0  gd32f10x_usart.o(i.usart_data_receive)
    i.usart_data_transmit                    0x080027fa   Section        0  gd32f10x_usart.o(i.usart_data_transmit)
    i.usart_enable                           0x08002802   Section        0  gd32f10x_usart.o(i.usart_enable)
    i.usart_flag_get                         0x0800280c   Section        0  gd32f10x_usart.o(i.usart_flag_get)
    i.usart_hardware_flow_cts_config         0x0800282a   Section        0  gd32f10x_usart.o(i.usart_hardware_flow_cts_config)
    i.usart_hardware_flow_rts_config         0x0800283a   Section        0  gd32f10x_usart.o(i.usart_hardware_flow_rts_config)
    i.usart_interrupt_enable                 0x0800284a   Section        0  gd32f10x_usart.o(i.usart_interrupt_enable)
    i.usart_interrupt_flag_get               0x08002864   Section        0  gd32f10x_usart.o(i.usart_interrupt_flag_get)
    i.usart_parity_config                    0x0800289c   Section        0  gd32f10x_usart.o(i.usart_parity_config)
    i.usart_receive_config                   0x080028ac   Section        0  gd32f10x_usart.o(i.usart_receive_config)
    i.usart_stop_bit_set                     0x080028bc   Section        0  gd32f10x_usart.o(i.usart_stop_bit_set)
    i.usart_transmit_config                  0x080028cc   Section        0  gd32f10x_usart.o(i.usart_transmit_config)
    i.usart_word_length_set                  0x080028dc   Section        0  gd32f10x_usart.o(i.usart_word_length_set)
    .constdata                               0x080028ec   Section      512  md_rtu_crc16.o(.constdata)
    crc16_table                              0x080028ec   Data         512  md_rtu_crc16.o(.constdata)
    .constdata                               0x08002aec   Section       10  mds_rtu_app.o(.constdata)
    .data                                    0x20000000   Section      192  mds_rtu_app.o(.data)
    mapTableData0                            0x20000000   Data          64  mds_rtu_app.o(.data)
    mapTableItem0                            0x20000040   Data          12  mds_rtu_app.o(.data)
    mapTableData2                            0x2000004c   Data          64  mds_rtu_app.o(.data)
    mapTableItem2                            0x2000008c   Data          12  mds_rtu_app.o(.data)
    mapTableData1                            0x20000098   Data           8  mds_rtu_app.o(.data)
    mapTableItem1                            0x200000a0   Data          12  mds_rtu_app.o(.data)
    mapTableData3                            0x200000ac   Data           8  mds_rtu_app.o(.data)
    mapTableItem3                            0x200000b4   Data          12  mds_rtu_app.o(.data)
    .data                                    0x200000c0   Section        4  mds_rtu_serial.o(.data)
    .data                                    0x200000c4   Section        4  tim3.o(.data)
    .bss                                     0x200000c8   Section     1176  mds_rtu_app.o(.bss)
    MDSRecvQueueData                         0x200000c8   Data         257  mds_rtu_app.o(.bss)
    MDSMsgProcessQueueData                   0x200001c9   Data         257  mds_rtu_app.o(.bss)
    modbusS_RTU                              0x200002cc   Data         660  mds_rtu_app.o(.bss)
    STACK                                    0x20000560   Section     1024  startup_gd32f10x_xd.o(STACK)

    Global Symbols

    Symbol Name                              Value     Ov Type        Size  Object(Section)

    BuildAttributes$$THM_ISAv4$P$D$K$B$S$PE$A:L22UL41UL21$X:L11$S22US41US21$IEEE1$IW$USESV6$~STKCKD$USESV7$~SHL$OTIME$ROPI$EBA8$MICROLIB$REQ8$PRES8$EABIv2 0x00000000   Number         0  anon$$obj.o ABSOLUTE
    __ARM_use_no_argv                        0x00000000   Number         0  main.o ABSOLUTE
    __cpp_initialize__aeabi_                  - Undefined Weak Reference
    __cxa_finalize                            - Undefined Weak Reference
    __decompress                              - Undefined Weak Reference
    _clock_init                               - Undefined Weak Reference
    _microlib_exit                            - Undefined Weak Reference
    __Vectors_Size                           0x00000130   Number         0  startup_gd32f10x_xd.o ABSOLUTE
    __Vectors                                0x08000000   Data           4  startup_gd32f10x_xd.o(RESET)
    __Vectors_End                            0x08000130   Data           0  startup_gd32f10x_xd.o(RESET)
    __main                                   0x08000131   Thumb Code     0  entry.o(.ARM.Collect$$$$00000000)
    _main_stk                                0x08000131   Thumb Code     0  entry2.o(.ARM.Collect$$$$00000001)
    _main_scatterload                        0x08000135   Thumb Code     0  entry5.o(.ARM.Collect$$$$00000004)
    __main_after_scatterload                 0x08000139   Thumb Code     0  entry5.o(.ARM.Collect$$$$00000004)
    _main_clock                              0x08000139   Thumb Code     0  entry7b.o(.ARM.Collect$$$$00000008)
    _main_cpp_init                           0x08000139   Thumb Code     0  entry8b.o(.ARM.Collect$$$$0000000A)
    _main_init                               0x08000139   Thumb Code     0  entry9a.o(.ARM.Collect$$$$0000000B)
    __rt_final_cpp                           0x08000141   Thumb Code     0  entry10a.o(.ARM.Collect$$$$0000000D)
    __rt_final_exit                          0x08000141   Thumb Code     0  entry11a.o(.ARM.Collect$$$$0000000F)
    Reset_Handler                            0x08000145   Thumb Code     8  startup_gd32f10x_xd.o(.text)
    SysTick_Handler                          0x0800015d   Thumb Code     2  startup_gd32f10x_xd.o(.text)
    ADC0_1_IRQHandler                        0x0800015f   Thumb Code     0  startup_gd32f10x_xd.o(.text)
    ADC2_IRQHandler                          0x0800015f   Thumb Code     0  startup_gd32f10x_xd.o(.text)
    CAN0_EWMC_IRQHandler                     0x0800015f   Thumb Code     0  startup_gd32f10x_xd.o(.text)
    CAN0_RX1_IRQHandler                      0x0800015f   Thumb Code     0  startup_gd32f10x_xd.o(.text)
    DMA0_Channel0_IRQHandler                 0x0800015f   Thumb Code     0  startup_gd32f10x_xd.o(.text)
    DMA0_Channel1_IRQHandler                 0x0800015f   Thumb Code     0  startup_gd32f10x_xd.o(.text)
    DMA0_Channel2_IRQHandler                 0x0800015f   Thumb Code     0  startup_gd32f10x_xd.o(.text)
    DMA0_Channel3_IRQHandler                 0x0800015f   Thumb Code     0  startup_gd32f10x_xd.o(.text)
    DMA0_Channel4_IRQHandler                 0x0800015f   Thumb Code     0  startup_gd32f10x_xd.o(.text)
    DMA0_Channel5_IRQHandler                 0x0800015f   Thumb Code     0  startup_gd32f10x_xd.o(.text)
    DMA0_Channel6_IRQHandler                 0x0800015f   Thumb Code     0  startup_gd32f10x_xd.o(.text)
    DMA1_Channel0_IRQHandler                 0x0800015f   Thumb Code     0  startup_gd32f10x_xd.o(.text)
    DMA1_Channel1_IRQHandler                 0x0800015f   Thumb Code     0  startup_gd32f10x_xd.o(.text)
    DMA1_Channel2_IRQHandler                 0x0800015f   Thumb Code     0  startup_gd32f10x_xd.o(.text)
    DMA1_Channel3_4_IRQHandler               0x0800015f   Thumb Code     0  startup_gd32f10x_xd.o(.text)
    EXMC_IRQHandler                          0x0800015f   Thumb Code     0  startup_gd32f10x_xd.o(.text)
    EXTI0_IRQHandler                         0x0800015f   Thumb Code     0  startup_gd32f10x_xd.o(.text)
    EXTI10_15_IRQHandler                     0x0800015f   Thumb Code     0  startup_gd32f10x_xd.o(.text)
    EXTI1_IRQHandler                         0x0800015f   Thumb Code     0  startup_gd32f10x_xd.o(.text)
    EXTI2_IRQHandler                         0x0800015f   Thumb Code     0  startup_gd32f10x_xd.o(.text)
    EXTI3_IRQHandler                         0x0800015f   Thumb Code     0  startup_gd32f10x_xd.o(.text)
    EXTI4_IRQHandler                         0x0800015f   Thumb Code     0  startup_gd32f10x_xd.o(.text)
    EXTI5_9_IRQHandler                       0x0800015f   Thumb Code     0  startup_gd32f10x_xd.o(.text)
    FMC_IRQHandler                           0x0800015f   Thumb Code     0  startup_gd32f10x_xd.o(.text)
    I2C0_ER_IRQHandler                       0x0800015f   Thumb Code     0  startup_gd32f10x_xd.o(.text)
    I2C0_EV_IRQHandler                       0x0800015f   Thumb Code     0  startup_gd32f10x_xd.o(.text)
    I2C1_ER_IRQHandler                       0x0800015f   Thumb Code     0  startup_gd32f10x_xd.o(.text)
    I2C1_EV_IRQHandler                       0x0800015f   Thumb Code     0  startup_gd32f10x_xd.o(.text)
    LVD_IRQHandler                           0x0800015f   Thumb Code     0  startup_gd32f10x_xd.o(.text)
    RCU_IRQHandler                           0x0800015f   Thumb Code     0  startup_gd32f10x_xd.o(.text)
    RTC_Alarm_IRQHandler                     0x0800015f   Thumb Code     0  startup_gd32f10x_xd.o(.text)
    RTC_IRQHandler                           0x0800015f   Thumb Code     0  startup_gd32f10x_xd.o(.text)
    SDIO_IRQHandler                          0x0800015f   Thumb Code     0  startup_gd32f10x_xd.o(.text)
    SPI0_IRQHandler                          0x0800015f   Thumb Code     0  startup_gd32f10x_xd.o(.text)
    SPI1_IRQHandler                          0x0800015f   Thumb Code     0  startup_gd32f10x_xd.o(.text)
    SPI2_IRQHandler                          0x0800015f   Thumb Code     0  startup_gd32f10x_xd.o(.text)
    TAMPER_IRQHandler                        0x0800015f   Thumb Code     0  startup_gd32f10x_xd.o(.text)
    TIMER0_BRK_TIMER8_IRQHandler             0x0800015f   Thumb Code     0  startup_gd32f10x_xd.o(.text)
    TIMER0_Channel_IRQHandler                0x0800015f   Thumb Code     0  startup_gd32f10x_xd.o(.text)
    TIMER0_TRG_CMT_TIMER10_IRQHandler        0x0800015f   Thumb Code     0  startup_gd32f10x_xd.o(.text)
    TIMER0_UP_TIMER9_IRQHandler              0x0800015f   Thumb Code     0  startup_gd32f10x_xd.o(.text)
    TIMER1_IRQHandler                        0x0800015f   Thumb Code     0  startup_gd32f10x_xd.o(.text)
    TIMER2_IRQHandler                        0x0800015f   Thumb Code     0  startup_gd32f10x_xd.o(.text)
    TIMER3_IRQHandler                        0x0800015f   Thumb Code     0  startup_gd32f10x_xd.o(.text)
    TIMER4_IRQHandler                        0x0800015f   Thumb Code     0  startup_gd32f10x_xd.o(.text)
    TIMER6_IRQHandler                        0x0800015f   Thumb Code     0  startup_gd32f10x_xd.o(.text)
    TIMER7_BRK_TIMER11_IRQHandler            0x0800015f   Thumb Code     0  startup_gd32f10x_xd.o(.text)
    TIMER7_Channel_IRQHandler                0x0800015f   Thumb Code     0  startup_gd32f10x_xd.o(.text)
    TIMER7_TRG_CMT_TIMER13_IRQHandler        0x0800015f   Thumb Code     0  startup_gd32f10x_xd.o(.text)
    TIMER7_UP_TIMER12_IRQHandler             0x0800015f   Thumb Code     0  startup_gd32f10x_xd.o(.text)
    UART3_IRQHandler                         0x0800015f   Thumb Code     0  startup_gd32f10x_xd.o(.text)
    UART4_IRQHandler                         0x0800015f   Thumb Code     0  startup_gd32f10x_xd.o(.text)
    USART0_IRQHandler                        0x0800015f   Thumb Code     0  startup_gd32f10x_xd.o(.text)
    USART2_IRQHandler                        0x0800015f   Thumb Code     0  startup_gd32f10x_xd.o(.text)
    USBD_HP_CAN0_TX_IRQHandler               0x0800015f   Thumb Code     0  startup_gd32f10x_xd.o(.text)
    USBD_LP_CAN0_RX0_IRQHandler              0x0800015f   Thumb Code     0  startup_gd32f10x_xd.o(.text)
    USBD_WKUP_IRQHandler                     0x0800015f   Thumb Code     0  startup_gd32f10x_xd.o(.text)
    WWDGT_IRQHandler                         0x0800015f   Thumb Code     0  startup_gd32f10x_xd.o(.text)
    __aeabi_fadd                             0x08000169   Thumb Code   164  fadd.o(.text)
    __aeabi_fsub                             0x0800020d   Thumb Code     6  fadd.o(.text)
    __aeabi_frsub                            0x08000213   Thumb Code     6  fadd.o(.text)
    __aeabi_fmul                             0x08000219   Thumb Code   100  fmul.o(.text)
    __aeabi_dmul                             0x0800027d   Thumb Code   228  dmul.o(.text)
    __aeabi_ddiv                             0x08000361   Thumb Code   222  ddiv.o(.text)
    __aeabi_i2f                              0x0800043f   Thumb Code    18  fflti.o(.text)
    __aeabi_ui2f                             0x08000451   Thumb Code    10  ffltui.o(.text)
    __aeabi_f2iz                             0x0800045b   Thumb Code    50  ffixi.o(.text)
    __aeabi_f2uiz                            0x0800048d   Thumb Code    40  ffixui.o(.text)
    __aeabi_f2d                              0x080004b5   Thumb Code    38  f2d.o(.text)
    __aeabi_d2f                              0x080004db   Thumb Code    56  d2f.o(.text)
    __I$use$fp                               0x08000513   Thumb Code     0  iusefp.o(.text)
    _float_round                             0x08000513   Thumb Code    18  fepilogue.o(.text)
    _float_epilogue                          0x08000525   Thumb Code    92  fepilogue.o(.text)
    _double_round                            0x08000581   Thumb Code    30  depilogue.o(.text)
    _double_epilogue                         0x0800059f   Thumb Code   156  depilogue.o(.text)
    __scatterload                            0x0800063d   Thumb Code    28  init.o(.text)
    __scatterload_rt2                        0x0800063d   Thumb Code     0  init.o(.text)
    __aeabi_llsl                             0x08000661   Thumb Code    30  llshl.o(.text)
    _ll_shift_l                              0x08000661   Thumb Code     0  llshl.o(.text)
    __aeabi_llsr                             0x0800067f   Thumb Code    32  llushr.o(.text)
    _ll_ushift_r                             0x0800067f   Thumb Code     0  llushr.o(.text)
    BusFault_Handler                         0x0800069f   Thumb Code     4  gd32f10x_it.o(i.BusFault_Handler)
    DebugMon_Handler                         0x080006a3   Thumb Code     2  gd32f10x_it.o(i.DebugMon_Handler)
    HardFault_Handler                        0x080006a5   Thumb Code     4  gd32f10x_it.o(i.HardFault_Handler)
    MDInitQueue                              0x080006a9   Thumb Code    26  md_rtu_queue.o(i.MDInitQueue)
    MDQueueLength                            0x080006c3   Thumb Code    34  md_rtu_queue.o(i.MDQueueLength)
    MDResetQueue                             0x080006e5   Thumb Code    14  md_rtu_queue.o(i.MDResetQueue)
    MDSInitSerial                            0x0800076d   Thumb Code    50  mds_rtu_serial.o(i.MDSInitSerial)
    MDSSerialRecvByte                        0x080007ad   Thumb Code    30  mds_rtu_serial.o(i.MDSSerialRecvByte)
    MDSTimeHandler100US                      0x080007f9   Thumb Code    30  mds_rtu_serial.o(i.MDSTimeHandler100US)
    MDS_RTU_APPInit                          0x0800081d   Thumb Code   114  mds_rtu_app.o(i.MDS_RTU_APPInit)
    MDS_RTU_AddMapItem                       0x080008b5   Thumb Code    28  mds_rtu_fun.o(i.MDS_RTU_AddMapItem)
    MDS_RTU_Init                             0x080008d1   Thumb Code   332  mds_rtu_fun.o(i.MDS_RTU_Init)
    MDS_RTU_Loop                             0x08000a2d   Thumb Code    14  mds_rtu_app.o(i.MDS_RTU_Loop)
    MDS_RTU_Process                          0x08000a41   Thumb Code   344  mds_rtu_fun.o(i.MDS_RTU_Process)
    MDS_RTU_QueueInit                        0x08000b99   Thumb Code    50  mds_rtu_fun.o(i.MDS_RTU_QueueInit)
    MDS_RTU_ReadBits                         0x08000bcb   Thumb Code   310  mds_rtu_user_fun.o(i.MDS_RTU_ReadBits)
    MDS_RTU_ReadCoils                        0x08000d01   Thumb Code    28  mds_rtu_user_fun.o(i.MDS_RTU_ReadCoils)
    MDS_RTU_ReadDataProcess                  0x08000d1d   Thumb Code   974  mds_rtu_fun.o(i.MDS_RTU_ReadDataProcess)
    MDS_RTU_ReadHoldRegs                     0x080010eb   Thumb Code    28  mds_rtu_user_fun.o(i.MDS_RTU_ReadHoldRegs)
    MDS_RTU_ReadRegs                         0x08001107   Thumb Code   178  mds_rtu_user_fun.o(i.MDS_RTU_ReadRegs)
    MDS_RTU_RecvByte                         0x080011b9   Thumb Code    70  mds_rtu_fun.o(i.MDS_RTU_RecvByte)
    MDS_RTU_SetWriteListenFun                0x0800139d   Thumb Code    10  mds_rtu_fun.o(i.MDS_RTU_SetWriteListenFun)
    MDS_RTU_TimeHandler                      0x080013a7   Thumb Code   220  mds_rtu_fun.o(i.MDS_RTU_TimeHandler)
    MDS_RTU_WriteBit                         0x080014c1   Thumb Code   288  mds_rtu_user_fun.o(i.MDS_RTU_WriteBit)
    MDS_RTU_WriteBits                        0x080015e1   Thumb Code   362  mds_rtu_user_fun.o(i.MDS_RTU_WriteBits)
    MDS_RTU_WriteCoils                       0x0800174b   Thumb Code    28  mds_rtu_user_fun.o(i.MDS_RTU_WriteCoils)
    MDS_RTU_WriteDataProcess                 0x08001767   Thumb Code  1444  mds_rtu_fun.o(i.MDS_RTU_WriteDataProcess)
    MDS_RTU_WriteHoldReg                     0x08001d0b   Thumb Code    22  mds_rtu_user_fun.o(i.MDS_RTU_WriteHoldReg)
    MDS_RTU_WriteHoldRegs                    0x08001d21   Thumb Code    32  mds_rtu_user_fun.o(i.MDS_RTU_WriteHoldRegs)
    MDS_RTU_WriteReg                         0x08001d41   Thumb Code   148  mds_rtu_user_fun.o(i.MDS_RTU_WriteReg)
    MDS_RTU_WriteRegs                        0x08001dd5   Thumb Code   212  mds_rtu_user_fun.o(i.MDS_RTU_WriteRegs)
    MD_CRC16Update                           0x08001ea9   Thumb Code    20  md_rtu_crc16.o(i.MD_CRC16Update)
    MDdeQueue                                0x08001ec1   Thumb Code   134  md_rtu_queue.o(i.MDdeQueue)
    MDenQueue                                0x08001f47   Thumb Code   138  md_rtu_queue.o(i.MDenQueue)
    MapTableAdd                              0x08001fd1   Thumb Code    48  md_rtu_maptable.o(i.MapTableAdd)
    MemManage_Handler                        0x08002001   Thumb Code     4  gd32f10x_it.o(i.MemManage_Handler)
    NMI_Handler                              0x08002005   Thumb Code     2  gd32f10x_it.o(i.NMI_Handler)
    PendSV_Handler                           0x08002007   Thumb Code     2  gd32f10x_it.o(i.PendSV_Handler)
    RS485RWConvInit                          0x08002009   Thumb Code    32  usart3.o(i.RS485RWConvInit)
    SVC_Handler                              0x0800202d   Thumb Code     2  gd32f10x_it.o(i.SVC_Handler)
    SystemInit                               0x08002031   Thumb Code   196  system_gd32f10x.o(i.SystemInit)
    TIM3_Int_Init                            0x08002105   Thumb Code    64  tim3.o(i.TIM3_Int_Init)
    TIMER5_IRQHandler                        0x08002149   Thumb Code    40  tim3.o(i.TIMER5_IRQHandler)
    USART1_IRQHandler                        0x08002179   Thumb Code    30  usart3.o(i.USART1_IRQHandler)
    UsageFault_Handler                       0x080021a1   Thumb Code     4  gd32f10x_it.o(i.UsageFault_Handler)
    __scatterload_copy                       0x080021a5   Thumb Code    14  handlers.o(i.__scatterload_copy)
    __scatterload_null                       0x080021b3   Thumb Code     2  handlers.o(i.__scatterload_null)
    __scatterload_zeroinit                   0x080021b5   Thumb Code    14  handlers.o(i.__scatterload_zeroinit)
    gpio_bit_reset                           0x080021c3   Thumb Code     4  gd32f10x_gpio.o(i.gpio_bit_reset)
    gpio_init                                0x080021c7   Thumb Code   172  gd32f10x_gpio.o(i.gpio_init)
    init_usart3                              0x08002275   Thumb Code   140  usart3.o(i.init_usart3)
    main                                     0x08002309   Thumb Code    28  main.o(i.main)
    nvic_irq_enable                          0x08002325   Thumb Code   162  gd32f10x_misc.o(i.nvic_irq_enable)
    nvic_priority_group_set                  0x080023d1   Thumb Code    10  gd32f10x_misc.o(i.nvic_priority_group_set)
    nvic_vector_table_set                    0x080023e5   Thumb Code    16  gd32f10x_misc.o(i.nvic_vector_table_set)
    rcu_clock_freq_get                       0x080023fd   Thumb Code   264  gd32f10x_rcu.o(i.rcu_clock_freq_get)
    rcu_periph_clock_enable                  0x08002521   Thumb Code    28  gd32f10x_rcu.o(i.rcu_periph_clock_enable)
    timer_enable                             0x08002605   Thumb Code    10  gd32f10x_timer.o(i.timer_enable)
    timer_init                               0x08002611   Thumb Code   170  gd32f10x_timer.o(i.timer_init)
    timer_interrupt_enable                   0x080026f1   Thumb Code     8  gd32f10x_timer.o(i.timer_interrupt_enable)
    timer_interrupt_flag_clear               0x080026f9   Thumb Code     6  gd32f10x_timer.o(i.timer_interrupt_flag_clear)
    timer_interrupt_flag_get                 0x080026ff   Thumb Code    24  gd32f10x_timer.o(i.timer_interrupt_flag_get)
    usart3_send_byte                         0x08002719   Thumb Code    42  usart3.o(i.usart3_send_byte)
    usart3_send_bytes                        0x08002749   Thumb Code    24  usart3.o(i.usart3_send_bytes)
    usart_baudrate_set                       0x08002761   Thumb Code   136  gd32f10x_usart.o(i.usart_baudrate_set)
    usart_data_receive                       0x080027f1   Thumb Code    10  gd32f10x_usart.o(i.usart_data_receive)
    usart_data_transmit                      0x080027fb   Thumb Code     8  gd32f10x_usart.o(i.usart_data_transmit)
    usart_enable                             0x08002803   Thumb Code    10  gd32f10x_usart.o(i.usart_enable)
    usart_flag_get                           0x0800280d   Thumb Code    30  gd32f10x_usart.o(i.usart_flag_get)
    usart_hardware_flow_cts_config           0x0800282b   Thumb Code    16  gd32f10x_usart.o(i.usart_hardware_flow_cts_config)
    usart_hardware_flow_rts_config           0x0800283b   Thumb Code    16  gd32f10x_usart.o(i.usart_hardware_flow_rts_config)
    usart_interrupt_enable                   0x0800284b   Thumb Code    26  gd32f10x_usart.o(i.usart_interrupt_enable)
    usart_interrupt_flag_get                 0x08002865   Thumb Code    56  gd32f10x_usart.o(i.usart_interrupt_flag_get)
    usart_parity_config                      0x0800289d   Thumb Code    16  gd32f10x_usart.o(i.usart_parity_config)
    usart_receive_config                     0x080028ad   Thumb Code    16  gd32f10x_usart.o(i.usart_receive_config)
    usart_stop_bit_set                       0x080028bd   Thumb Code    16  gd32f10x_usart.o(i.usart_stop_bit_set)
    usart_transmit_config                    0x080028cd   Thumb Code    16  gd32f10x_usart.o(i.usart_transmit_config)
    usart_word_length_set                    0x080028dd   Thumb Code    16  gd32f10x_usart.o(i.usart_word_length_set)
    Region$$Table$$Base                      0x08002af8   Number         0  anon$$obj.o(Region$$Table)
    Region$$Table$$Limit                     0x08002b18   Number         0  anon$$obj.o(Region$$Table)
    pModbusBase                              0x200000c0   Data           4  mds_rtu_serial.o(.data)
    sys_tick_100us                           0x200000c4   Data           4  tim3.o(.data)
    __initial_sp                             0x20000960   Data           0  startup_gd32f10x_xd.o(STACK)



==============================================================================

Memory Map of the image

  Image Entry point : 0x08000131

  Load Region LR_IROM1 (Base: 0x08000000, Size: 0x00002be0, Max: 0x00300000, ABSOLUTE)

    Execution Region ER_IROM1 (Exec base: 0x08000000, Load base: 0x08000000, Size: 0x00002b18, Max: 0x00300000, ABSOLUTE)

    Exec Addr    Load Addr    Size         Type   Attr      Idx    E Section Name        Object

    0x08000000   0x08000000   0x00000130   Data   RO          283    RESET               startup_gd32f10x_xd.o
    0x08000130   0x08000130   0x00000000   Code   RO         4566  * .ARM.Collect$$$$00000000  mc_w.l(entry.o)
    0x08000130   0x08000130   0x00000004   Code   RO         4589    .ARM.Collect$$$$00000001  mc_w.l(entry2.o)
    0x08000134   0x08000134   0x00000004   Code   RO         4592    .ARM.Collect$$$$00000004  mc_w.l(entry5.o)
    0x08000138   0x08000138   0x00000000   Code   RO         4594    .ARM.Collect$$$$00000008  mc_w.l(entry7b.o)
    0x08000138   0x08000138   0x00000000   Code   RO         4596    .ARM.Collect$$$$0000000A  mc_w.l(entry8b.o)
    0x08000138   0x08000138   0x00000008   Code   RO         4597    .ARM.Collect$$$$0000000B  mc_w.l(entry9a.o)
    0x08000140   0x08000140   0x00000000   Code   RO         4599    .ARM.Collect$$$$0000000D  mc_w.l(entry10a.o)
    0x08000140   0x08000140   0x00000000   Code   RO         4601    .ARM.Collect$$$$0000000F  mc_w.l(entry11a.o)
    0x08000140   0x08000140   0x00000004   Code   RO         4590    .ARM.Collect$$$$00002712  mc_w.l(entry2.o)
    0x08000144   0x08000144   0x00000024   Code   RO          284    .text               startup_gd32f10x_xd.o
    0x08000168   0x08000168   0x000000b0   Code   RO         4569    .text               mf_w.l(fadd.o)
    0x08000218   0x08000218   0x00000064   Code   RO         4571    .text               mf_w.l(fmul.o)
    0x0800027c   0x0800027c   0x000000e4   Code   RO         4573    .text               mf_w.l(dmul.o)
    0x08000360   0x08000360   0x000000de   Code   RO         4575    .text               mf_w.l(ddiv.o)
    0x0800043e   0x0800043e   0x00000012   Code   RO         4577    .text               mf_w.l(fflti.o)
    0x08000450   0x08000450   0x0000000a   Code   RO         4579    .text               mf_w.l(ffltui.o)
    0x0800045a   0x0800045a   0x00000032   Code   RO         4581    .text               mf_w.l(ffixi.o)
    0x0800048c   0x0800048c   0x00000028   Code   RO         4583    .text               mf_w.l(ffixui.o)
    0x080004b4   0x080004b4   0x00000026   Code   RO         4585    .text               mf_w.l(f2d.o)
    0x080004da   0x080004da   0x00000038   Code   RO         4587    .text               mf_w.l(d2f.o)
    0x08000512   0x08000512   0x00000000   Code   RO         4603    .text               mc_w.l(iusefp.o)
    0x08000512   0x08000512   0x0000006e   Code   RO         4604    .text               mf_w.l(fepilogue.o)
    0x08000580   0x08000580   0x000000ba   Code   RO         4606    .text               mf_w.l(depilogue.o)
    0x0800063a   0x0800063a   0x00000002   PAD
    0x0800063c   0x0800063c   0x00000024   Code   RO         4608    .text               mc_w.l(init.o)
    0x08000660   0x08000660   0x0000001e   Code   RO         4610    .text               mc_w.l(llshl.o)
    0x0800067e   0x0800067e   0x00000020   Code   RO         4612    .text               mc_w.l(llushr.o)
    0x0800069e   0x0800069e   0x00000004   Code   RO            4    i.BusFault_Handler  gd32f10x_it.o
    0x080006a2   0x080006a2   0x00000002   Code   RO            5    i.DebugMon_Handler  gd32f10x_it.o
    0x080006a4   0x080006a4   0x00000004   Code   RO            6    i.HardFault_Handler  gd32f10x_it.o
    0x080006a8   0x080006a8   0x0000001a   Code   RO         4099    i.MDInitQueue       md_rtu_queue.o
    0x080006c2   0x080006c2   0x00000022   Code   RO         4101    i.MDQueueLength     md_rtu_queue.o
    0x080006e4   0x080006e4   0x0000000e   Code   RO         4102    i.MDResetQueue      md_rtu_queue.o
    0x080006f2   0x080006f2   0x00000002   PAD
    0x080006f4   0x080006f4   0x00000078   Code   RO         4187    i.MDSAPPWriteFunciton  mds_rtu_app.o
    0x0800076c   0x0800076c   0x00000040   Code   RO         4307    i.MDSInitSerial     mds_rtu_serial.o
    0x080007ac   0x080007ac   0x00000024   Code   RO         4308    i.MDSSerialRecvByte  mds_rtu_serial.o
    0x080007d0   0x080007d0   0x00000018   Code   RO         4309    i.MDSSerialSWRecv_Send  mds_rtu_serial.o
    0x080007e8   0x080007e8   0x00000010   Code   RO         4310    i.MDSSerialSendBytes  mds_rtu_serial.o
    0x080007f8   0x080007f8   0x00000024   Code   RO         4311    i.MDSTimeHandler100US  mds_rtu_serial.o
    0x0800081c   0x0800081c   0x00000098   Code   RO         4188    i.MDS_RTU_APPInit   mds_rtu_app.o
    0x080008b4   0x080008b4   0x0000001c   Code   RO         4234    i.MDS_RTU_AddMapItem  mds_rtu_fun.o
    0x080008d0   0x080008d0   0x0000015c   Code   RO         4235    i.MDS_RTU_Init      mds_rtu_fun.o
    0x08000a2c   0x08000a2c   0x00000014   Code   RO         4189    i.MDS_RTU_Loop      mds_rtu_app.o
    0x08000a40   0x08000a40   0x00000158   Code   RO         4236    i.MDS_RTU_Process   mds_rtu_fun.o
    0x08000b98   0x08000b98   0x00000032   Code   RO         4237    i.MDS_RTU_QueueInit  mds_rtu_fun.o
    0x08000bca   0x08000bca   0x00000136   Code   RO         4356    i.MDS_RTU_ReadBits  mds_rtu_user_fun.o
    0x08000d00   0x08000d00   0x0000001c   Code   RO         4357    i.MDS_RTU_ReadCoils  mds_rtu_user_fun.o
    0x08000d1c   0x08000d1c   0x000003ce   Code   RO         4238    i.MDS_RTU_ReadDataProcess  mds_rtu_fun.o
    0x080010ea   0x080010ea   0x0000001c   Code   RO         4358    i.MDS_RTU_ReadHoldRegs  mds_rtu_user_fun.o
    0x08001106   0x08001106   0x000000b2   Code   RO         4361    i.MDS_RTU_ReadRegs  mds_rtu_user_fun.o
    0x080011b8   0x080011b8   0x00000046   Code   RO         4239    i.MDS_RTU_RecvByte  mds_rtu_fun.o
    0x080011fe   0x080011fe   0x000000c2   Code   RO         4240    i.MDS_RTU_SendErrorCode  mds_rtu_fun.o
    0x080012c0   0x080012c0   0x000000dc   Code   RO         4241    i.MDS_RTU_SerialProcess  mds_rtu_fun.o
    0x0800139c   0x0800139c   0x0000000a   Code   RO         4242    i.MDS_RTU_SetWriteListenFun  mds_rtu_fun.o
    0x080013a6   0x080013a6   0x000000dc   Code   RO         4243    i.MDS_RTU_TimeHandler  mds_rtu_fun.o
    0x08001482   0x08001482   0x00000002   PAD
    0x08001484   0x08001484   0x0000003c   Code   RO         4190    i.MDS_RTU_UserUpdate  mds_rtu_app.o
    0x080014c0   0x080014c0   0x00000120   Code   RO         4362    i.MDS_RTU_WriteBit  mds_rtu_user_fun.o
    0x080015e0   0x080015e0   0x0000016a   Code   RO         4363    i.MDS_RTU_WriteBits  mds_rtu_user_fun.o
    0x0800174a   0x0800174a   0x0000001c   Code   RO         4365    i.MDS_RTU_WriteCoils  mds_rtu_user_fun.o
    0x08001766   0x08001766   0x000005a4   Code   RO         4244    i.MDS_RTU_WriteDataProcess  mds_rtu_fun.o
    0x08001d0a   0x08001d0a   0x00000016   Code   RO         4366    i.MDS_RTU_WriteHoldReg  mds_rtu_user_fun.o
    0x08001d20   0x08001d20   0x00000020   Code   RO         4367    i.MDS_RTU_WriteHoldRegs  mds_rtu_user_fun.o
    0x08001d40   0x08001d40   0x00000094   Code   RO         4372    i.MDS_RTU_WriteReg  mds_rtu_user_fun.o
    0x08001dd4   0x08001dd4   0x000000d4   Code   RO         4373    i.MDS_RTU_WriteRegs  mds_rtu_user_fun.o
    0x08001ea8   0x08001ea8   0x00000018   Code   RO         4055    i.MD_CRC16Update    md_rtu_crc16.o
    0x08001ec0   0x08001ec0   0x00000086   Code   RO         4103    i.MDdeQueue         md_rtu_queue.o
    0x08001f46   0x08001f46   0x0000008a   Code   RO         4105    i.MDenQueue         md_rtu_queue.o
    0x08001fd0   0x08001fd0   0x00000030   Code   RO         4078    i.MapTableAdd       md_rtu_maptable.o
    0x08002000   0x08002000   0x00000004   Code   RO            7    i.MemManage_Handler  gd32f10x_it.o
    0x08002004   0x08002004   0x00000002   Code   RO            8    i.NMI_Handler       gd32f10x_it.o
    0x08002006   0x08002006   0x00000002   Code   RO            9    i.PendSV_Handler    gd32f10x_it.o
    0x08002008   0x08002008   0x00000024   Code   RO         4515    i.RS485RWConvInit   usart3.o
    0x0800202c   0x0800202c   0x00000002   Code   RO           10    i.SVC_Handler       gd32f10x_it.o
    0x0800202e   0x0800202e   0x00000002   PAD
    0x08002030   0x08002030   0x000000d4   Code   RO          244    i.SystemInit        system_gd32f10x.o
    0x08002104   0x08002104   0x00000044   Code   RO         4473    i.TIM3_Int_Init     tim3.o
    0x08002148   0x08002148   0x00000030   Code   RO         4474    i.TIMER5_IRQHandler  tim3.o
    0x08002178   0x08002178   0x00000028   Code   RO         4516    i.USART1_IRQHandler  usart3.o
    0x080021a0   0x080021a0   0x00000004   Code   RO           11    i.UsageFault_Handler  gd32f10x_it.o
    0x080021a4   0x080021a4   0x0000000e   Code   RO         4616    i.__scatterload_copy  mc_w.l(handlers.o)
    0x080021b2   0x080021b2   0x00000002   Code   RO         4617    i.__scatterload_null  mc_w.l(handlers.o)
    0x080021b4   0x080021b4   0x0000000e   Code   RO         4618    i.__scatterload_zeroinit  mc_w.l(handlers.o)
    0x080021c2   0x080021c2   0x00000004   Code   RO         1845    i.gpio_bit_reset    gd32f10x_gpio.o
    0x080021c6   0x080021c6   0x000000ac   Code   RO         1853    i.gpio_init         gd32f10x_gpio.o
    0x08002272   0x08002272   0x00000002   PAD
    0x08002274   0x08002274   0x00000094   Code   RO         4517    i.init_usart3       usart3.o
    0x08002308   0x08002308   0x0000001c   Code   RO          174    i.main              main.o
    0x08002324   0x08002324   0x000000ac   Code   RO         2169    i.nvic_irq_enable   gd32f10x_misc.o
    0x080023d0   0x080023d0   0x00000014   Code   RO         2170    i.nvic_priority_group_set  gd32f10x_misc.o
    0x080023e4   0x080023e4   0x00000018   Code   RO         2171    i.nvic_vector_table_set  gd32f10x_misc.o
    0x080023fc   0x080023fc   0x00000124   Code   RO         2327    i.rcu_clock_freq_get  gd32f10x_rcu.o
    0x08002520   0x08002520   0x00000020   Code   RO         2344    i.rcu_periph_clock_enable  gd32f10x_rcu.o
    0x08002540   0x08002540   0x000000bc   Code   RO          245    i.system_clock_96m_hxtal  system_gd32f10x.o
    0x080025fc   0x080025fc   0x00000008   Code   RO          246    i.system_clock_config  system_gd32f10x.o
    0x08002604   0x08002604   0x0000000a   Code   RO         3189    i.timer_enable      gd32f10x_timer.o
    0x0800260e   0x0800260e   0x00000002   PAD
    0x08002610   0x08002610   0x000000e0   Code   RO         3199    i.timer_init        gd32f10x_timer.o
    0x080026f0   0x080026f0   0x00000008   Code   RO         3206    i.timer_interrupt_enable  gd32f10x_timer.o
    0x080026f8   0x080026f8   0x00000006   Code   RO         3207    i.timer_interrupt_flag_clear  gd32f10x_timer.o
    0x080026fe   0x080026fe   0x00000018   Code   RO         3208    i.timer_interrupt_flag_get  gd32f10x_timer.o
    0x08002716   0x08002716   0x00000002   PAD
    0x08002718   0x08002718   0x00000030   Code   RO         4518    i.usart3_send_byte  usart3.o
    0x08002748   0x08002748   0x00000018   Code   RO         4519    i.usart3_send_bytes  usart3.o
    0x08002760   0x08002760   0x00000090   Code   RO         3586    i.usart_baudrate_set  gd32f10x_usart.o
    0x080027f0   0x080027f0   0x0000000a   Code   RO         3587    i.usart_data_receive  gd32f10x_usart.o
    0x080027fa   0x080027fa   0x00000008   Code   RO         3588    i.usart_data_transmit  gd32f10x_usart.o
    0x08002802   0x08002802   0x0000000a   Code   RO         3593    i.usart_enable      gd32f10x_usart.o
    0x0800280c   0x0800280c   0x0000001e   Code   RO         3595    i.usart_flag_get    gd32f10x_usart.o
    0x0800282a   0x0800282a   0x00000010   Code   RO         3599    i.usart_hardware_flow_cts_config  gd32f10x_usart.o
    0x0800283a   0x0800283a   0x00000010   Code   RO         3600    i.usart_hardware_flow_rts_config  gd32f10x_usart.o
    0x0800284a   0x0800284a   0x0000001a   Code   RO         3602    i.usart_interrupt_enable  gd32f10x_usart.o
    0x08002864   0x08002864   0x00000038   Code   RO         3604    i.usart_interrupt_flag_get  gd32f10x_usart.o
    0x0800289c   0x0800289c   0x00000010   Code   RO         3614    i.usart_parity_config  gd32f10x_usart.o
    0x080028ac   0x080028ac   0x00000010   Code   RO         3616    i.usart_receive_config  gd32f10x_usart.o
    0x080028bc   0x080028bc   0x00000010   Code   RO         3622    i.usart_stop_bit_set  gd32f10x_usart.o
    0x080028cc   0x080028cc   0x00000010   Code   RO         3626    i.usart_transmit_config  gd32f10x_usart.o
    0x080028dc   0x080028dc   0x00000010   Code   RO         3627    i.usart_word_length_set  gd32f10x_usart.o
    0x080028ec   0x080028ec   0x00000200   Data   RO         4056    .constdata          md_rtu_crc16.o
    0x08002aec   0x08002aec   0x0000000a   Data   RO         4192    .constdata          mds_rtu_app.o
    0x08002af6   0x08002af6   0x00000002   PAD
    0x08002af8   0x08002af8   0x00000020   Data   RO         4614    Region$$Table       anon$$obj.o


    Execution Region RW_IRAM1 (Exec base: 0x20000000, Load base: 0x08002b18, Size: 0x00000960, Max: 0x00018000, ABSOLUTE)

    Exec Addr    Load Addr    Size         Type   Attr      Idx    E Section Name        Object

    0x20000000   0x08002b18   0x000000c0   Data   RW         4193    .data               mds_rtu_app.o
    0x200000c0   0x08002bd8   0x00000004   Data   RW         4312    .data               mds_rtu_serial.o
    0x200000c4   0x08002bdc   0x00000004   Data   RW         4475    .data               tim3.o
    0x200000c8        -       0x00000498   Zero   RW         4191    .bss                mds_rtu_app.o
    0x20000560        -       0x00000400   Zero   RW          281    STACK               startup_gd32f10x_xd.o


==============================================================================

Image component sizes


      Code (inc. data)   RO Data    RW Data    ZI Data      Debug   Object Name

       176          0          0          0          0       1305   gd32f10x_gpio.o
        24          0          0          0          0      41772   gd32f10x_it.o
       216         28          0          0          0       1788   gd32f10x_misc.o
       324         32          0          0          0       1591   gd32f10x_rcu.o
       272         54          0          0          0       3285   gd32f10x_timer.o
       396          8          0          0          0       7972   gd32f10x_usart.o
        28          0          0          0          0       6435   main.o
        24          4        512          0          0       1541   md_rtu_crc16.o
        48          0          0          0          0       1606   md_rtu_maptable.o
       346         12          0          0          0       3729   md_rtu_queue.o
       352         58         10        192       1176       6593   mds_rtu_app.o
      3902         16          0          0          0      10320   mds_rtu_fun.o
       176         32          0          4          0       3252   mds_rtu_serial.o
      1636          0          0          0          0       9867   mds_rtu_user_fun.o
        36          8        304          0       1024        768   startup_gd32f10x_xd.o
       408         24          0          0          0       2185   system_gd32f10x.o
       116         12          0          4          0       1253   tim3.o
       296         28          0          0          0       2867   usart3.o

    ----------------------------------------------------------------------
      8788        316        860        200       2200     108129   Object Totals
         0          0         32          0          0          0   (incl. Generated)
        12          0          2          0          0          0   (incl. Padding)

    ----------------------------------------------------------------------

      Code (inc. data)   RO Data    RW Data    ZI Data      Debug   Library Member Name

         0          0          0          0          0          0   entry.o
         0          0          0          0          0          0   entry10a.o
         0          0          0          0          0          0   entry11a.o
         8          4          0          0          0          0   entry2.o
         4          0          0          0          0          0   entry5.o
         0          0          0          0          0          0   entry7b.o
         0          0          0          0          0          0   entry8b.o
         8          4          0          0          0          0   entry9a.o
        30          0          0          0          0          0   handlers.o
        36          8          0          0          0         68   init.o
         0          0          0          0          0          0   iusefp.o
        30          0          0          0          0         68   llshl.o
        32          0          0          0          0         68   llushr.o
        56          0          0          0          0         88   d2f.o
       222          0          0          0          0        100   ddiv.o
       186          0          0          0          0        176   depilogue.o
       228          0          0          0          0         96   dmul.o
        38          0          0          0          0         68   f2d.o
       176          0          0          0          0        140   fadd.o
       110          0          0          0          0        168   fepilogue.o
        50          0          0          0          0         68   ffixi.o
        40          0          0          0          0         68   ffixui.o
        18          0          0          0          0         68   fflti.o
        10          0          0          0          0         68   ffltui.o
       100          0          0          0          0         76   fmul.o

    ----------------------------------------------------------------------
      1384         16          0          0          0       1388   Library Totals
         2          0          0          0          0          0   (incl. Padding)

    ----------------------------------------------------------------------

      Code (inc. data)   RO Data    RW Data    ZI Data      Debug   Library Name

       148         16          0          0          0        204   mc_w.l
      1234          0          0          0          0       1184   mf_w.l

    ----------------------------------------------------------------------
      1384         16          0          0          0       1388   Library Totals

    ----------------------------------------------------------------------

==============================================================================


      Code (inc. data)   RO Data    RW Data    ZI Data      Debug   

     10172        332        860        200       2200     104885   Grand Totals
     10172        332        860        200       2200     104885   ELF Image Totals
     10172        332        860        200          0          0   ROM Totals

==============================================================================

    Total RO  Size (Code + RO Data)                11032 (  10.77kB)
    Total RW  Size (RW Data + ZI Data)              2400 (   2.34kB)
    Total ROM Size (Code + RO Data + RW Data)      11232 (  10.97kB)

==============================================================================

